{
  "_format": "hh-sol-artifact-1",
  "contractName": "TimeSlotNFT",
  "sourceName": "contracts/TimeSlotNFT.sol",
  "abi": [
    {
      "inputs": [
        {
          "internalType": "address",
          "name": "_platformWallet",
          "type": "address"
        }
      ],
      "stateMutability": "nonpayable",
      "type": "constructor"
    },
    {
      "anonymous": false,
      "inputs": [
        {
          "indexed": true,
          "internalType": "address",
          "name": "owner",
          "type": "address"
        },
        {
          "indexed": true,
          "internalType": "address",
          "name": "approved",
          "type": "address"
        },
        {
          "indexed": true,
          "internalType": "uint256",
          "name": "tokenId",
          "type": "uint256"
        }
      ],
      "name": "Approval",
      "type": "event"
    },
    {
      "anonymous": false,
      "inputs": [
        {
          "indexed": true,
          "internalType": "address",
          "name": "owner",
          "type": "address"
        },
        {
          "indexed": true,
          "internalType": "address",
          "name": "operator",
          "type": "address"
        },
        {
          "indexed": false,
          "internalType": "bool",
          "name": "approved",
          "type": "bool"
        }
      ],
      "name": "ApprovalForAll",
      "type": "event"
    },
    {
      "anonymous": false,
      "inputs": [
        {
          "indexed": false,
          "internalType": "uint256",
          "name": "_fromTokenId",
          "type": "uint256"
        },
        {
          "indexed": false,
          "internalType": "uint256",
          "name": "_toTokenId",
          "type": "uint256"
        }
      ],
      "name": "BatchMetadataUpdate",
      "type": "event"
    },
    {
      "anonymous": false,
      "inputs": [
        {
          "indexed": true,
          "internalType": "address",
          "name": "expert",
          "type": "address"
        },
        {
          "indexed": false,
          "internalType": "string",
          "name": "name",
          "type": "string"
        },
        {
          "indexed": false,
          "internalType": "string",
          "name": "profession",
          "type": "string"
        }
      ],
      "name": "ExpertProfileUpdated",
      "type": "event"
    },
    {
      "anonymous": false,
      "inputs": [
        {
          "indexed": false,
          "internalType": "uint256",
          "name": "_tokenId",
          "type": "uint256"
        }
      ],
      "name": "MetadataUpdate",
      "type": "event"
    },
    {
      "anonymous": false,
      "inputs": [
        {
          "indexed": true,
          "internalType": "address",
          "name": "previousOwner",
          "type": "address"
        },
        {
          "indexed": true,
          "internalType": "address",
          "name": "newOwner",
          "type": "address"
        }
      ],
      "name": "OwnershipTransferred",
      "type": "event"
    },
    {
      "anonymous": false,
      "inputs": [
        {
          "indexed": true,
          "internalType": "uint256",
          "name": "tokenId",
          "type": "uint256"
        }
      ],
      "name": "SlotAutoRevoked",
      "type": "event"
    },
    {
      "anonymous": false,
      "inputs": [
        {
          "indexed": true,
          "internalType": "uint256",
          "name": "tokenId",
          "type": "uint256"
        },
        {
          "indexed": true,
          "internalType": "address",
          "name": "expert",
          "type": "address"
        },
        {
          "indexed": true,
          "internalType": "address",
          "name": "booker",
          "type": "address"
        },
        {
          "indexed": false,
          "internalType": "uint256",
          "name": "price",
          "type": "uint256"
        }
      ],
      "name": "SlotBooked",
      "type": "event"
    },
    {
      "anonymous": false,
      "inputs": [
        {
          "indexed": true,
          "internalType": "uint256",
          "name": "tokenId",
          "type": "uint256"
        },
        {
          "indexed": true,
          "internalType": "address",
          "name": "expert",
          "type": "address"
        },
        {
          "indexed": false,
          "internalType": "uint256",
          "name": "startTime",
          "type": "uint256"
        },
        {
          "indexed": false,
          "internalType": "uint256",
          "name": "endTime",
          "type": "uint256"
        },
        {
          "indexed": false,
          "internalType": "uint256",
          "name": "price",
          "type": "uint256"
        },
        {
          "indexed": false,
          "internalType": "string",
          "name": "profession",
          "type": "string"
        }
      ],
      "name": "SlotCreated",
      "type": "event"
    },
    {
      "anonymous": false,
      "inputs": [
        {
          "indexed": true,
          "internalType": "uint256",
          "name": "tokenId",
          "type": "uint256"
        },
        {
          "indexed": true,
          "internalType": "address",
          "name": "from",
          "type": "address"
        },
        {
          "indexed": true,
          "internalType": "address",
          "name": "to",
          "type": "address"
        },
        {
          "indexed": false,
          "internalType": "uint256",
          "name": "price",
          "type": "uint256"
        }
      ],
      "name": "SlotResold",
      "type": "event"
    },
    {
      "anonymous": false,
      "inputs": [
        {
          "indexed": true,
          "internalType": "uint256",
          "name": "tokenId",
          "type": "uint256"
        },
        {
          "indexed": true,
          "internalType": "address",
          "name": "expert",
          "type": "address"
        },
        {
          "indexed": true,
          "internalType": "address",
          "name": "booker",
          "type": "address"
        }
      ],
      "name": "SlotRevoked",
      "type": "event"
    },
    {
      "anonymous": false,
      "inputs": [
        {
          "indexed": true,
          "internalType": "address",
          "name": "from",
          "type": "address"
        },
        {
          "indexed": true,
          "internalType": "address",
          "name": "to",
          "type": "address"
        },
        {
          "indexed": true,
          "internalType": "uint256",
          "name": "tokenId",
          "type": "uint256"
        }
      ],
      "name": "Transfer",
      "type": "event"
    },
    {
      "inputs": [
        {
          "internalType": "address",
          "name": "to",
          "type": "address"
        },
        {
          "internalType": "uint256",
          "name": "tokenId",
          "type": "uint256"
        }
      ],
      "name": "approve",
      "outputs": [],
      "stateMutability": "nonpayable",
      "type": "function"
    },
    {
      "inputs": [
        {
          "internalType": "uint256",
          "name": "_tokenId",
          "type": "uint256"
        }
      ],
      "name": "autoRevoke",
      "outputs": [],
      "stateMutability": "nonpayable",
      "type": "function"
    },
    {
      "inputs": [
        {
          "internalType": "address",
          "name": "owner",
          "type": "address"
        }
      ],
      "name": "balanceOf",
      "outputs": [
        {
          "internalType": "uint256",
          "name": "",
          "type": "uint256"
        }
      ],
      "stateMutability": "view",
      "type": "function"
    },
    {
      "inputs": [
        {
          "internalType": "uint256[]",
          "name": "_tokenIds",
          "type": "uint256[]"
        }
      ],
      "name": "batchAutoRevoke",
      "outputs": [],
      "stateMutability": "nonpayable",
      "type": "function"
    },
    {
      "inputs": [
        {
          "internalType": "uint256[]",
          "name": "_startTimes",
          "type": "uint256[]"
        },
        {
          "internalType": "uint256[]",
          "name": "_endTimes",
          "type": "uint256[]"
        },
        {
          "internalType": "uint256[]",
          "name": "_prices",
          "type": "uint256[]"
        },
        {
          "internalType": "string[]",
          "name": "_professions",
          "type": "string[]"
        },
        {
          "internalType": "string[]",
          "name": "_descriptions",
          "type": "string[]"
        }
      ],
      "name": "batchCreateTimeSlots",
      "outputs": [],
      "stateMutability": "nonpayable",
      "type": "function"
    },
    {
      "inputs": [
        {
          "internalType": "uint256",
          "name": "_tokenId",
          "type": "uint256"
        }
      ],
      "name": "bookSlot",
      "outputs": [],
      "stateMutability": "nonpayable",
      "type": "function"
    },
    {
      "inputs": [
        {
          "internalType": "uint256",
          "name": "_tokenId",
          "type": "uint256"
        }
      ],
      "name": "buyResoldSlot",
      "outputs": [],
      "stateMutability": "payable",
      "type": "function"
    },
    {
      "inputs": [
        {
          "internalType": "uint256",
          "name": "_tokenId",
          "type": "uint256"
        }
      ],
      "name": "canAutoRevoke",
      "outputs": [
        {
          "internalType": "bool",
          "name": "",
          "type": "bool"
        }
      ],
      "stateMutability": "view",
      "type": "function"
    },
    {
      "inputs": [
        {
          "internalType": "uint256",
          "name": "_tokenId",
          "type": "uint256"
        }
      ],
      "name": "confirmAppointment",
      "outputs": [],
      "stateMutability": "view",
      "type": "function"
    },
    {
      "inputs": [
        {
          "internalType": "string",
          "name": "_name",
          "type": "string"
        },
        {
          "internalType": "string",
          "name": "_profession",
          "type": "string"
        },
        {
          "internalType": "string",
          "name": "_description",
          "type": "string"
        },
        {
          "internalType": "string",
          "name": "_ens",
          "type": "string"
        }
      ],
      "name": "createExpertProfile",
      "outputs": [],
      "stateMutability": "nonpayable",
      "type": "function"
    },
    {
      "inputs": [
        {
          "internalType": "uint256",
          "name": "_startTime",
          "type": "uint256"
        },
        {
          "internalType": "uint256",
          "name": "_endTime",
          "type": "uint256"
        },
        {
          "internalType": "uint256",
          "name": "_price",
          "type": "uint256"
        },
        {
          "internalType": "string",
          "name": "_profession",
          "type": "string"
        },
        {
          "internalType": "string",
          "name": "_description",
          "type": "string"
        }
      ],
      "name": "createTimeSlot",
      "outputs": [],
      "stateMutability": "nonpayable",
      "type": "function"
    },
    {
      "inputs": [
        {
          "internalType": "address",
          "name": "",
          "type": "address"
        }
      ],
      "name": "expertProfiles",
      "outputs": [
        {
          "internalType": "string",
          "name": "name",
          "type": "string"
        },
        {
          "internalType": "string",
          "name": "profession",
          "type": "string"
        },
        {
          "internalType": "string",
          "name": "description",
          "type": "string"
        },
        {
          "internalType": "string",
          "name": "ens",
          "type": "string"
        },
        {
          "internalType": "uint256",
          "name": "totalSlots",
          "type": "uint256"
        },
        {
          "internalType": "uint256",
          "name": "totalBookings",
          "type": "uint256"
        },
        {
          "internalType": "uint256",
          "name": "rating",
          "type": "uint256"
        },
        {
          "internalType": "uint256",
          "name": "reviewCount",
          "type": "uint256"
        },
        {
          "internalType": "bool",
          "name": "isActive",
          "type": "bool"
        }
      ],
      "stateMutability": "view",
      "type": "function"
    },
    {
      "inputs": [
        {
          "internalType": "address",
          "name": "",
          "type": "address"
        },
        {
          "internalType": "uint256",
          "name": "",
          "type": "uint256"
        }
      ],
      "name": "expertSlots",
      "outputs": [
        {
          "internalType": "uint256",
          "name": "",
          "type": "uint256"
        }
      ],
      "stateMutability": "view",
      "type": "function"
    },
    {
      "inputs": [
        {
          "internalType": "uint256",
          "name": "tokenId",
          "type": "uint256"
        }
      ],
      "name": "getApproved",
      "outputs": [
        {
          "internalType": "address",
          "name": "",
          "type": "address"
        }
      ],
      "stateMutability": "view",
      "type": "function"
    },
    {
      "inputs": [
        {
          "internalType": "address",
          "name": "_expert",
          "type": "address"
        }
      ],
      "name": "getExpertProfile",
      "outputs": [
        {
          "components": [
            {
              "internalType": "string",
              "name": "name",
              "type": "string"
            },
            {
              "internalType": "string",
              "name": "profession",
              "type": "string"
            },
            {
              "internalType": "string",
              "name": "description",
              "type": "string"
            },
            {
              "internalType": "string",
              "name": "ens",
              "type": "string"
            },
            {
              "internalType": "uint256",
              "name": "totalSlots",
              "type": "uint256"
            },
            {
              "internalType": "uint256",
              "name": "totalBookings",
              "type": "uint256"
            },
            {
              "internalType": "uint256",
              "name": "rating",
              "type": "uint256"
            },
            {
              "internalType": "uint256",
              "name": "reviewCount",
              "type": "uint256"
            },
            {
              "internalType": "bool",
              "name": "isActive",
              "type": "bool"
            }
          ],
          "internalType": "struct TimeSlotNFT.ExpertProfile",
          "name": "",
          "type": "tuple"
        }
      ],
      "stateMutability": "view",
      "type": "function"
    },
    {
      "inputs": [
        {
          "internalType": "address",
          "name": "_expert",
          "type": "address"
        }
      ],
      "name": "getExpertSlots",
      "outputs": [
        {
          "internalType": "uint256[]",
          "name": "",
          "type": "uint256[]"
        }
      ],
      "stateMutability": "view",
      "type": "function"
    },
    {
      "inputs": [
        {
          "internalType": "uint256",
          "name": "_tokenId",
          "type": "uint256"
        }
      ],
      "name": "getTimeSlot",
      "outputs": [
        {
          "components": [
            {
              "internalType": "uint256",
              "name": "tokenId",
              "type": "uint256"
            },
            {
              "internalType": "address",
              "name": "expert",
              "type": "address"
            },
            {
              "internalType": "uint256",
              "name": "startTime",
              "type": "uint256"
            },
            {
              "internalType": "uint256",
              "name": "endTime",
              "type": "uint256"
            },
            {
              "internalType": "uint256",
              "name": "price",
              "type": "uint256"
            },
            {
              "internalType": "bool",
              "name": "isBooked",
              "type": "bool"
            },
            {
              "internalType": "address",
              "name": "bookedBy",
              "type": "address"
            },
            {
              "internalType": "bool",
              "name": "isRevoked",
              "type": "bool"
            },
            {
              "internalType": "string",
              "name": "profession",
              "type": "string"
            },
            {
              "internalType": "string",
              "name": "description",
              "type": "string"
            },
            {
              "internalType": "uint256",
              "name": "createdAt",
              "type": "uint256"
            }
          ],
          "internalType": "struct TimeSlotNFT.TimeSlot",
          "name": "",
          "type": "tuple"
        }
      ],
      "stateMutability": "view",
      "type": "function"
    },
    {
      "inputs": [
        {
          "internalType": "address",
          "name": "_user",
          "type": "address"
        }
      ],
      "name": "getUserBookings",
      "outputs": [
        {
          "internalType": "uint256[]",
          "name": "",
          "type": "uint256[]"
        }
      ],
      "stateMutability": "view",
      "type": "function"
    },
    {
      "inputs": [
        {
          "internalType": "address",
          "name": "owner",
          "type": "address"
        },
        {
          "internalType": "address",
          "name": "operator",
          "type": "address"
        }
      ],
      "name": "isApprovedForAll",
      "outputs": [
        {
          "internalType": "bool",
          "name": "",
          "type": "bool"
        }
      ],
      "stateMutability": "view",
      "type": "function"
    },
    {
      "inputs": [],
      "name": "name",
      "outputs": [
        {
          "internalType": "string",
          "name": "",
          "type": "string"
        }
      ],
      "stateMutability": "view",
      "type": "function"
    },
    {
      "inputs": [],
      "name": "owner",
      "outputs": [
        {
          "internalType": "address",
          "name": "",
          "type": "address"
        }
      ],
      "stateMutability": "view",
      "type": "function"
    },
    {
      "inputs": [
        {
          "internalType": "uint256",
          "name": "tokenId",
          "type": "uint256"
        }
      ],
      "name": "ownerOf",
      "outputs": [
        {
          "internalType": "address",
          "name": "",
          "type": "address"
        }
      ],
      "stateMutability": "view",
      "type": "function"
    },
    {
      "inputs": [],
      "name": "platformFeePercent",
      "outputs": [
        {
          "internalType": "uint256",
          "name": "",
          "type": "uint256"
        }
      ],
      "stateMutability": "view",
      "type": "function"
    },
    {
      "inputs": [],
      "name": "platformWallet",
      "outputs": [
        {
          "internalType": "address",
          "name": "",
          "type": "address"
        }
      ],
      "stateMutability": "view",
      "type": "function"
    },
    {
      "inputs": [],
      "name": "renounceOwnership",
      "outputs": [],
      "stateMutability": "nonpayable",
      "type": "function"
    },
    {
      "inputs": [
        {
          "internalType": "uint256",
          "name": "_tokenId",
          "type": "uint256"
        },
        {
          "internalType": "uint256",
          "name": "_newPrice",
          "type": "uint256"
        }
      ],
      "name": "resellSlot",
      "outputs": [],
      "stateMutability": "nonpayable",
      "type": "function"
    },
    {
      "inputs": [
        {
          "internalType": "uint256",
          "name": "_tokenId",
          "type": "uint256"
        }
      ],
      "name": "revokeSlot",
      "outputs": [],
      "stateMutability": "nonpayable",
      "type": "function"
    },
    {
      "inputs": [],
      "name": "royaltyPercent",
      "outputs": [
        {
          "internalType": "uint256",
          "name": "",
          "type": "uint256"
        }
      ],
      "stateMutability": "view",
      "type": "function"
    },
    {
      "inputs": [
        {
          "internalType": "address",
          "name": "from",
          "type": "address"
        },
        {
          "internalType": "address",
          "name": "to",
          "type": "address"
        },
        {
          "internalType": "uint256",
          "name": "tokenId",
          "type": "uint256"
        }
      ],
      "name": "safeTransferFrom",
      "outputs": [],
      "stateMutability": "nonpayable",
      "type": "function"
    },
    {
      "inputs": [
        {
          "internalType": "address",
          "name": "from",
          "type": "address"
        },
        {
          "internalType": "address",
          "name": "to",
          "type": "address"
        },
        {
          "internalType": "uint256",
          "name": "tokenId",
          "type": "uint256"
        },
        {
          "internalType": "bytes",
          "name": "data",
          "type": "bytes"
        }
      ],
      "name": "safeTransferFrom",
      "outputs": [],
      "stateMutability": "nonpayable",
      "type": "function"
    },
    {
      "inputs": [
        {
          "internalType": "address",
          "name": "operator",
          "type": "address"
        },
        {
          "internalType": "bool",
          "name": "approved",
          "type": "bool"
        }
      ],
      "name": "setApprovalForAll",
      "outputs": [],
      "stateMutability": "nonpayable",
      "type": "function"
    },
    {
      "inputs": [
        {
          "internalType": "uint256",
          "name": "",
          "type": "uint256"
        }
      ],
      "name": "slotExists",
      "outputs": [
        {
          "internalType": "bool",
          "name": "",
          "type": "bool"
        }
      ],
      "stateMutability": "view",
      "type": "function"
    },
    {
      "inputs": [
        {
          "internalType": "bytes4",
          "name": "interfaceId",
          "type": "bytes4"
        }
      ],
      "name": "supportsInterface",
      "outputs": [
        {
          "internalType": "bool",
          "name": "",
          "type": "bool"
        }
      ],
      "stateMutability": "view",
      "type": "function"
    },
    {
      "inputs": [],
      "name": "symbol",
      "outputs": [
        {
          "internalType": "string",
          "name": "",
          "type": "string"
        }
      ],
      "stateMutability": "view",
      "type": "function"
    },
    {
      "inputs": [
        {
          "internalType": "uint256",
          "name": "",
          "type": "uint256"
        }
      ],
      "name": "timeSlots",
      "outputs": [
        {
          "internalType": "uint256",
          "name": "tokenId",
          "type": "uint256"
        },
        {
          "internalType": "address",
          "name": "expert",
          "type": "address"
        },
        {
          "internalType": "uint256",
          "name": "startTime",
          "type": "uint256"
        },
        {
          "internalType": "uint256",
          "name": "endTime",
          "type": "uint256"
        },
        {
          "internalType": "uint256",
          "name": "price",
          "type": "uint256"
        },
        {
          "internalType": "bool",
          "name": "isBooked",
          "type": "bool"
        },
        {
          "internalType": "address",
          "name": "bookedBy",
          "type": "address"
        },
        {
          "internalType": "bool",
          "name": "isRevoked",
          "type": "bool"
        },
        {
          "internalType": "string",
          "name": "profession",
          "type": "string"
        },
        {
          "internalType": "string",
          "name": "description",
          "type": "string"
        },
        {
          "internalType": "uint256",
          "name": "createdAt",
          "type": "uint256"
        }
      ],
      "stateMutability": "view",
      "type": "function"
    },
    {
      "inputs": [
        {
          "internalType": "uint256",
          "name": "tokenId",
          "type": "uint256"
        }
      ],
      "name": "tokenURI",
      "outputs": [
        {
          "internalType": "string",
          "name": "",
          "type": "string"
        }
      ],
      "stateMutability": "view",
      "type": "function"
    },
    {
      "inputs": [
        {
          "internalType": "address",
          "name": "from",
          "type": "address"
        },
        {
          "internalType": "address",
          "name": "to",
          "type": "address"
        },
        {
          "internalType": "uint256",
          "name": "tokenId",
          "type": "uint256"
        }
      ],
      "name": "transferFrom",
      "outputs": [],
      "stateMutability": "nonpayable",
      "type": "function"
    },
    {
      "inputs": [
        {
          "internalType": "address",
          "name": "newOwner",
          "type": "address"
        }
      ],
      "name": "transferOwnership",
      "outputs": [],
      "stateMutability": "nonpayable",
      "type": "function"
    },
    {
      "inputs": [
        {
          "internalType": "uint256",
          "name": "_newFeePercent",
          "type": "uint256"
        }
      ],
      "name": "updatePlatformFee",
      "outputs": [],
      "stateMutability": "nonpayable",
      "type": "function"
    },
    {
      "inputs": [
        {
          "internalType": "uint256",
          "name": "_newFeePercent",
          "type": "uint256"
        }
      ],
      "name": "updateRoyaltyFee",
      "outputs": [],
      "stateMutability": "nonpayable",
      "type": "function"
    },
    {
      "inputs": [
        {
          "internalType": "address",
          "name": "",
          "type": "address"
        },
        {
          "internalType": "uint256",
          "name": "",
          "type": "uint256"
        }
      ],
      "name": "userBookings",
      "outputs": [
        {
          "internalType": "uint256",
          "name": "",
          "type": "uint256"
        }
      ],
      "stateMutability": "view",
      "type": "function"
    },
    {
      "inputs": [],
      "name": "withdraw",
      "outputs": [],
      "stateMutability": "nonpayable",
      "type": "function"
    }
  ],
  "bytecode": "0x60806040526003600f5560026010553480156200001b57600080fd5b5060405162004f4538038062004f458339810160408190526200003e916200013b565b60405180604001604052806008815260200167151a5b5954db1bdd60c21b815250604051806040016040528060058152602001641514d313d560da1b81525081600090816200008e919062000212565b5060016200009d828262000212565b505050620000ba620000b4620000e560201b60201c565b620000e9565b6001600855601180546001600160a01b0319166001600160a01b0392909216919091179055620002de565b3390565b600780546001600160a01b038381166001600160a01b0319831681179093556040519116919082907f8be0079c531659141344cd1fd0a4f28419497f9722a3daafe3b4186f6b6457e090600090a35050565b6000602082840312156200014e57600080fd5b81516001600160a01b03811681146200016657600080fd5b9392505050565b634e487b7160e01b600052604160045260246000fd5b600181811c908216806200019857607f821691505b602082108103620001b957634e487b7160e01b600052602260045260246000fd5b50919050565b601f8211156200020d57600081815260208120601f850160051c81016020861015620001e85750805b601f850160051c820191505b818110156200020957828155600101620001f4565b5050505b505050565b81516001600160401b038111156200022e576200022e6200016d565b62000246816200023f845462000183565b84620001bf565b602080601f8311600181146200027e5760008415620002655750858301515b600019600386901b1c1916600185901b17855562000209565b600085815260208120601f198616915b82811015620002af578886015182559484019460019091019084016200028e565b5085821015620002ce5787850151600019600388901b60f8161c191681555b5050505050600190811b01905550565b614c5780620002ee6000396000f3fe6080604052600436106102515760003560e01c806395d89b4111610139578063bdabcfdd116100b6578063e985e9c51161007a578063e985e9c514610741578063eeee972014610761578063ef3197c814610774578063f2fde38b14610794578063fa2af9da146107b4578063fd806f99146107d457600080fd5b8063bdabcfdd146106a1578063c87b56dd146106c1578063cefead95146106e1578063e06de0a814610701578063e3a4d3a21461072157600080fd5b8063aa0b5988116100fd578063aa0b5988146105ec578063ae403f961461060c578063b7f929861461062c578063b88d4fde14610661578063bca602711461068157600080fd5b806395d89b4114610551578063964df978146105665780639f67756d14610596578063a22cb465146105ac578063a7791aae146105cc57600080fd5b806342842e0e116101d2578063743da87f11610196578063743da87f1461046c5780637846361e1461049957806386e1c04f146104c65780638c639a85146104fd5780638da5cb5b146105135780639275ce6a1461053157600080fd5b806342842e0e146103c95780634e83be47146103e95780636352211e1461040957806370a0823114610429578063715018a61461045757600080fd5b806320b4dc461161021957806320b4dc461461032757806323b872dd146103475780632b85dcc9146103675780633c5ea388146103945780633ccfd60b146103b457600080fd5b806301ffc9a71461025657806306fdde031461028b578063081812fc146102ad578063095ea7b3146102e557806319159e6e14610307575b600080fd5b34801561026257600080fd5b50610276610271366004613dde565b6107f4565b60405190151581526020015b60405180910390f35b34801561029757600080fd5b506102a0610805565b6040516102829190613e4b565b3480156102b957600080fd5b506102cd6102c8366004613e5e565b610897565b6040516001600160a01b039091168152602001610282565b3480156102f157600080fd5b50610305610300366004613e93565b6108be565b005b34801561031357600080fd5b50610305610322366004613e5e565b6109d8565b34801561033357600080fd5b50610276610342366004613e5e565b610c0d565b34801561035357600080fd5b50610305610362366004613ebd565b610e31565b34801561037357600080fd5b50610387610382366004613e5e565b610e62565b6040516102829190613ef9565b3480156103a057600080fd5b506103056103af366004613e5e565b6110c1565b3480156103c057600080fd5b50610305611304565b3480156103d557600080fd5b506103056103e4366004613ebd565b611345565b3480156103f557600080fd5b50610305610404366004613e5e565b611360565b34801561041557600080fd5b506102cd610424366004613e5e565b6113be565b34801561043557600080fd5b50610449610444366004613fcd565b61141e565b604051908152602001610282565b34801561046357600080fd5b506103056114a4565b34801561047857600080fd5b5061048c610487366004613fcd565b6114b8565b6040516102829190613fe8565b3480156104a557600080fd5b506104b96104b4366004613fcd565b611524565b604051610282919061402c565b3480156104d257600080fd5b506104e66104e1366004613e5e565b61187c565b6040516102829b9a999897969594939291906140f0565b34801561050957600080fd5b50610449600f5481565b34801561051f57600080fd5b506007546001600160a01b03166102cd565b34801561053d57600080fd5b5061030561054c366004614237565b6119f8565b34801561055d57600080fd5b506102a0611b7c565b34801561057257600080fd5b50610276610581366004613e5e565b600e6020526000908152604090205460ff1681565b3480156105a257600080fd5b5061044960105481565b3480156105b857600080fd5b506103056105c73660046142e4565b611b8b565b3480156105d857600080fd5b506103056105e73660046143af565b611b9a565b3480156105f857600080fd5b50610305610607366004613e5e565b611cae565b34801561061857600080fd5b50610305610627366004614464565b611d04565b34801561063857600080fd5b5061064c610647366004613fcd565b61234f565b60405161028299989796959493929190614536565b34801561066d57600080fd5b5061030561067c3660046145b6565b6125b9565b34801561068d57600080fd5b5061030561069c366004614626565b6125f1565b3480156106ad57600080fd5b506103056106bc36600461469a565b6129e2565b3480156106cd57600080fd5b506102a06106dc366004613e5e565b612bc3565b3480156106ed57600080fd5b506103056106fc366004613e5e565b612bce565b34801561070d57600080fd5b5061044961071c366004613e93565b612cb0565b34801561072d57600080fd5b5061044961073c366004613e93565b612ce1565b34801561074d57600080fd5b5061027661075c3660046146bc565b612cfd565b61030561076f366004613e5e565b612d2b565b34801561078057600080fd5b5061048c61078f366004613fcd565b6130f8565b3480156107a057600080fd5b506103056107af366004613fcd565b613162565b3480156107c057600080fd5b506011546102cd906001600160a01b031681565b3480156107e057600080fd5b506103056107ef366004613e5e565b6131d8565b60006107ff8261327f565b92915050565b606060008054610814906146ef565b80601f0160208091040260200160405190810160405280929190818152602001828054610840906146ef565b801561088d5780601f106108625761010080835404028352916020019161088d565b820191906000526020600020905b81548152906001019060200180831161087057829003601f168201915b5050505050905090565b60006108a2826132a4565b506000908152600460205260409020546001600160a01b031690565b60006108c9826113be565b9050806001600160a01b0316836001600160a01b03160361093b5760405162461bcd60e51b815260206004820152602160248201527f4552433732313a20617070726f76616c20746f2063757272656e74206f776e656044820152603960f91b60648201526084015b60405180910390fd5b336001600160a01b038216148061095757506109578133612cfd565b6109c95760405162461bcd60e51b815260206004820152603d60248201527f4552433732313a20617070726f76652063616c6c6572206973206e6f7420746f60448201527f6b656e206f776e6572206f7220617070726f76656420666f7220616c6c0000006064820152608401610932565b6109d38383613303565b505050565b6109e0613371565b6000818152600e602052604090205460ff16610a0e5760405162461bcd60e51b815260040161093290614729565b6000818152600a602052604090206005015460ff1615610a665760405162461bcd60e51b815260206004820152601360248201527214db1bdd08185b1c9958591e48189bdbdad959606a1b6044820152606401610932565b6000818152600a6020526040902060050154600160a81b900460ff1615610ac75760405162461bcd60e51b815260206004820152601560248201527414db1bdd081a185cc81899595b881c995d9bdad959605a1b6044820152606401610932565b6000818152600a6020526040902060020154610ae6906103849061476c565b4210610b045760405162461bcd60e51b81526004016109329061477f565b6000818152600a60209081526040808320600580820180543361010081026001600160a81b03199092169190911760019081179092558652600d8552838620805480830182559087528587200187905591909101546001600160a01b03168452600b909252822001805491610b78836147c4565b90915550506000818152600a6020526040902060010154610ba3906001600160a01b031633836133ca565b6000818152600a60209081526040918290206001810154600490910154925192835233926001600160a01b039091169184917f0ce2e08ff7e103a28790210debaa761c68415f7f7e03d96605ca6a66ace9e6e9910160405180910390a4610c0a6001600855565b50565b6000818152600e602052604081205460ff16610c3b5760405162461bcd60e51b815260040161093290614729565b6000828152600a602090815260408083208151610160810183528154815260018201546001600160a01b03908116948201949094526002820154928101929092526003810154606083015260048101546080830152600581015460ff808216151560a085015261010080830490951660c0850152600160a81b90910416151560e08301526006810180549293919291840191610cd6906146ef565b80601f0160208091040260200160405190810160405280929190818152602001828054610d02906146ef565b8015610d4f5780601f10610d2457610100808354040283529160200191610d4f565b820191906000526020600020905b815481529060010190602001808311610d3257829003601f168201915b50505050508152602001600782018054610d68906146ef565b80601f0160208091040260200160405190810160405280929190818152602001828054610d94906146ef565b8015610de15780601f10610db657610100808354040283529160200191610de1565b820191906000526020600020905b815481529060010190602001808311610dc457829003601f168201915b5050505050815260200160088201548152505090508060e0015180610e0757508060a001515b15610e155750600092915050565b6103848160400151610e27919061476c565b4210159392505050565b610e3b338261352e565b610e575760405162461bcd60e51b8152600401610932906147dd565b6109d38383836133ca565b610ed56040518061016001604052806000815260200160006001600160a01b0316815260200160008152602001600081526020016000815260200160001515815260200160006001600160a01b031681526020016000151581526020016060815260200160608152602001600081525090565b6000828152600e602052604090205460ff16610f035760405162461bcd60e51b815260040161093290614729565b6000828152600a60209081526040918290208251610160810184528154815260018201546001600160a01b03908116938201939093526002820154938101939093526003810154606084015260048101546080840152600581015460ff808216151560a086015261010080830490941660c0860152600160a81b90910416151560e08401526006810180549192840191610f9c906146ef565b80601f0160208091040260200160405190810160405280929190818152602001828054610fc8906146ef565b80156110155780601f10610fea57610100808354040283529160200191611015565b820191906000526020600020905b815481529060010190602001808311610ff857829003601f168201915b5050505050815260200160078201805461102e906146ef565b80601f016020809104026020016040519081016040528092919081815260200182805461105a906146ef565b80156110a75780601f1061107c576101008083540402835291602001916110a7565b820191906000526020600020905b81548152906001019060200180831161108a57829003601f168201915b505050505081526020016008820154815250509050919050565b6000818152600e602052604090205460ff166110ef5760405162461bcd60e51b815260040161093290614729565b6000818152600a60205260409020600101546001600160a01b031633148061113557506000818152600a602052604090206005015461010090046001600160a01b031633145b6111815760405162461bcd60e51b815260206004820152601860248201527f4e6f7420617574686f72697a656420746f207265766f6b6500000000000000006044820152606401610932565b6000818152600a6020526040902060050154600160a81b900460ff16156111e15760405162461bcd60e51b815260206004820152601460248201527314db1bdd08185b1c9958591e481c995d9bdad95960621b6044820152606401610932565b6000818152600a6020526040902060020154611200906103849061476c565b421061125e5760405162461bcd60e51b815260206004820152602760248201527f43616e6e6f74207265766f6b652077697468696e203135206d696e75746573206044820152661bd9881cdb1bdd60ca1b6064820152608401610932565b6000818152600a60205260409020600501805460ff60a81b198116600160a81b1790915560ff16156112aa576000818152600a6020526040902060050180546001600160a81b03191690555b6000818152600a6020526040808220600581015460019091015491516101009091046001600160a01b039081169392169184917fd7bd96fdc1aac9b10ac77a82f6927fbd36ee1935c1a4383906d8a9c997c201f59190a450565b61130c61358d565b6007546040516001600160a01b03909116904780156108fc02916000818181858888f19350505050158015610c0a573d6000803e3d6000fd5b6109d3838383604051806020016040528060008152506125b9565b61136861358d565b60058111156113b95760405162461bcd60e51b815260206004820152601860248201527f526f79616c74792063616e6e6f742065786365656420352500000000000000006044820152606401610932565b601055565b6000818152600260205260408120546001600160a01b0316806107ff5760405162461bcd60e51b8152602060048201526018602482015277115490cdcc8c4e881a5b9d985b1a59081d1bdad95b88125160421b6044820152606401610932565b60006001600160a01b0382166114885760405162461bcd60e51b815260206004820152602960248201527f4552433732313a2061646472657373207a65726f206973206e6f7420612076616044820152683634b21037bbb732b960b91b6064820152608401610932565b506001600160a01b031660009081526003602052604090205490565b6114ac61358d565b6114b660006135e7565b565b6001600160a01b0381166000908152600c602090815260409182902080548351818402810184019094528084526060939283018282801561151857602002820191906000526020600020905b815481526020019060010190808311611504575b50505050509050919050565b61157560405180610120016040528060608152602001606081526020016060815260200160608152602001600081526020016000815260200160008152602001600081526020016000151581525090565b6001600160a01b0382166000908152600b602052604090206008015460ff166115d35760405162461bcd60e51b815260206004820152601060248201526f115e1c195c9d081b9bdd08199bdd5b9960821b6044820152606401610932565b6001600160a01b0382166000908152600b60205260409081902081516101208101909252805482908290611606906146ef565b80601f0160208091040260200160405190810160405280929190818152602001828054611632906146ef565b801561167f5780601f106116545761010080835404028352916020019161167f565b820191906000526020600020905b81548152906001019060200180831161166257829003601f168201915b50505050508152602001600182018054611698906146ef565b80601f01602080910402602001604051908101604052809291908181526020018280546116c4906146ef565b80156117115780601f106116e657610100808354040283529160200191611711565b820191906000526020600020905b8154815290600101906020018083116116f457829003601f168201915b5050505050815260200160028201805461172a906146ef565b80601f0160208091040260200160405190810160405280929190818152602001828054611756906146ef565b80156117a35780601f10611778576101008083540402835291602001916117a3565b820191906000526020600020905b81548152906001019060200180831161178657829003601f168201915b505050505081526020016003820180546117bc906146ef565b80601f01602080910402602001604051908101604052809291908181526020018280546117e8906146ef565b80156118355780601f1061180a57610100808354040283529160200191611835565b820191906000526020600020905b81548152906001019060200180831161181857829003601f168201915b50505091835250506004820154602082015260058201546040820152600682015460608201526007820154608082015260089091015460ff16151560a09091015292915050565b600a60205260009081526040902080546001820154600283015460038401546004850154600586015460068701805496976001600160a01b039687169795969495939460ff80851695610100860490921694600160a81b90041692906118e1906146ef565b80601f016020809104026020016040519081016040528092919081815260200182805461190d906146ef565b801561195a5780601f1061192f5761010080835404028352916020019161195a565b820191906000526020600020905b81548152906001019060200180831161193d57829003601f168201915b50505050509080600701805461196f906146ef565b80601f016020809104026020016040519081016040528092919081815260200182805461199b906146ef565b80156119e85780601f106119bd576101008083540402835291602001916119e8565b820191906000526020600020905b8154815290600101906020018083116119cb57829003601f168201915b505050505090806008015490508b565b336000908152600b602052604090206008015460ff1615611a545760405162461bcd60e51b815260206004820152601660248201527550726f66696c6520616c72656164792065786973747360501b6044820152606401610932565b604080516101208101825285815260208082018690528183018590526060820184905260006080830181905260a0830181905260c0830181905260e083018190526001610100840152338152600b9091529190912081518190611ab79082614870565b5060208201516001820190611acc9082614870565b5060408201516002820190611ae19082614870565b5060608201516003820190611af69082614870565b506080820151600482015560a0820151600582015560c0820151600682015560e08201516007820155610100909101516008909101805460ff191691151591909117905560405133907fe09d1c36395d1bf4d1d4cfb74336c3d28296f86359479d0534081c044a2987db90611b6e9087908790614930565b60405180910390a250505050565b606060018054610814906146ef565b611b96338383613639565b5050565b60005b8151811015611b9657600e6000838381518110611bbc57611bbc61495e565b60209081029190910181015182528101919091526040016000205460ff168015611c035750611c03828281518110611bf657611bf661495e565b6020026020010151610c0d565b15611c9c576000600a6000848481518110611c2057611c2061495e565b602090810291909101810151825281019190915260400160002060058101805460ff60a81b1916600160a81b1790558351909150839083908110611c6657611c6661495e565b60200260200101517f98f6352fdccebadb71e5f46edfec4b893d02ccc29c2f690c8e856d22189a599c60405160405180910390a2505b80611ca6816147c4565b915050611b9d565b611cb661358d565b600a811115611cff5760405162461bcd60e51b81526020600482015260156024820152744665652063616e6e6f74206578636565642031302560581b6044820152606401610932565b600f55565b336000908152600b602052604090206008015460ff16611d605760405162461bcd60e51b8152602060048201526017602482015276139bdd0818481c9959da5cdd195c995908195e1c195c9d604a1b6044820152606401610932565b83518551148015611d72575082518451145b8015611d7f575081518351145b8015611d8c575080518251145b611dd15760405162461bcd60e51b8152602060048201526016602482015275082e4e4c2f2e640d8cadccee8d040dad2e6dac2e8c6d60531b6044820152606401610932565b600a85511115611e345760405162461bcd60e51b815260206004820152602860248201527f43616e6e6f7420637265617465206d6f7265207468616e20313020736c6f7473604482015267206174206f6e636560c01b6064820152608401610932565b60005b85518110156123475742868281518110611e5357611e5361495e565b602002602001015111611ea85760405162461bcd60e51b815260206004820152601c60248201527f53746172742074696d65206d75737420626520696e20667574757265000000006044820152606401610932565b858181518110611eba57611eba61495e565b6020026020010151858281518110611ed457611ed461495e565b602002602001015111611ef95760405162461bcd60e51b815260040161093290614974565b613840868281518110611f0e57611f0e61495e565b6020026020010151868381518110611f2857611f2861495e565b6020026020010151611f3a919061476c565b1115611f585760405162461bcd60e51b8152600401610932906149b5565b611f654262093a806149f8565b868281518110611f7757611f7761495e565b60200260200101511115611f9d5760405162461bcd60e51b815260040161093290614a0b565b6000848281518110611fb157611fb161495e565b6020026020010151116120065760405162461bcd60e51b815260206004820152601c60248201527f5072696365206d7573742062652067726561746572207468616e2030000000006044820152606401610932565b612014600980546001019055565b600061201f60095490565b9050604051806101600160405280828152602001336001600160a01b031681526020018884815181106120545761205461495e565b602002602001015181526020018784815181106120735761207361495e565b602002602001015181526020018684815181106120925761209261495e565b6020026020010151815260200160001515815260200160006001600160a01b031681526020016000151581526020018584815181106120d3576120d361495e565b602002602001015181526020018484815181106120f2576120f261495e565b602090810291909101810151825242918101919091526000838152600a825260409081902083518155918301516001830180546001600160a01b0319166001600160a01b03928316179055908301516002830155606083015160038301556080830151600483015560a083015160058301805460c086015160e08701516001600160a81b0319909216931515610100600160a81b031916939093176101009390941683029390931760ff60a81b1916600160a81b931515939093029290921790915582015160068201906121c69082614870565b5061012082015160078201906121dc9082614870565b506101409190910151600890910155336000818152600c60209081526040808320805460018101825590845282842001859055928252600b9052908120600401805491612228836147c4565b90915550506000818152600e60205260409020805460ff191660011790556122503382613707565b600061225b82613892565b60405160200161226b9190614a4c565b60405160208183030381529060405290506122868282613925565b336001600160a01b0316827f5038550aad37175ea4217a214663c5f62ea4962e4ffd594300e66d7029641b598a86815181106122c4576122c461495e565b60200260200101518a87815181106122de576122de61495e565b60200260200101518a88815181106122f8576122f861495e565b60200260200101518a89815181106123125761231261495e565b602002602001015160405161232a9493929190614aa3565b60405180910390a35050808061233f906147c4565b915050611e37565b505050505050565b600b6020526000908152604090208054819061236a906146ef565b80601f0160208091040260200160405190810160405280929190818152602001828054612396906146ef565b80156123e35780601f106123b8576101008083540402835291602001916123e3565b820191906000526020600020905b8154815290600101906020018083116123c657829003601f168201915b5050505050908060010180546123f8906146ef565b80601f0160208091040260200160405190810160405280929190818152602001828054612424906146ef565b80156124715780601f1061244657610100808354040283529160200191612471565b820191906000526020600020905b81548152906001019060200180831161245457829003601f168201915b505050505090806002018054612486906146ef565b80601f01602080910402602001604051908101604052809291908181526020018280546124b2906146ef565b80156124ff5780601f106124d4576101008083540402835291602001916124ff565b820191906000526020600020905b8154815290600101906020018083116124e257829003601f168201915b505050505090806003018054612514906146ef565b80601f0160208091040260200160405190810160405280929190818152602001828054612540906146ef565b801561258d5780601f106125625761010080835404028352916020019161258d565b820191906000526020600020905b81548152906001019060200180831161257057829003601f168201915b505050600484015460058501546006860154600787015460089097015495969295919450925060ff1689565b6125c3338361352e565b6125df5760405162461bcd60e51b8152600401610932906147dd565b6125eb848484846139f0565b50505050565b336000908152600b602052604090206008015460ff1661264d5760405162461bcd60e51b8152602060048201526017602482015276139bdd0818481c9959da5cdd195c995908195e1c195c9d604a1b6044820152606401610932565b848442821161269e5760405162461bcd60e51b815260206004820152601c60248201527f53746172742074696d65206d75737420626520696e20667574757265000000006044820152606401610932565b8181116126bd5760405162461bcd60e51b815260040161093290614974565b6138406126ca838361476c565b11156126e85760405162461bcd60e51b8152600401610932906149b5565b6126f54262093a806149f8565b8211156127145760405162461bcd60e51b815260040161093290614a0b565b600085116127645760405162461bcd60e51b815260206004820152601c60248201527f5072696365206d7573742062652067726561746572207468616e2030000000006044820152606401610932565b612772600980546001019055565b600061277d60095490565b9050604051806101600160405280828152602001336001600160a01b0316815260200189815260200188815260200187815260200160001515815260200160006001600160a01b0316815260200160001515815260200186815260200185815260200142815250600a60008381526020019081526020016000206000820151816000015560208201518160010160006101000a8154816001600160a01b0302191690836001600160a01b0316021790555060408201518160020155606082015181600301556080820151816004015560a08201518160050160006101000a81548160ff02191690831515021790555060c08201518160050160016101000a8154816001600160a01b0302191690836001600160a01b0316021790555060e08201518160050160156101000a81548160ff0219169083151502179055506101008201518160060190816128cf9190614870565b5061012082015160078201906128e59082614870565b506101409190910151600890910155336000818152600c60209081526040808320805460018101825590845282842001859055928252600b9052908120600401805491612931836147c4565b90915550506000818152600e60205260409020805460ff191660011790556129593382613707565b600061296482613892565b6040516020016129749190614a4c565b604051602081830303815290604052905061298f8282613925565b336001600160a01b0316827f5038550aad37175ea4217a214663c5f62ea4962e4ffd594300e66d7029641b598b8b8b8b6040516129cf9493929190614aa3565b60405180910390a3505050505050505050565b6000828152600e602052604090205460ff16612a105760405162461bcd60e51b815260040161093290614729565b33612a1a836113be565b6001600160a01b031614612a705760405162461bcd60e51b815260206004820152601a60248201527f4e6f7420746865206f776e6572206f66207468697320736c6f740000000000006044820152606401610932565b6000828152600a602052604090206005015460ff16612ac35760405162461bcd60e51b815260206004820152600f60248201526e14db1bdd081b9bdd08189bdbdad959608a1b6044820152606401610932565b6000828152600a6020526040902060040154811115612b1c5760405162461bcd60e51b815260206004820152601560248201527443616e6e6f7420696e63726561736520707269636560581b6044820152606401610932565b6000828152600a6020526040902060020154612b3b906107089061476c565b4210612b995760405162461bcd60e51b815260206004820152602760248201527f43616e6e6f7420726573656c6c2077697468696e203330206d696e75746573206044820152661bd9881cdb1bdd60ca1b6064820152608401610932565b6000918252600a6020526040909120600481019190915560050180546001600160a81b0319169055565b60606107ff82613a23565b6000818152600e602052604090205460ff16612bfc5760405162461bcd60e51b815260040161093290614729565b6000818152600a602052604090206005015460ff16612c4f5760405162461bcd60e51b815260206004820152600f60248201526e14db1bdd081b9bdd08189bdbdad959608a1b6044820152606401610932565b6000818152600a6020526040902060020154421015610c0a5760405162461bcd60e51b815260206004820152601b60248201527f4170706f696e746d656e74206e6f7420737461727465642079657400000000006044820152606401610932565b600c6020528160005260406000208181548110612ccc57600080fd5b90600052602060002001600091509150505481565b600d6020528160005260406000208181548110612ccc57600080fd5b6001600160a01b03918216600090815260056020908152604080832093909416825291909152205460ff1690565b612d33613371565b6000818152600e602052604090205460ff16612d615760405162461bcd60e51b815260040161093290614729565b6000818152600a602052604090206005015460ff1615612db95760405162461bcd60e51b815260206004820152601360248201527214db1bdd08185b1c9958591e48189bdbdad959606a1b6044820152606401610932565b6000818152600a6020526040902060050154600160a81b900460ff1615612e1a5760405162461bcd60e51b815260206004820152601560248201527414db1bdd081a185cc81899595b881c995d9bdad959605a1b6044820152606401610932565b6000818152600a6020526040902060040154341015612e725760405162461bcd60e51b8152602060048201526014602482015273125b9cdd59999a58da595b9d081c185e5b595b9d60621b6044820152606401610932565b6000818152600a6020526040902060020154612e91906103849061476c565b4210612eaf5760405162461bcd60e51b81526004016109329061477f565b6000612eba826113be565b600f546000848152600a602052604081206004015492935091606491612edf91614ad2565b612ee99190614ae9565b6010546000858152600a602052604081206004015492935091606491612f0e91614ad2565b612f189190614ae9565b6000858152600a6020526040812060040154919250908290612f3b90859061476c565b612f45919061476c565b6000868152600a60209081526040808320600580820180543361010081026001600160a81b03199092169190911760019081179092558652600d855283862080548083018255908752858720018c905591909101546001600160a01b03168452600b909252822001805492935090612fbc836147c4565b90915550506011546040516001600160a01b039091169084156108fc029085906000818181858888f19350505050158015612ffb573d6000803e3d6000fd5b506000858152600a60205260408082206001015490516001600160a01b039091169184156108fc02918591818181858888f19350505050158015613043573d6000803e3d6000fd5b506040516001600160a01b0385169082156108fc029083906000818181858888f1935050505015801561307a573d6000803e3d6000fd5b506130868433876133ca565b336001600160a01b0316846001600160a01b0316867f68211e9414aefb2c73a3ab8647d8363fab968af2b8a6795b4ea4aea2675e0759600a60008a8152602001908152602001600020600401546040516130e291815260200190565b60405180910390a450505050610c0a6001600855565b6001600160a01b0381166000908152600d602090815260409182902080548351818402810184019094528084526060939283018282801561151857602002820191906000526020600020908154815260200190600101908083116115045750505050509050919050565b61316a61358d565b6001600160a01b0381166131cf5760405162461bcd60e51b815260206004820152602660248201527f4f776e61626c653a206e6577206f776e657220697320746865207a65726f206160448201526564647265737360d01b6064820152608401610932565b610c0a816135e7565b6131e181610c0d565b61322d5760405162461bcd60e51b815260206004820152601c60248201527f4e6f7420656c696769626c6520666f72206175746f2d7265766f6b65000000006044820152606401610932565b6000818152600a602052604080822060058101805460ff60a81b1916600160a81b1790559051909183917f98f6352fdccebadb71e5f46edfec4b893d02ccc29c2f690c8e856d22189a599c9190a25050565b60006001600160e01b03198216632483248360e11b14806107ff57506107ff82613b2b565b6000818152600260205260409020546001600160a01b0316610c0a5760405162461bcd60e51b8152602060048201526018602482015277115490cdcc8c4e881a5b9d985b1a59081d1bdad95b88125160421b6044820152606401610932565b600081815260046020526040902080546001600160a01b0319166001600160a01b0384169081179091558190613338826113be565b6001600160a01b03167f8c5be1e5ebec7d5bd14f71427d1e84f3dd0314c0f7b2291e5b200ac8c7c3b92560405160405180910390a45050565b6002600854036133c35760405162461bcd60e51b815260206004820152601f60248201527f5265656e7472616e637947756172643a207265656e7472616e742063616c6c006044820152606401610932565b6002600855565b826001600160a01b03166133dd826113be565b6001600160a01b0316146134035760405162461bcd60e51b815260040161093290614b0b565b6001600160a01b0382166134655760405162461bcd60e51b8152602060048201526024808201527f4552433732313a207472616e7366657220746f20746865207a65726f206164646044820152637265737360e01b6064820152608401610932565b826001600160a01b0316613478826113be565b6001600160a01b03161461349e5760405162461bcd60e51b815260040161093290614b0b565b600081815260046020908152604080832080546001600160a01b03199081169091556001600160a01b0387811680865260038552838620805460001901905590871680865283862080546001019055868652600290945282852080549092168417909155905184937fddf252ad1be2c89b69c2b068fc378daa952ba7f163c4a11628f55a4df523b3ef91a4505050565b60008061353a836113be565b9050806001600160a01b0316846001600160a01b0316148061356157506135618185612cfd565b806135855750836001600160a01b031661357a84610897565b6001600160a01b0316145b949350505050565b6007546001600160a01b031633146114b65760405162461bcd60e51b815260206004820181905260248201527f4f776e61626c653a2063616c6c6572206973206e6f7420746865206f776e65726044820152606401610932565b600780546001600160a01b038381166001600160a01b0319831681179093556040519116919082907f8be0079c531659141344cd1fd0a4f28419497f9722a3daafe3b4186f6b6457e090600090a35050565b816001600160a01b0316836001600160a01b03160361369a5760405162461bcd60e51b815260206004820152601960248201527f4552433732313a20617070726f766520746f2063616c6c6572000000000000006044820152606401610932565b6001600160a01b03838116600081815260056020908152604080832094871680845294825291829020805460ff191686151590811790915591519182527f17307eab39ab6107e8899845ad3d59bd9653f200f220920489ca2b5937696c31910160405180910390a3505050565b6001600160a01b03821661375d5760405162461bcd60e51b815260206004820181905260248201527f4552433732313a206d696e7420746f20746865207a65726f20616464726573736044820152606401610932565b6000818152600260205260409020546001600160a01b0316156137c25760405162461bcd60e51b815260206004820152601c60248201527f4552433732313a20746f6b656e20616c7265616479206d696e746564000000006044820152606401610932565b6000818152600260205260409020546001600160a01b0316156138275760405162461bcd60e51b815260206004820152601c60248201527f4552433732313a20746f6b656e20616c7265616479206d696e746564000000006044820152606401610932565b6001600160a01b038216600081815260036020908152604080832080546001019055848352600290915280822080546001600160a01b0319168417905551839291907fddf252ad1be2c89b69c2b068fc378daa952ba7f163c4a11628f55a4df523b3ef908290a45050565b6060600061389f83613b7b565b600101905060008167ffffffffffffffff8111156138bf576138bf614178565b6040519080825280601f01601f1916602001820160405280156138e9576020820181803683370190505b5090508181016020015b600019016f181899199a1a9b1b9c1cb0b131b232b360811b600a86061a8153600a85049450846138f357509392505050565b6000828152600260205260409020546001600160a01b03166139a05760405162461bcd60e51b815260206004820152602e60248201527f45524337323155524953746f726167653a2055524920736574206f66206e6f6e60448201526d32bc34b9ba32b73a103a37b5b2b760911b6064820152608401610932565b60008281526006602052604090206139b88282614870565b506040518281527ff8e1a15aba9398e019f0b49df1a4fde98ee17ae345cb5f6b5e2c27f5033e8ce79060200160405180910390a15050565b6139fb8484846133ca565b613a0784848484613c53565b6125eb5760405162461bcd60e51b815260040161093290614b50565b6060613a2e826132a4565b60008281526006602052604081208054613a47906146ef565b80601f0160208091040260200160405190810160405280929190818152602001828054613a73906146ef565b8015613ac05780601f10613a9557610100808354040283529160200191613ac0565b820191906000526020600020905b815481529060010190602001808311613aa357829003601f168201915b505050505090506000613ade60408051602081019091526000815290565b90508051600003613af0575092915050565b815115613b22578082604051602001613b0a929190614ba2565b60405160208183030381529060405292505050919050565b61358584613d54565b60006001600160e01b031982166380ac58cd60e01b1480613b5c57506001600160e01b03198216635b5e139f60e01b145b806107ff57506301ffc9a760e01b6001600160e01b03198316146107ff565b60008072184f03e93ff9f4daa797ed6e38ed64bf6a1f0160401b8310613bba5772184f03e93ff9f4daa797ed6e38ed64bf6a1f0160401b830492506040015b6d04ee2d6d415b85acef81000000008310613be6576d04ee2d6d415b85acef8100000000830492506020015b662386f26fc100008310613c0457662386f26fc10000830492506010015b6305f5e1008310613c1c576305f5e100830492506008015b6127108310613c3057612710830492506004015b60648310613c42576064830492506002015b600a83106107ff5760010192915050565b60006001600160a01b0384163b15613d4957604051630a85bd0160e11b81526001600160a01b0385169063150b7a0290613c97903390899088908890600401614bd1565b6020604051808303816000875af1925050508015613cd2575060408051601f3d908101601f19168201909252613ccf91810190614c04565b60015b613d2f573d808015613d00576040519150601f19603f3d011682016040523d82523d6000602084013e613d05565b606091505b508051600003613d275760405162461bcd60e51b815260040161093290614b50565b805181602001fd5b6001600160e01b031916630a85bd0160e11b149050613585565b506001949350505050565b6060613d5f826132a4565b6000613d7660408051602081019091526000815290565b90506000815111613d965760405180602001604052806000815250613dc1565b80613da084613892565b604051602001613db1929190614ba2565b6040516020818303038152906040525b9392505050565b6001600160e01b031981168114610c0a57600080fd5b600060208284031215613df057600080fd5b8135613dc181613dc8565b60005b83811015613e16578181015183820152602001613dfe565b50506000910152565b60008151808452613e37816020860160208601613dfb565b601f01601f19169290920160200192915050565b602081526000613dc16020830184613e1f565b600060208284031215613e7057600080fd5b5035919050565b80356001600160a01b0381168114613e8e57600080fd5b919050565b60008060408385031215613ea657600080fd5b613eaf83613e77565b946020939093013593505050565b600080600060608486031215613ed257600080fd5b613edb84613e77565b9250613ee960208501613e77565b9150604084013590509250925092565b602081528151602082015260006020830151613f2060408401826001600160a01b03169052565b506040830151606083015260608301516080830152608083015160a083015260a0830151613f5260c084018215159052565b5060c08301516001600160a01b03811660e08401525060e0830151610100613f7d8185018315159052565b808501519150506101606101208181860152613f9d610180860184613e1f565b9250808601519050610140601f198685030181870152613fbd8483613e1f565b9601519190940152509192915050565b600060208284031215613fdf57600080fd5b613dc182613e77565b6020808252825182820181905260009190848201906040850190845b8181101561402057835183529284019291840191600101614004565b50909695505050505050565b602081526000825161012080602085015261404b610140850183613e1f565b91506020850151601f19808685030160408701526140698483613e1f565b935060408701519150808685030160608701526140868483613e1f565b93506060870151915080868503016080870152506140a48382613e1f565b925050608085015160a085015260a085015160c085015260c085015160e085015260e08501516101008181870152808701519150506140e68286018215159052565b5090949350505050565b8b81526001600160a01b038b81166020830152604082018b9052606082018a90526080820189905287151560a0830152861660c082015284151560e0820152610160610100820181905260009061414983820187613e1f565b905082810361012084015261415e8186613e1f565b915050826101408301529c9b505050505050505050505050565b634e487b7160e01b600052604160045260246000fd5b604051601f8201601f1916810167ffffffffffffffff811182821017156141b7576141b7614178565b604052919050565b600067ffffffffffffffff8311156141d9576141d9614178565b6141ec601f8401601f191660200161418e565b905082815283838301111561420057600080fd5b828260208301376000602084830101529392505050565b600082601f83011261422857600080fd5b613dc1838335602085016141bf565b6000806000806080858703121561424d57600080fd5b843567ffffffffffffffff8082111561426557600080fd5b61427188838901614217565b9550602087013591508082111561428757600080fd5b61429388838901614217565b945060408701359150808211156142a957600080fd5b6142b588838901614217565b935060608701359150808211156142cb57600080fd5b506142d887828801614217565b91505092959194509250565b600080604083850312156142f757600080fd5b61430083613e77565b91506020830135801515811461431557600080fd5b809150509250929050565b600067ffffffffffffffff82111561433a5761433a614178565b5060051b60200190565b600082601f83011261435557600080fd5b8135602061436a61436583614320565b61418e565b82815260059290921b8401810191818101908684111561438957600080fd5b8286015b848110156143a4578035835291830191830161438d565b509695505050505050565b6000602082840312156143c157600080fd5b813567ffffffffffffffff8111156143d857600080fd5b61358584828501614344565b600082601f8301126143f557600080fd5b8135602061440561436583614320565b82815260059290921b8401810191818101908684111561442457600080fd5b8286015b848110156143a457803567ffffffffffffffff8111156144485760008081fd5b6144568986838b0101614217565b845250918301918301614428565b600080600080600060a0868803121561447c57600080fd5b853567ffffffffffffffff8082111561449457600080fd5b6144a089838a01614344565b965060208801359150808211156144b657600080fd5b6144c289838a01614344565b955060408801359150808211156144d857600080fd5b6144e489838a01614344565b945060608801359150808211156144fa57600080fd5b61450689838a016143e4565b9350608088013591508082111561451c57600080fd5b50614529888289016143e4565b9150509295509295909350565b600061012080835261454a8184018d613e1f565b9050828103602084015261455e818c613e1f565b90508281036040840152614572818b613e1f565b90508281036060840152614586818a613e1f565b6080840198909852505060a081019490945260c084019290925260e0830152151561010090910152949350505050565b600080600080608085870312156145cc57600080fd5b6145d585613e77565b93506145e360208601613e77565b925060408501359150606085013567ffffffffffffffff81111561460657600080fd5b8501601f8101871361461757600080fd5b6142d8878235602084016141bf565b600080600080600060a0868803121561463e57600080fd5b853594506020860135935060408601359250606086013567ffffffffffffffff8082111561466b57600080fd5b61467789838a01614217565b9350608088013591508082111561468d57600080fd5b5061452988828901614217565b600080604083850312156146ad57600080fd5b50508035926020909101359150565b600080604083850312156146cf57600080fd5b6146d883613e77565b91506146e660208401613e77565b90509250929050565b600181811c9082168061470357607f821691505b60208210810361472357634e487b7160e01b600052602260045260246000fd5b50919050565b60208082526013908201527214db1bdd08191bd95cc81b9bdd08195e1a5cdd606a1b604082015260600190565b634e487b7160e01b600052601160045260246000fd5b818103818111156107ff576107ff614756565b60208082526025908201527f43616e6e6f7420626f6f6b2077697468696e203135206d696e75746573206f66604082015264081cdb1bdd60da1b606082015260800190565b6000600182016147d6576147d6614756565b5060010190565b6020808252602d908201527f4552433732313a2063616c6c6572206973206e6f7420746f6b656e206f776e6560408201526c1c881bdc88185c1c1c9bdd9959609a1b606082015260800190565b601f8211156109d357600081815260208120601f850160051c810160208610156148515750805b601f850160051c820191505b818110156123475782815560010161485d565b815167ffffffffffffffff81111561488a5761488a614178565b61489e8161489884546146ef565b8461482a565b602080601f8311600181146148d357600084156148bb5750858301515b600019600386901b1c1916600185901b178555612347565b600085815260208120601f198616915b82811015614902578886015182559484019460019091019084016148e3565b50858210156149205787850151600019600388901b60f8161c191681555b5050505050600190811b01905550565b6040815260006149436040830185613e1f565b82810360208401526149558185613e1f565b95945050505050565b634e487b7160e01b600052603260045260246000fd5b60208082526021908201527f456e642074696d65206d7573742062652061667465722073746172742074696d6040820152606560f81b606082015260800190565b60208082526023908201527f536c6f74206475726174696f6e2063616e6e6f7420657863656564203420686f60408201526275727360e81b606082015260800190565b808201808211156107ff576107ff614756565b60208082526021908201527f43616e6e6f742063726561746520736c6f7473206265796f6e642037206461796040820152607360f81b606082015260800190565b7f68747470733a2f2f6170692e6c656467657273656e74696e656c732e636f6d2f8152686d657461646174612f60b81b602082015260008251614a96816029850160208701613dfb565b9190910160290192915050565b848152836020820152826040820152608060608201526000614ac86080830184613e1f565b9695505050505050565b80820281158282048414176107ff576107ff614756565b600082614b0657634e487b7160e01b600052601260045260246000fd5b500490565b60208082526025908201527f4552433732313a207472616e736665722066726f6d20696e636f72726563742060408201526437bbb732b960d91b606082015260800190565b60208082526032908201527f4552433732313a207472616e7366657220746f206e6f6e20455243373231526560408201527131b2b4bb32b91034b6b83632b6b2b73a32b960711b606082015260800190565b60008351614bb4818460208801613dfb565b835190830190614bc8818360208801613dfb565b01949350505050565b6001600160a01b0385811682528416602082015260408101839052608060608201819052600090614ac890830184613e1f565b600060208284031215614c1657600080fd5b8151613dc181613dc856fea264697066735822122008655d024402727c8573b9338cc203839c4a5a504c19f4555f343fa422914bcd64736f6c63430008130033",
  "linkReferences": {},
  "deployedLinkReferences": {}
}