{
  "_format": "hh-sol-artifact-1",
  "contractName": "TimeSlotMarketplace",
  "sourceName": "contracts/TimeSlotMarketplace.sol",
  "abi": [
    {
      "inputs": [
        {
          "internalType": "address",
          "name": "_timeSlotNFT",
          "type": "address"
        },
        {
          "internalType": "address",
          "name": "_feeRecipient",
          "type": "address"
        }
      ],
      "stateMutability": "nonpayable",
      "type": "constructor"
    },
    {
      "anonymous": false,
      "inputs": [
        {
          "indexed": true,
          "internalType": "uint256",
          "name": "tokenId",
          "type": "uint256"
        },
        {
          "indexed": true,
          "internalType": "address",
          "name": "winner",
          "type": "address"
        },
        {
          "indexed": false,
          "internalType": "uint256",
          "name": "winningBid",
          "type": "uint256"
        }
      ],
      "name": "AuctionEnded",
      "type": "event"
    },
    {
      "anonymous": false,
      "inputs": [
        {
          "indexed": true,
          "internalType": "uint256",
          "name": "tokenId",
          "type": "uint256"
        },
        {
          "indexed": true,
          "internalType": "address",
          "name": "bidder",
          "type": "address"
        },
        {
          "indexed": false,
          "internalType": "uint256",
          "name": "amount",
          "type": "uint256"
        }
      ],
      "name": "BidPlaced",
      "type": "event"
    },
    {
      "anonymous": false,
      "inputs": [
        {
          "indexed": true,
          "internalType": "uint256",
          "name": "tokenId",
          "type": "uint256"
        },
        {
          "indexed": true,
          "internalType": "address",
          "name": "seller",
          "type": "address"
        }
      ],
      "name": "ItemDelisted",
      "type": "event"
    },
    {
      "anonymous": false,
      "inputs": [
        {
          "indexed": true,
          "internalType": "uint256",
          "name": "tokenId",
          "type": "uint256"
        },
        {
          "indexed": true,
          "internalType": "address",
          "name": "seller",
          "type": "address"
        },
        {
          "indexed": false,
          "internalType": "uint256",
          "name": "price",
          "type": "uint256"
        },
        {
          "indexed": false,
          "internalType": "bool",
          "name": "isAuction",
          "type": "bool"
        },
        {
          "indexed": false,
          "internalType": "uint256",
          "name": "auctionEndTime",
          "type": "uint256"
        }
      ],
      "name": "ItemListed",
      "type": "event"
    },
    {
      "anonymous": false,
      "inputs": [
        {
          "indexed": true,
          "internalType": "uint256",
          "name": "tokenId",
          "type": "uint256"
        },
        {
          "indexed": true,
          "internalType": "address",
          "name": "seller",
          "type": "address"
        },
        {
          "indexed": true,
          "internalType": "address",
          "name": "buyer",
          "type": "address"
        },
        {
          "indexed": false,
          "internalType": "uint256",
          "name": "price",
          "type": "uint256"
        }
      ],
      "name": "ItemSold",
      "type": "event"
    },
    {
      "anonymous": false,
      "inputs": [
        {
          "indexed": true,
          "internalType": "address",
          "name": "previousOwner",
          "type": "address"
        },
        {
          "indexed": true,
          "internalType": "address",
          "name": "newOwner",
          "type": "address"
        }
      ],
      "name": "OwnershipTransferred",
      "type": "event"
    },
    {
      "inputs": [
        {
          "internalType": "uint256",
          "name": "",
          "type": "uint256"
        },
        {
          "internalType": "uint256",
          "name": "",
          "type": "uint256"
        }
      ],
      "name": "auctionBids",
      "outputs": [
        {
          "internalType": "address",
          "name": "bidder",
          "type": "address"
        },
        {
          "internalType": "uint256",
          "name": "amount",
          "type": "uint256"
        },
        {
          "internalType": "uint256",
          "name": "timestamp",
          "type": "uint256"
        }
      ],
      "stateMutability": "view",
      "type": "function"
    },
    {
      "inputs": [
        {
          "internalType": "uint256",
          "name": "_tokenId",
          "type": "uint256"
        }
      ],
      "name": "buyItem",
      "outputs": [],
      "stateMutability": "payable",
      "type": "function"
    },
    {
      "inputs": [
        {
          "internalType": "uint256",
          "name": "_tokenId",
          "type": "uint256"
        }
      ],
      "name": "delistItem",
      "outputs": [],
      "stateMutability": "nonpayable",
      "type": "function"
    },
    {
      "inputs": [],
      "name": "emergencyWithdraw",
      "outputs": [],
      "stateMutability": "nonpayable",
      "type": "function"
    },
    {
      "inputs": [
        {
          "internalType": "uint256",
          "name": "_tokenId",
          "type": "uint256"
        }
      ],
      "name": "endAuction",
      "outputs": [],
      "stateMutability": "nonpayable",
      "type": "function"
    },
    {
      "inputs": [],
      "name": "feeRecipient",
      "outputs": [
        {
          "internalType": "address",
          "name": "",
          "type": "address"
        }
      ],
      "stateMutability": "view",
      "type": "function"
    },
    {
      "inputs": [
        {
          "internalType": "uint256",
          "name": "_tokenId",
          "type": "uint256"
        }
      ],
      "name": "getAuctionBids",
      "outputs": [
        {
          "components": [
            {
              "internalType": "address",
              "name": "bidder",
              "type": "address"
            },
            {
              "internalType": "uint256",
              "name": "amount",
              "type": "uint256"
            },
            {
              "internalType": "uint256",
              "name": "timestamp",
              "type": "uint256"
            }
          ],
          "internalType": "struct TimeSlotMarketplace.Bid[]",
          "name": "",
          "type": "tuple[]"
        }
      ],
      "stateMutability": "view",
      "type": "function"
    },
    {
      "inputs": [
        {
          "internalType": "uint256",
          "name": "_tokenId",
          "type": "uint256"
        }
      ],
      "name": "getListing",
      "outputs": [
        {
          "components": [
            {
              "internalType": "uint256",
              "name": "tokenId",
              "type": "uint256"
            },
            {
              "internalType": "address",
              "name": "seller",
              "type": "address"
            },
            {
              "internalType": "uint256",
              "name": "price",
              "type": "uint256"
            },
            {
              "internalType": "bool",
              "name": "isActive",
              "type": "bool"
            },
            {
              "internalType": "uint256",
              "name": "listingTime",
              "type": "uint256"
            },
            {
              "internalType": "bool",
              "name": "isAuction",
              "type": "bool"
            },
            {
              "internalType": "uint256",
              "name": "auctionEndTime",
              "type": "uint256"
            },
            {
              "internalType": "uint256",
              "name": "highestBid",
              "type": "uint256"
            },
            {
              "internalType": "address",
              "name": "highestBidder",
              "type": "address"
            }
          ],
          "internalType": "struct TimeSlotMarketplace.Listing",
          "name": "",
          "type": "tuple"
        }
      ],
      "stateMutability": "view",
      "type": "function"
    },
    {
      "inputs": [
        {
          "internalType": "address",
          "name": "_user",
          "type": "address"
        }
      ],
      "name": "getUserBids",
      "outputs": [
        {
          "internalType": "uint256[]",
          "name": "",
          "type": "uint256[]"
        }
      ],
      "stateMutability": "view",
      "type": "function"
    },
    {
      "inputs": [
        {
          "internalType": "address",
          "name": "_user",
          "type": "address"
        }
      ],
      "name": "getUserListings",
      "outputs": [
        {
          "internalType": "uint256[]",
          "name": "",
          "type": "uint256[]"
        }
      ],
      "stateMutability": "view",
      "type": "function"
    },
    {
      "inputs": [
        {
          "internalType": "uint256",
          "name": "_tokenId",
          "type": "uint256"
        },
        {
          "internalType": "uint256",
          "name": "_price",
          "type": "uint256"
        }
      ],
      "name": "listItem",
      "outputs": [],
      "stateMutability": "nonpayable",
      "type": "function"
    },
    {
      "inputs": [
        {
          "internalType": "uint256",
          "name": "_tokenId",
          "type": "uint256"
        },
        {
          "internalType": "uint256",
          "name": "_startingPrice",
          "type": "uint256"
        },
        {
          "internalType": "uint256",
          "name": "_auctionDuration",
          "type": "uint256"
        }
      ],
      "name": "listItemForAuction",
      "outputs": [],
      "stateMutability": "nonpayable",
      "type": "function"
    },
    {
      "inputs": [
        {
          "internalType": "uint256",
          "name": "",
          "type": "uint256"
        }
      ],
      "name": "listings",
      "outputs": [
        {
          "internalType": "uint256",
          "name": "tokenId",
          "type": "uint256"
        },
        {
          "internalType": "address",
          "name": "seller",
          "type": "address"
        },
        {
          "internalType": "uint256",
          "name": "price",
          "type": "uint256"
        },
        {
          "internalType": "bool",
          "name": "isActive",
          "type": "bool"
        },
        {
          "internalType": "uint256",
          "name": "listingTime",
          "type": "uint256"
        },
        {
          "internalType": "bool",
          "name": "isAuction",
          "type": "bool"
        },
        {
          "internalType": "uint256",
          "name": "auctionEndTime",
          "type": "uint256"
        },
        {
          "internalType": "uint256",
          "name": "highestBid",
          "type": "uint256"
        },
        {
          "internalType": "address",
          "name": "highestBidder",
          "type": "address"
        }
      ],
      "stateMutability": "view",
      "type": "function"
    },
    {
      "inputs": [],
      "name": "marketplaceFeePercent",
      "outputs": [
        {
          "internalType": "uint256",
          "name": "",
          "type": "uint256"
        }
      ],
      "stateMutability": "view",
      "type": "function"
    },
    {
      "inputs": [
        {
          "internalType": "address",
          "name": "",
          "type": "address"
        },
        {
          "internalType": "address",
          "name": "",
          "type": "address"
        },
        {
          "internalType": "uint256",
          "name": "",
          "type": "uint256"
        },
        {
          "internalType": "bytes",
          "name": "",
          "type": "bytes"
        }
      ],
      "name": "onERC721Received",
      "outputs": [
        {
          "internalType": "bytes4",
          "name": "",
          "type": "bytes4"
        }
      ],
      "stateMutability": "pure",
      "type": "function"
    },
    {
      "inputs": [],
      "name": "owner",
      "outputs": [
        {
          "internalType": "address",
          "name": "",
          "type": "address"
        }
      ],
      "stateMutability": "view",
      "type": "function"
    },
    {
      "inputs": [
        {
          "internalType": "uint256",
          "name": "_tokenId",
          "type": "uint256"
        }
      ],
      "name": "placeBid",
      "outputs": [],
      "stateMutability": "payable",
      "type": "function"
    },
    {
      "inputs": [],
      "name": "renounceOwnership",
      "outputs": [],
      "stateMutability": "nonpayable",
      "type": "function"
    },
    {
      "inputs": [],
      "name": "timeSlotNFT",
      "outputs": [
        {
          "internalType": "contract TimeSlotNFT",
          "name": "",
          "type": "address"
        }
      ],
      "stateMutability": "view",
      "type": "function"
    },
    {
      "inputs": [
        {
          "internalType": "address",
          "name": "newOwner",
          "type": "address"
        }
      ],
      "name": "transferOwnership",
      "outputs": [],
      "stateMutability": "nonpayable",
      "type": "function"
    },
    {
      "inputs": [
        {
          "internalType": "address",
          "name": "_newFeeRecipient",
          "type": "address"
        }
      ],
      "name": "updateFeeRecipient",
      "outputs": [],
      "stateMutability": "nonpayable",
      "type": "function"
    },
    {
      "inputs": [
        {
          "internalType": "uint256",
          "name": "_newFeePercent",
          "type": "uint256"
        }
      ],
      "name": "updateMarketplaceFee",
      "outputs": [],
      "stateMutability": "nonpayable",
      "type": "function"
    },
    {
      "inputs": [
        {
          "internalType": "address",
          "name": "",
          "type": "address"
        },
        {
          "internalType": "uint256",
          "name": "",
          "type": "uint256"
        }
      ],
      "name": "userBids",
      "outputs": [
        {
          "internalType": "uint256",
          "name": "",
          "type": "uint256"
        }
      ],
      "stateMutability": "view",
      "type": "function"
    },
    {
      "inputs": [
        {
          "internalType": "address",
          "name": "",
          "type": "address"
        },
        {
          "internalType": "uint256",
          "name": "",
          "type": "uint256"
        }
      ],
      "name": "userListings",
      "outputs": [
        {
          "internalType": "uint256",
          "name": "",
          "type": "uint256"
        }
      ],
      "stateMutability": "view",
      "type": "function"
    }
  ],
  "bytecode": "0x608060405260026007553480156200001657600080fd5b50604051620024d3380380620024d38339810160408190526200003991620000ea565b600160005562000049336200007b565b600280546001600160a01b039384166001600160a01b0319918216179091556008805492909316911617905562000122565b600180546001600160a01b038381166001600160a01b0319831681179093556040519116919082907f8be0079c531659141344cd1fd0a4f28419497f9722a3daafe3b4186f6b6457e090600090a35050565b80516001600160a01b0381168114620000e557600080fd5b919050565b60008060408385031215620000fe57600080fd5b6200010983620000cd565b91506200011960208401620000cd565b90509250929050565b6123a180620001326000396000f3fe60806040526004361061014b5760003560e01c8063883efa67116100b6578063db2e21bc1161006f578063db2e21bc1461040e578063de74e57b14610423578063e7fb74c7146104eb578063eb18a9d8146104fe578063f160d3691461051e578063f2fde38b1461053e57600080fd5b8063883efa671461035d5780638da5cb5b1461037d57806396ec50c31461039b5780639979ef45146103bb578063b2a4401b146103ce578063b9a2de3a146103ee57600080fd5b80635f93de49116101085780635f93de49146102695780636759789f146102ae57806370b4768e146102db578063715018a6146103085780637309d7791461031d57806386cfa7d31461033d57600080fd5b80631006163114610150578063107a274a14610172578063150b7a02146101a857806330eb80cd146101ed57806338d73b0d1461020d5780634690484014610231575b600080fd5b34801561015c57600080fd5b5061017061016b366004611d7d565b61055e565b005b34801561017e57600080fd5b5061019261018d366004611d7d565b61077a565b60405161019f9190611d96565b60405180910390f35b3480156101b457600080fd5b506101d46101c3366004611e33565b630a85bd0160e11b95945050505050565b6040516001600160e01b0319909116815260200161019f565b3480156101f957600080fd5b50610170610208366004611d7d565b61086d565b34801561021957600080fd5b5061022360075481565b60405190815260200161019f565b34801561023d57600080fd5b50600854610251906001600160a01b031681565b6040516001600160a01b03909116815260200161019f565b34801561027557600080fd5b50610289610284366004611ed2565b6108c2565b604080516001600160a01b03909416845260208401929092529082015260600161019f565b3480156102ba57600080fd5b506102ce6102c9366004611ef4565b61090e565b60405161019f9190611f18565b3480156102e757600080fd5b506102fb6102f6366004611d7d565b61097a565b60405161019f9190611f5c565b34801561031457600080fd5b50610170610a0f565b34801561032957600080fd5b50610170610338366004611fbe565b610a23565b34801561034957600080fd5b50610223610358366004611fea565b610e83565b34801561036957600080fd5b50610170610378366004611ed2565b610eb4565b34801561038957600080fd5b506001546001600160a01b0316610251565b3480156103a757600080fd5b506102236103b6366004611fea565b611295565b6101706103c9366004611d7d565b6112b1565b3480156103da57600080fd5b50600254610251906001600160a01b031681565b3480156103fa57600080fd5b50610170610409366004611d7d565b61155b565b34801561041a57600080fd5b50610170611778565b34801561042f57600080fd5b5061049d61043e366004611d7d565b600360208190526000918252604090912080546001820154600283015493830154600484015460058501546006860154600787015460089097015495976001600160a01b0395861697909660ff95861696949590931693919290911689565b60408051998a526001600160a01b0398891660208b015289019690965293151560608801526080870192909252151560a086015260c085015260e0840152166101008201526101200161019f565b6101706104f9366004611d7d565b6117b9565b34801561050a57600080fd5b506102ce610519366004611ef4565b611968565b34801561052a57600080fd5b50610170610539366004611ef4565b6119d2565b34801561054a57600080fd5b50610170610559366004611ef4565b611a44565b60008181526003602081905260409091200154819060ff1661059b5760405162461bcd60e51b815260040161059290612016565b60405180910390fd5b600082815260036020526040902060018101546001600160a01b031633146105f65760405162461bcd60e51b815260206004820152600e60248201526d2737ba103a34329039b2b63632b960911b6044820152606401610592565b600581015460ff16158061060d5750806006015442105b6106595760405162461bcd60e51b815260206004820152601b60248201527f43616e6e6f742064656c69737420656e6465642061756374696f6e00000000006044820152606401610592565b600581015460ff168015610679575060088101546001600160a01b031615155b156106c057600881015460078201546040516001600160a01b039092169181156108fc0291906000818181858888f193505050501580156106be573d6000803e3d6000fd5b505b60038101805460ff191690556002546001820154604051632142170760e11b81526001600160a01b03928316926342842e0e92610707923092909116908890600401612046565b600060405180830381600087803b15801561072157600080fd5b505af1158015610735573d6000803e3d6000fd5b50505060018201546040516001600160a01b03909116915084907fcd69f8512d5dbb6c8101e48b86eee5edf783a51bc5e597bc5c832971e40fc91390600090a3505050565b6107df6040518061012001604052806000815260200160006001600160a01b031681526020016000815260200160001515815260200160008152602001600015158152602001600081526020016000815260200160006001600160a01b031681525090565b506000908152600360208181526040928390208351610120810185528154815260018201546001600160a01b03908116938201939093526002820154948101949094529182015460ff9081161515606085015260048301546080850152600583015416151560a0840152600682015460c0840152600782015460e08401526008909101541661010082015290565b610875611aba565b60058111156108bd5760405162461bcd60e51b81526020600482015260146024820152734665652063616e6e6f742065786365656420352560601b6044820152606401610592565b600755565b600460205281600052604060002081815481106108de57600080fd5b60009182526020909120600390910201805460018201546002909201546001600160a01b03909116935090915083565b6001600160a01b03811660009081526006602090815260409182902080548351818402810184019094528084526060939283018282801561096e57602002820191906000526020600020905b81548152602001906001019080831161095a575b50505050509050919050565b606060046000838152602001908152602001600020805480602002602001604051908101604052809291908181526020016000905b82821015610a04576000848152602090819020604080516060810182526003860290920180546001600160a01b03168352600180820154848601526002909101549183019190915290835290920191016109af565b505050509050919050565b610a17611aba565b610a216000611b14565b565b6002546040516331a9108f60e11b815260048101859052849133916001600160a01b0390911690636352211e90602401602060405180830381865afa158015610a70573d6000803e3d6000fd5b505050506040513d601f19601f82011682018060405250810190610a94919061207a565b6001600160a01b031614610adc5760405162461bcd60e51b815260206004820152600f60248201526e2737ba103a37b5b2b71037bbb732b960891b6044820152606401610592565b60008311610b3a5760405162461bcd60e51b815260206004820152602560248201527f5374617274696e67207072696365206d75737420626520677265617465722074604482015264068616e20360dc1b6064820152608401610592565b610e108210158015610b4f575062093a808211155b610b9b5760405162461bcd60e51b815260206004820152601860248201527f496e76616c69642061756374696f6e206475726174696f6e00000000000000006044820152606401610592565b6000848152600360208190526040909120015460ff1615610bef5760405162461bcd60e51b815260206004820152600e60248201526d105b1c9958591e481b1a5cdd195960921b6044820152606401610592565b600080610bfb86611b66565b9150915081158015610c0b575080155b610c275760405162461bcd60e51b815260040161059290612097565b6000610c3385426120ef565b9050604051806101200160405280888152602001336001600160a01b031681526020018781526020016001151581526020014281526020016001151581526020018281526020016000815260200160006001600160a01b0316815250600360008981526020019081526020016000206000820151816000015560208201518160010160006101000a8154816001600160a01b0302191690836001600160a01b031602179055506040820151816002015560608201518160030160006101000a81548160ff0219169083151502179055506080820151816004015560a08201518160050160006101000a81548160ff02191690831515021790555060c0820151816006015560e082015181600701556101008201518160080160006101000a8154816001600160a01b0302191690836001600160a01b0316021790555090505060056000336001600160a01b03166001600160a01b03168152602001908152602001600020879080600181540180825580915050600190039060005260206000200160009091909190915055600260009054906101000a90046001600160a01b03166001600160a01b03166342842e0e33308a6040518463ffffffff1660e01b8152600401610e0393929190612046565b600060405180830381600087803b158015610e1d57600080fd5b505af1158015610e31573d6000803e3d6000fd5b505060408051898152600160208201529081018490523392508991507fe6ab21b2a83da025cd3cf0447b97c61c4fba73debef8290fd378364c9110e0809060600160405180910390a350505050505050565b60056020528160005260406000208181548110610e9f57600080fd5b90600052602060002001600091509150505481565b6002546040516331a9108f60e11b815260048101849052839133916001600160a01b0390911690636352211e90602401602060405180830381865afa158015610f01573d6000803e3d6000fd5b505050506040513d601f19601f82011682018060405250810190610f25919061207a565b6001600160a01b031614610f6d5760405162461bcd60e51b815260206004820152600f60248201526e2737ba103a37b5b2b71037bbb732b960891b6044820152606401610592565b60008211610fbd5760405162461bcd60e51b815260206004820152601c60248201527f5072696365206d7573742062652067726561746572207468616e2030000000006044820152606401610592565b6000838152600360208190526040909120015460ff16156110115760405162461bcd60e51b815260206004820152600e60248201526d105b1c9958591e481b1a5cdd195960921b6044820152606401610592565b60008061101d85611b66565b915091508115801561102d575080155b6110495760405162461bcd60e51b815260040161059290612097565b604051806101200160405280868152602001336001600160a01b03168152602001858152602001600115158152602001428152602001600015158152602001600081526020016000815260200160006001600160a01b0316815250600360008781526020019081526020016000206000820151816000015560208201518160010160006101000a8154816001600160a01b0302191690836001600160a01b031602179055506040820151816002015560608201518160030160006101000a81548160ff0219169083151502179055506080820151816004015560a08201518160050160006101000a81548160ff02191690831515021790555060c0820151816006015560e082015181600701556101008201518160080160006101000a8154816001600160a01b0302191690836001600160a01b0316021790555090505060056000336001600160a01b03166001600160a01b03168152602001908152602001600020859080600181540180825580915050600190039060005260206000200160009091909190915055600260009054906101000a90046001600160a01b03166001600160a01b03166342842e0e3330886040518463ffffffff1660e01b815260040161121893929190612046565b600060405180830381600087803b15801561123257600080fd5b505af1158015611246573d6000803e3d6000fd5b5050604080518781526000602082018190528183015290513393508892507fe6ab21b2a83da025cd3cf0447b97c61c4fba73debef8290fd378364c9110e0809181900360600190a35050505050565b60066020528160005260406000208181548110610e9f57600080fd5b6112b9611bf8565b60008181526003602081905260409091200154819060ff166112ed5760405162461bcd60e51b815260040161059290612016565b6000828152600360205260409020600581015460ff166113485760405162461bcd60e51b815260206004820152601660248201527524ba32b69034b9903737ba1034b71030bab1ba34b7b760511b6044820152606401610592565b8060060154421061138b5760405162461bcd60e51b815260206004820152600d60248201526c105d58dd1a5bdb88195b991959609a1b6044820152606401610592565b806007015434116113cc5760405162461bcd60e51b815260206004820152600b60248201526a42696420746f6f206c6f7760a81b6044820152606401610592565b80600201543410156114205760405162461bcd60e51b815260206004820152601860248201527f4269642062656c6f77207374617274696e6720707269636500000000000000006044820152606401610592565b60088101546001600160a01b03161561147557600881015460078201546040516001600160a01b039092169181156108fc0291906000818181858888f19350505050158015611473573d6000803e3d6000fd5b505b3460078201819055600882018054336001600160a01b0319918216811790925560008681526004602090815260408083208151606081018352868152808401888152428285019081528354600181810186559488528688209351600390910290930180549098166001600160a01b03909316929092178755518683015551600290950194909455848352600682528083208054948501815583529181902090920187905551928352909185917f0e54eff26401bf69b81b26f60bd85ef47f5d85275c1d268d84f68d6897431c47910160405180910390a350506115586001600055565b50565b611563611bf8565b60008181526003602081905260409091200154819060ff166115975760405162461bcd60e51b815260040161059290612016565b6000828152600360205260409020600581015460ff166115ea5760405162461bcd60e51b815260206004820152600e60248201526d2737ba1030b71030bab1ba34b7b760911b6044820152606401610592565b80600601544210156116325760405162461bcd60e51b8152602060048201526011602482015270105d58dd1a5bdb881b9bdd08195b991959607a1b6044820152606401610592565b60088101546001600160a01b0316156116b657600881015460078201546116669185916001600160a01b0390911690611c51565b600881015460078201546040519081526001600160a01b039091169084907fd2aa34a4fdbbc6dff6a3e56f46e0f3ae2a31d7785ff3487aa5c95c642acea5019060200160405180910390a361176c565b60038101805460ff191690556002546001820154604051632142170760e11b81526001600160a01b03928316926342842e0e926116fd923092909116908890600401612046565b600060405180830381600087803b15801561171757600080fd5b505af115801561172b573d6000803e3d6000fd5b50505060018201546040516001600160a01b03909116915084907fcd69f8512d5dbb6c8101e48b86eee5edf783a51bc5e597bc5c832971e40fc91390600090a35b50506115586001600055565b611780611aba565b6001546040516001600160a01b03909116904780156108fc02916000818181858888f19350505050158015611558573d6000803e3d6000fd5b6117c1611bf8565b60008181526003602081905260409091200154819060ff166117f55760405162461bcd60e51b815260040161059290612016565b6000828152600360205260409020600581015460ff161561184d5760405162461bcd60e51b815260206004820152601260248201527124ba32b69034b99034b71030bab1ba34b7b760711b6044820152606401610592565b80600201543410156118985760405162461bcd60e51b8152602060048201526014602482015273125b9cdd59999a58da595b9d081c185e5b595b9d60621b6044820152606401610592565b6000806118a485611b66565b91509150811580156118b4575080155b6119005760405162461bcd60e51b815260206004820152601860248201527f536c6f74206e6f206c6f6e67657220617661696c61626c6500000000000000006044820152606401610592565b61190f85338560020154611c51565b6001830154600284015460405190815233916001600160a01b03169087907f04ddd54c6b746e69ba87f862311f7670bd1d7276846778ac81cd38747b27a7469060200160405180910390a4505050506115586001600055565b6001600160a01b03811660009081526005602090815260409182902080548351818402810184019094528084526060939283018282801561096e576020028201919060005260206000209081548152602001906001019080831161095a5750505050509050919050565b6119da611aba565b6001600160a01b038116611a225760405162461bcd60e51b815260206004820152600f60248201526e496e76616c6964206164647265737360881b6044820152606401610592565b600880546001600160a01b0319166001600160a01b0392909216919091179055565b611a4c611aba565b6001600160a01b038116611ab15760405162461bcd60e51b815260206004820152602660248201527f4f776e61626c653a206e6577206f776e657220697320746865207a65726f206160448201526564647265737360d01b6064820152608401610592565b61155881611b14565b6001546001600160a01b03163314610a215760405162461bcd60e51b815260206004820181905260248201527f4f776e61626c653a2063616c6c6572206973206e6f7420746865206f776e65726044820152606401610592565b600180546001600160a01b038381166001600160a01b0319831681179093556040519116919082907f8be0079c531659141344cd1fd0a4f28419497f9722a3daafe3b4186f6b6457e090600090a35050565b600254604051632b85dcc960e01b81526004810183905260009182916001600160a01b0390911690632b85dcc990602401600060405180830381865afa925050508015611bd557506040513d6000823e601f3d908101601f19168201604052611bd2919081019061220e565b60015b611be457506000928392509050565b8060a001518160e001519250925050915091565b600260005403611c4a5760405162461bcd60e51b815260206004820152601f60248201527f5265656e7472616e637947756172643a207265656e7472616e742063616c6c006044820152606401610592565b6002600055565b6000838152600360205260408120600754909190606490611c72908561231f565b611c7c9190612336565b90506000611c8a8285612358565b6008546040519192506001600160a01b03169083156108fc029084906000818181858888f19350505050158015611cc5573d6000803e3d6000fd5b5060018301546040516001600160a01b039091169082156108fc029083906000818181858888f19350505050158015611d02573d6000803e3d6000fd5b50600254604051632142170760e11b81526001600160a01b03909116906342842e0e90611d3790309089908b90600401612046565b600060405180830381600087803b158015611d5157600080fd5b505af1158015611d65573d6000803e3d6000fd5b5050506003909301805460ff19169055505050505050565b600060208284031215611d8f57600080fd5b5035919050565b815181526020808301516001600160a01b031690820152604080830151908201526060808301511515908201526080808301519082015260a080830151610120830191611de69084018215159052565b5060c083015160c083015260e083015160e083015261010080840151611e16828501826001600160a01b03169052565b505092915050565b6001600160a01b038116811461155857600080fd5b600080600080600060808688031215611e4b57600080fd5b8535611e5681611e1e565b94506020860135611e6681611e1e565b935060408601359250606086013567ffffffffffffffff80821115611e8a57600080fd5b818801915088601f830112611e9e57600080fd5b813581811115611ead57600080fd5b896020828501011115611ebf57600080fd5b9699959850939650602001949392505050565b60008060408385031215611ee557600080fd5b50508035926020909101359150565b600060208284031215611f0657600080fd5b8135611f1181611e1e565b9392505050565b6020808252825182820181905260009190848201906040850190845b81811015611f5057835183529284019291840191600101611f34565b50909695505050505050565b602080825282518282018190526000919060409081850190868401855b82811015611fb157815180516001600160a01b0316855286810151878601528501518585015260609093019290850190600101611f79565b5091979650505050505050565b600080600060608486031215611fd357600080fd5b505081359360208301359350604090920135919050565b60008060408385031215611ffd57600080fd5b823561200881611e1e565b946020939093013593505050565b602080825260169082015275131a5cdd1a5b99c8191bd95cc81b9bdd08195e1a5cdd60521b604082015260600190565b6001600160a01b039384168152919092166020820152604081019190915260600190565b805161207581611e1e565b919050565b60006020828403121561208c57600080fd5b8151611f1181611e1e565b60208082526022908201527f43616e6e6f74206c69737420626f6f6b6564206f72207265766f6b656420736c6040820152611bdd60f21b606082015260800190565b634e487b7160e01b600052601160045260246000fd5b80820180821115612102576121026120d9565b92915050565b634e487b7160e01b600052604160045260246000fd5b604051610160810167ffffffffffffffff8111828210171561214257612142612108565b60405290565b604051601f8201601f1916810167ffffffffffffffff8111828210171561217157612171612108565b604052919050565b8051801515811461207557600080fd5b600082601f83011261219a57600080fd5b815167ffffffffffffffff8111156121b4576121b4612108565b60206121c8601f8301601f19168201612148565b82815285828487010111156121dc57600080fd5b60005b838110156121fa5785810183015182820184015282016121df565b506000928101909101919091529392505050565b60006020828403121561222057600080fd5b815167ffffffffffffffff8082111561223857600080fd5b90830190610160828603121561224d57600080fd5b61225561211e565b825181526122656020840161206a565b602082015260408301516040820152606083015160608201526080830151608082015261229460a08401612179565b60a08201526122a560c0840161206a565b60c08201526122b660e08401612179565b60e082015261010080840151838111156122cf57600080fd5b6122db88828701612189565b82840152505061012080840151838111156122f557600080fd5b61230188828701612189565b91830191909152506101409283015192810192909252509392505050565b8082028115828204841417612102576121026120d9565b60008261235357634e487b7160e01b600052601260045260246000fd5b500490565b81810381811115612102576121026120d956fea2646970667358221220499211ee833b8b01c87ead3953c0d6a358a9350a8c9207f98259bf52df7085c264736f6c63430008130033",
  "linkReferences": {},
  "deployedLinkReferences": {}
}