{
  "_format": "hh-sol-artifact-1",
  "contractName": "TimeSlotFactory",
  "sourceName": "contracts/TimeSlotFactory.sol",
  "abi": [
    {
      "inputs": [
        {
          "internalType": "address",
          "name": "_platformWallet",
          "type": "address"
        }
      ],
      "stateMutability": "nonpayable",
      "type": "constructor"
    },
    {
      "anonymous": false,
      "inputs": [
        {
          "indexed": true,
          "internalType": "address",
          "name": "previousOwner",
          "type": "address"
        },
        {
          "indexed": true,
          "internalType": "address",
          "name": "newOwner",
          "type": "address"
        }
      ],
      "name": "OwnershipTransferred",
      "type": "event"
    },
    {
      "anonymous": false,
      "inputs": [
        {
          "indexed": false,
          "internalType": "address",
          "name": "newWallet",
          "type": "address"
        }
      ],
      "name": "PlatformWalletUpdated",
      "type": "event"
    },
    {
      "anonymous": false,
      "inputs": [
        {
          "indexed": false,
          "internalType": "address",
          "name": "timeSlotNFT",
          "type": "address"
        },
        {
          "indexed": false,
          "internalType": "address",
          "name": "marketplace",
          "type": "address"
        },
        {
          "indexed": false,
          "internalType": "address",
          "name": "escrow",
          "type": "address"
        },
        {
          "indexed": false,
          "internalType": "address",
          "name": "reviewSystem",
          "type": "address"
        },
        {
          "indexed": false,
          "internalType": "address",
          "name": "userRegistry",
          "type": "address"
        }
      ],
      "name": "SystemInitialized",
      "type": "event"
    },
    {
      "inputs": [
        {
          "internalType": "uint256[]",
          "name": "_startTimes",
          "type": "uint256[]"
        },
        {
          "internalType": "uint256[]",
          "name": "_endTimes",
          "type": "uint256[]"
        },
        {
          "internalType": "uint256[]",
          "name": "_prices",
          "type": "uint256[]"
        },
        {
          "internalType": "string[]",
          "name": "_professions",
          "type": "string[]"
        },
        {
          "internalType": "string[]",
          "name": "_descriptions",
          "type": "string[]"
        }
      ],
      "name": "batchCreateTimeSlots",
      "outputs": [],
      "stateMutability": "nonpayable",
      "type": "function"
    },
    {
      "inputs": [
        {
          "internalType": "uint256",
          "name": "_tokenId",
          "type": "uint256"
        },
        {
          "internalType": "string",
          "name": "_meetingLink",
          "type": "string"
        },
        {
          "internalType": "string",
          "name": "_notes",
          "type": "string"
        }
      ],
      "name": "bookTimeSlotWithEscrow",
      "outputs": [],
      "stateMutability": "payable",
      "type": "function"
    },
    {
      "inputs": [
        {
          "internalType": "uint256",
          "name": "_tokenId",
          "type": "uint256"
        }
      ],
      "name": "buyFromMarketplace",
      "outputs": [],
      "stateMutability": "payable",
      "type": "function"
    },
    {
      "inputs": [
        {
          "internalType": "uint256",
          "name": "_tokenId",
          "type": "uint256"
        }
      ],
      "name": "completeEscrow",
      "outputs": [],
      "stateMutability": "nonpayable",
      "type": "function"
    },
    {
      "inputs": [
        {
          "internalType": "uint256",
          "name": "_tokenId",
          "type": "uint256"
        }
      ],
      "name": "confirmAppointment",
      "outputs": [],
      "stateMutability": "nonpayable",
      "type": "function"
    },
    {
      "inputs": [
        {
          "internalType": "uint256",
          "name": "_startTime",
          "type": "uint256"
        },
        {
          "internalType": "uint256",
          "name": "_endTime",
          "type": "uint256"
        },
        {
          "internalType": "uint256",
          "name": "_price",
          "type": "uint256"
        },
        {
          "internalType": "string",
          "name": "_profession",
          "type": "string"
        },
        {
          "internalType": "string",
          "name": "_description",
          "type": "string"
        }
      ],
      "name": "createTimeSlot",
      "outputs": [],
      "stateMutability": "nonpayable",
      "type": "function"
    },
    {
      "inputs": [],
      "name": "emergencyPause",
      "outputs": [],
      "stateMutability": "nonpayable",
      "type": "function"
    },
    {
      "inputs": [],
      "name": "emergencyUnpause",
      "outputs": [],
      "stateMutability": "nonpayable",
      "type": "function"
    },
    {
      "inputs": [
        {
          "internalType": "uint256",
          "name": "_tokenId",
          "type": "uint256"
        }
      ],
      "name": "endAuction",
      "outputs": [],
      "stateMutability": "nonpayable",
      "type": "function"
    },
    {
      "inputs": [],
      "name": "escrow",
      "outputs": [
        {
          "internalType": "contract TimeSlotEscrow",
          "name": "",
          "type": "address"
        }
      ],
      "stateMutability": "view",
      "type": "function"
    },
    {
      "inputs": [],
      "name": "getSystemAddresses",
      "outputs": [
        {
          "internalType": "address",
          "name": "_timeSlotNFT",
          "type": "address"
        },
        {
          "internalType": "address",
          "name": "_marketplace",
          "type": "address"
        },
        {
          "internalType": "address",
          "name": "_escrow",
          "type": "address"
        },
        {
          "internalType": "address",
          "name": "_reviewSystem",
          "type": "address"
        },
        {
          "internalType": "address",
          "name": "_userRegistry",
          "type": "address"
        }
      ],
      "stateMutability": "view",
      "type": "function"
    },
    {
      "inputs": [],
      "name": "initializeSystem",
      "outputs": [],
      "stateMutability": "nonpayable",
      "type": "function"
    },
    {
      "inputs": [
        {
          "internalType": "uint256",
          "name": "_tokenId",
          "type": "uint256"
        },
        {
          "internalType": "uint256",
          "name": "_startingPrice",
          "type": "uint256"
        },
        {
          "internalType": "uint256",
          "name": "_auctionDuration",
          "type": "uint256"
        }
      ],
      "name": "listForAuction",
      "outputs": [],
      "stateMutability": "nonpayable",
      "type": "function"
    },
    {
      "inputs": [
        {
          "internalType": "uint256",
          "name": "_tokenId",
          "type": "uint256"
        },
        {
          "internalType": "uint256",
          "name": "_price",
          "type": "uint256"
        }
      ],
      "name": "listOnMarketplace",
      "outputs": [],
      "stateMutability": "nonpayable",
      "type": "function"
    },
    {
      "inputs": [],
      "name": "marketplace",
      "outputs": [
        {
          "internalType": "contract TimeSlotMarketplace",
          "name": "",
          "type": "address"
        }
      ],
      "stateMutability": "view",
      "type": "function"
    },
    {
      "inputs": [],
      "name": "owner",
      "outputs": [
        {
          "internalType": "address",
          "name": "",
          "type": "address"
        }
      ],
      "stateMutability": "view",
      "type": "function"
    },
    {
      "inputs": [
        {
          "internalType": "uint256",
          "name": "_tokenId",
          "type": "uint256"
        }
      ],
      "name": "placeBidOnAuction",
      "outputs": [],
      "stateMutability": "payable",
      "type": "function"
    },
    {
      "inputs": [],
      "name": "platformWallet",
      "outputs": [
        {
          "internalType": "address",
          "name": "",
          "type": "address"
        }
      ],
      "stateMutability": "view",
      "type": "function"
    },
    {
      "inputs": [
        {
          "internalType": "string",
          "name": "_name",
          "type": "string"
        },
        {
          "internalType": "string",
          "name": "_email",
          "type": "string"
        },
        {
          "internalType": "string",
          "name": "_ens",
          "type": "string"
        },
        {
          "internalType": "string",
          "name": "_profileImage",
          "type": "string"
        },
        {
          "internalType": "string",
          "name": "_bio",
          "type": "string"
        }
      ],
      "name": "registerCustomer",
      "outputs": [],
      "stateMutability": "payable",
      "type": "function"
    },
    {
      "inputs": [
        {
          "internalType": "string",
          "name": "_name",
          "type": "string"
        },
        {
          "internalType": "string",
          "name": "_email",
          "type": "string"
        },
        {
          "internalType": "string",
          "name": "_ens",
          "type": "string"
        },
        {
          "internalType": "string",
          "name": "_profession",
          "type": "string"
        },
        {
          "internalType": "string",
          "name": "_description",
          "type": "string"
        },
        {
          "internalType": "string",
          "name": "_profileImage",
          "type": "string"
        },
        {
          "internalType": "string",
          "name": "_bio",
          "type": "string"
        }
      ],
      "name": "registerExpert",
      "outputs": [],
      "stateMutability": "payable",
      "type": "function"
    },
    {
      "inputs": [],
      "name": "renounceOwnership",
      "outputs": [],
      "stateMutability": "nonpayable",
      "type": "function"
    },
    {
      "inputs": [],
      "name": "reviewSystem",
      "outputs": [
        {
          "internalType": "contract ReviewSystem",
          "name": "",
          "type": "address"
        }
      ],
      "stateMutability": "view",
      "type": "function"
    },
    {
      "inputs": [
        {
          "internalType": "uint256",
          "name": "_tokenId",
          "type": "uint256"
        }
      ],
      "name": "revokeTimeSlot",
      "outputs": [],
      "stateMutability": "nonpayable",
      "type": "function"
    },
    {
      "inputs": [
        {
          "internalType": "uint256",
          "name": "_tokenId",
          "type": "uint256"
        },
        {
          "internalType": "uint256",
          "name": "_rating",
          "type": "uint256"
        },
        {
          "internalType": "string",
          "name": "_comment",
          "type": "string"
        }
      ],
      "name": "submitReview",
      "outputs": [],
      "stateMutability": "nonpayable",
      "type": "function"
    },
    {
      "inputs": [],
      "name": "systemInitialized",
      "outputs": [
        {
          "internalType": "bool",
          "name": "",
          "type": "bool"
        }
      ],
      "stateMutability": "view",
      "type": "function"
    },
    {
      "inputs": [],
      "name": "timeSlotNFT",
      "outputs": [
        {
          "internalType": "contract TimeSlotNFT",
          "name": "",
          "type": "address"
        }
      ],
      "stateMutability": "view",
      "type": "function"
    },
    {
      "inputs": [
        {
          "internalType": "address",
          "name": "newOwner",
          "type": "address"
        }
      ],
      "name": "transferOwnership",
      "outputs": [],
      "stateMutability": "nonpayable",
      "type": "function"
    },
    {
      "inputs": [
        {
          "internalType": "address",
          "name": "_newWallet",
          "type": "address"
        }
      ],
      "name": "updatePlatformWallet",
      "outputs": [],
      "stateMutability": "nonpayable",
      "type": "function"
    },
    {
      "inputs": [],
      "name": "userRegistry",
      "outputs": [
        {
          "internalType": "contract UserRegistry",
          "name": "",
          "type": "address"
        }
      ],
      "stateMutability": "view",
      "type": "function"
    },
    {
      "inputs": [],
      "name": "withdrawPlatformFunds",
      "outputs": [],
      "stateMutability": "nonpayable",
      "type": "function"
    }
  ],
  "bytecode": "0x60806040523480156200001157600080fd5b5060405162010f0538038062010f058339810160408190526200003491620000b9565b6200003f3362000069565b60018055600780546001600160a01b0319166001600160a01b0392909216919091179055620000eb565b600080546001600160a01b038381166001600160a01b0319831681178455604051919092169283917f8be0079c531659141344cd1fd0a4f28419497f9722a3daafe3b4186f6b6457e09190a35050565b600060208284031215620000cc57600080fd5b81516001600160a01b0381168114620000e457600080fd5b9392505050565b62010e0980620000fc6000396000f3fe608060405260043610620001f35760003560e01c8063aadd577e116200010b578063bca6027111620000a1578063df3e0a1d116200006c578063df3e0a1d146200056c578063e2fdcc171462000591578063f2fde38b14620005b3578063fa2af9da14620005d857600080fd5b8063bca6027114620004f3578063c712ecef1462000518578063cefead95146200052f578063d0307e7c146200055457600080fd5b8063ae403f9611620000e2578063ae403f96146200046f578063b2a4401b1462000494578063b3043cf414620004b6578063b9a2de3a14620004ce57600080fd5b8063aadd577e1462000411578063abc8c7af1462000428578063ada4ef30146200044a57600080fd5b806359d75e51116200018d5780638ca9e5ec11620001585780638ca9e5ec14620003935780638da5cb5b14620003aa57806392d76cb614620003ca5780639f54b72914620003ec57600080fd5b806359d75e5114620002f65780635b07c657146200031b5780635c7460d61462000340578063715018a6146200037b57600080fd5b8063341ec95711620001ce578063341ec957146200026e578063435a658f14620002855780634a4e3bd514620002de57806351858e2714620002de57600080fd5b80630206850b14620001f857806314be483c14620002305780631eaa2f9c1462000257575b600080fd5b3480156200020557600080fd5b506007546200021b90600160a01b900460ff1681565b60405190151581526020015b60405180910390f35b3480156200023d57600080fd5b50620002556200024f36600462001ab9565b620005fa565b005b620002556200026836600462001be4565b62000731565b620002556200027f36600462001d15565b62000845565b3480156200029257600080fd5b50600254600354600454600554600654604080516001600160a01b0396871681529486166020860152928516928401929092528316606083015291909116608082015260a00162000227565b348015620002eb57600080fd5b506200025562000aa4565b3480156200030357600080fd5b50620002556200031536600462001d89565b62000ab0565b3480156200032857600080fd5b50620002556200033a36600462001dac565b62000bd6565b3480156200034d57600080fd5b5060065462000362906001600160a01b031681565b6040516001600160a01b03909116815260200162000227565b3480156200038857600080fd5b506200025562000df7565b62000255620003a436600462001dc6565b62000e0d565b348015620003b757600080fd5b506000546001600160a01b031662000362565b348015620003d757600080fd5b5060055462000362906001600160a01b031681565b348015620003f957600080fd5b50620002556200040b36600462001ea8565b62000eb3565b620002556200042236600462001dac565b62000fa3565b3480156200043557600080fd5b5060035462000362906001600160a01b031681565b3480156200045757600080fd5b50620002556200046936600462001f08565b620010a6565b3480156200047c57600080fd5b50620002556200048e3660046200204d565b6200114e565b348015620004a157600080fd5b5060025462000362906001600160a01b031681565b348015620004c357600080fd5b506200025562001284565b348015620004db57600080fd5b5062000255620004ed36600462001dac565b620012cb565b3480156200050057600080fd5b50620002556200051236600462002122565b6200135b565b620002556200052936600462001dac565b62001476565b3480156200053c57600080fd5b50620002556200054e36600462001dac565b62001564565b3480156200056157600080fd5b5062000255620015c0565b3480156200057957600080fd5b50620002556200058b36600462001dac565b6200188f565b3480156200059e57600080fd5b5060045462000362906001600160a01b031681565b348015620005c057600080fd5b5062000255620005d236600462001f08565b6200194b565b348015620005e557600080fd5b5060075462000362906001600160a01b031681565b600754600160a01b900460ff166200062f5760405162461bcd60e51b8152600401620006269062002169565b60405180910390fd5b60065460405163c3c5a54760e01b81523360048201526001600160a01b039091169063c3c5a54790602401602060405180830381865afa15801562000678573d6000803e3d6000fd5b505050506040513d601f19601f820116820180604052508101906200069e9190620021af565b620006bd5760405162461bcd60e51b81526004016200062690620021cd565b600354604051637309d77960e01b81526004810185905260248101849052604481018390526001600160a01b0390911690637309d779906064015b600060405180830381600087803b1580156200071357600080fd5b505af115801562000728573d6000803e3d6000fd5b50505050505050565b600754600160a01b900460ff166200075d5760405162461bcd60e51b8152600401620006269062002169565b600654604051635748b33560e11b81526001600160a01b039091169063ae91666a9034906200079c908b908b908b906001908a908a906004016200224e565b6000604051808303818588803b158015620007b657600080fd5b505af1158015620007cb573d6000803e3d6000fd5b505060025460405163493ae73560e11b81526001600160a01b039091169350639275ce6a92506200080891508a90889088908b90600401620022eb565b600060405180830381600087803b1580156200082357600080fd5b505af115801562000838573d6000803e3d6000fd5b5050505050505050505050565b600754600160a01b900460ff16620008715760405162461bcd60e51b8152600401620006269062002169565b60065460405163c3c5a54760e01b81523360048201526001600160a01b039091169063c3c5a54790602401602060405180830381865afa158015620008ba573d6000803e3d6000fd5b505050506040513d601f19601f82011682018060405250810190620008e09190620021af565b620008ff5760405162461bcd60e51b81526004016200062690620021cd565b600254604051632b85dcc960e01b8152600481018590526000916001600160a01b031690632b85dcc990602401600060405180830381865afa1580156200094a573d6000803e3d6000fd5b505050506040513d6000823e601f3d908101601f19168201604052620009749190810190620023ac565b90508060800151341015620009c35760405162461bcd60e51b8152602060048201526014602482015273125b9cdd59999a58da595b9d081c185e5b595b9d60621b604482015260640162000626565b600254604051630c8acf3760e11b8152600481018690526001600160a01b03909116906319159e6e90602401600060405180830381600087803b15801562000a0a57600080fd5b505af115801562000a1f573d6000803e3d6000fd5b505060048054602085015160808601516040516328e5dc5560e01b81526001600160a01b0390931695506328e5dc559450349362000a6a938b933393909290918c918c9101620024d0565b6000604051808303818588803b15801562000a8457600080fd5b505af115801562000a99573d6000803e3d6000fd5b505050505050505050565b62000aae620019c7565b565b600754600160a01b900460ff1662000adc5760405162461bcd60e51b8152600401620006269062002169565b60065460405163c3c5a54760e01b81523360048201526001600160a01b039091169063c3c5a54790602401602060405180830381865afa15801562000b25573d6000803e3d6000fd5b505050506040513d601f19601f8201168201806040525081019062000b4b9190620021af565b62000b6a5760405162461bcd60e51b81526004016200062690620021cd565b60035460405163883efa6760e01b815260048101849052602481018390526001600160a01b039091169063883efa67906044015b600060405180830381600087803b15801562000bb957600080fd5b505af115801562000bce573d6000803e3d6000fd5b505050505050565b600754600160a01b900460ff1662000c025760405162461bcd60e51b8152600401620006269062002169565b600254604051632b85dcc960e01b8152600481018390526000916001600160a01b031690632b85dcc990602401600060405180830381865afa15801562000c4d573d6000803e3d6000fd5b505050506040513d6000823e601f3d908101601f1916820160405262000c779190810190620023ac565b905080602001516001600160a01b0316336001600160a01b0316148062000cb357508060c001516001600160a01b0316336001600160a01b0316145b62000cf25760405162461bcd60e51b815260206004820152600e60248201526d139bdd08185d5d1a1bdc9a5e995960921b604482015260640162000626565b60048054604051638e0eac0f60e01b81529182018490526001600160a01b031690638e0eac0f90602401602060405180830381865afa15801562000d3a573d6000803e3d6000fd5b505050506040513d601f19601f8201168201806040525081019062000d609190620021af565b1562000dc5576004805460405163d321c6cf60e01b81529182018490526001600160a01b03169063d321c6cf90602401600060405180830381600087803b15801562000dab57600080fd5b505af115801562000dc0573d6000803e3d6000fd5b505050505b60025460405163078bd47160e31b8152600481018490526001600160a01b0390911690633c5ea3889060240162000b9e565b62000e01620019c7565b62000aae600062001a23565b600754600160a01b900460ff1662000e395760405162461bcd60e51b8152600401620006269062002169565b600654604051635748b33560e11b81526001600160a01b039091169063ae91666a90349062000e78908990899089906000908a908a906004016200224e565b6000604051808303818588803b15801562000e9257600080fd5b505af115801562000ea7573d6000803e3d6000fd5b50505050505050505050565b600754600160a01b900460ff1662000edf5760405162461bcd60e51b8152600401620006269062002169565b60065460405163c3c5a54760e01b81523360048201526001600160a01b039091169063c3c5a54790602401602060405180830381865afa15801562000f28573d6000803e3d6000fd5b505050506040513d601f19601f8201168201806040525081019062000f4e9190620021af565b62000f6d5760405162461bcd60e51b81526004016200062690620021cd565b600554604051639f54b72960e01b81526001600160a01b0390911690639f54b72990620006f8908690869086906004016200251f565b600754600160a01b900460ff1662000fcf5760405162461bcd60e51b8152600401620006269062002169565b60065460405163c3c5a54760e01b81523360048201526001600160a01b039091169063c3c5a54790602401602060405180830381865afa15801562001018573d6000803e3d6000fd5b505050506040513d601f19601f820116820180604052508101906200103e9190620021af565b6200105d5760405162461bcd60e51b81526004016200062690620021cd565b600354604051639979ef4560e01b8152600481018390526001600160a01b0390911690639979ef459034906024015b6000604051808303818588803b15801562000bb957600080fd5b620010b0620019c7565b6001600160a01b038116620010fa5760405162461bcd60e51b815260206004820152600f60248201526e496e76616c6964206164647265737360881b604482015260640162000626565b600780546001600160a01b0319166001600160a01b0383169081179091556040519081527f73238e3ae0a71b401b31ae67204506d074de41bd5c084082fba9b64b1c7fa28f9060200160405180910390a150565b600754600160a01b900460ff166200117a5760405162461bcd60e51b8152600401620006269062002169565b600654604051634a31830160e01b81523360048201526001600160a01b0390911690634a31830190602401602060405180830381865afa158015620011c3573d6000803e3d6000fd5b505050506040513d601f19601f82011682018060405250810190620011e99190620021af565b6200122f5760405162461bcd60e51b8152602060048201526015602482015274139bdd0818481d995c9a599a595908195e1c195c9d605a1b604482015260640162000626565b6002546040516357201fcb60e11b81526001600160a01b039091169063ae403f9690620012699088908890889088908890600401620025df565b600060405180830381600087803b15801562000a8457600080fd5b6200128e620019c7565b6007546040516001600160a01b03909116904780156108fc02916000818181858888f19350505050158015620012c8573d6000803e3d6000fd5b50565b600754600160a01b900460ff16620012f75760405162461bcd60e51b8152600401620006269062002169565b600354604051635cd16f1d60e11b8152600481018390526001600160a01b039091169063b9a2de3a906024015b600060405180830381600087803b1580156200133f57600080fd5b505af115801562001354573d6000803e3d6000fd5b5050505050565b600754600160a01b900460ff16620013875760405162461bcd60e51b8152600401620006269062002169565b600654604051634a31830160e01b81523360048201526001600160a01b0390911690634a31830190602401602060405180830381865afa158015620013d0573d6000803e3d6000fd5b505050506040513d601f19601f82011682018060405250810190620013f69190620021af565b6200143c5760405162461bcd60e51b8152602060048201526015602482015274139bdd0818481d995c9a599a595908195e1c195c9d605a1b604482015260640162000626565b60025460405163bca6027160e01b81526001600160a01b039091169063bca602719062001269908890889088908890889060040162002656565b600754600160a01b900460ff16620014a25760405162461bcd60e51b8152600401620006269062002169565b60065460405163c3c5a54760e01b81523360048201526001600160a01b039091169063c3c5a54790602401602060405180830381865afa158015620014eb573d6000803e3d6000fd5b505050506040513d601f19601f82011682018060405250810190620015119190620021af565b620015305760405162461bcd60e51b81526004016200062690620021cd565b60035460405163e7fb74c760e01b8152600481018390526001600160a01b039091169063e7fb74c79034906024016200108c565b600754600160a01b900460ff16620015905760405162461bcd60e51b8152600401620006269062002169565b6004805460405163cefead9560e01b81529182018390526001600160a01b03169063cefead959060240162001324565b620015ca620019c7565b600754600160a01b900460ff1615620016265760405162461bcd60e51b815260206004820152601a60248201527f53797374656d20616c726561647920696e697469616c697a6564000000000000604482015260640162000626565b6007546040516001600160a01b0390911690620016439062001a73565b6001600160a01b039091168152602001604051809103906000f08015801562001670573d6000803e3d6000fd5b50600280546001600160a01b0319166001600160a01b0392831690811790915560075460405191921690620016a59062001a81565b6001600160a01b03928316815291166020820152604001604051809103906000f080158015620016d9573d6000803e3d6000fd5b50600380546001600160a01b0319166001600160a01b03928316179055600254600754604051918316921690620017109062001a8f565b6001600160a01b03928316815291166020820152604001604051809103906000f08015801562001744573d6000803e3d6000fd5b50600480546001600160a01b0319166001600160a01b03928316908117909155600254604051921691620017789062001a9d565b6001600160a01b03928316815291166020820152604001604051809103906000f080158015620017ac573d6000803e3d6000fd5b50600580546001600160a01b0319166001600160a01b0392909216919091179055604051620017db9062001aab565b604051809103906000f080158015620017f8573d6000803e3d6000fd5b50600680546001600160a01b039283166001600160a01b031990911681179091556007805460ff60a01b1916600160a01b179055600254600354600454600554604080519487168552928616602085015290851691830191909152909216606083015260808201527fb53ffe409e0ec84c8e40242beb41d8cdba7848002cb8bbfac9bf4fa15072cfea9060a00160405180910390a1565b600754600160a01b900460ff16620018bb5760405162461bcd60e51b8152600401620006269062002169565b6004805460405163df3e0a1d60e01b81529182018390526001600160a01b03169063df3e0a1d90602401600060405180830381600087803b1580156200190057600080fd5b505af115801562001915573d6000803e3d6000fd5b5050600554604051637726bbbf60e11b8152600481018590526001600160a01b03909116925063ee4d777e915060240162001324565b62001955620019c7565b6001600160a01b038116620019bc5760405162461bcd60e51b815260206004820152602660248201527f4f776e61626c653a206e6577206f776e657220697320746865207a65726f206160448201526564647265737360d01b606482015260840162000626565b620012c88162001a23565b6000546001600160a01b0316331462000aae5760405162461bcd60e51b815260206004820181905260248201527f4f776e61626c653a2063616c6c6572206973206e6f7420746865206f776e6572604482015260640162000626565b600080546001600160a01b038381166001600160a01b0319831681178455604051919092169283917f8be0079c531659141344cd1fd0a4f28419497f9722a3daafe3b4186f6b6457e09190a35050565b614f45806200269283390190565b6124d380620075d783390190565b612a668062009aaa83390190565b611eb4806200c51083390190565b612a10806200e3c483390190565b60008060006060848603121562001acf57600080fd5b505081359360208301359350604090920135919050565b634e487b7160e01b600052604160045260246000fd5b604051610160810167ffffffffffffffff8111828210171562001b235762001b2362001ae6565b60405290565b604051601f8201601f1916810167ffffffffffffffff8111828210171562001b555762001b5562001ae6565b604052919050565b600067ffffffffffffffff82111562001b7a5762001b7a62001ae6565b50601f01601f191660200190565b600082601f83011262001b9a57600080fd5b813562001bb162001bab8262001b5d565b62001b29565b81815284602083860101111562001bc757600080fd5b816020850160208301376000918101602001919091529392505050565b600080600080600080600060e0888a03121562001c0057600080fd5b873567ffffffffffffffff8082111562001c1957600080fd5b62001c278b838c0162001b88565b985060208a013591508082111562001c3e57600080fd5b62001c4c8b838c0162001b88565b975060408a013591508082111562001c6357600080fd5b62001c718b838c0162001b88565b965060608a013591508082111562001c8857600080fd5b62001c968b838c0162001b88565b955060808a013591508082111562001cad57600080fd5b62001cbb8b838c0162001b88565b945060a08a013591508082111562001cd257600080fd5b62001ce08b838c0162001b88565b935060c08a013591508082111562001cf757600080fd5b5062001d068a828b0162001b88565b91505092959891949750929550565b60008060006060848603121562001d2b57600080fd5b83359250602084013567ffffffffffffffff8082111562001d4b57600080fd5b62001d598783880162001b88565b9350604086013591508082111562001d7057600080fd5b5062001d7f8682870162001b88565b9150509250925092565b6000806040838503121562001d9d57600080fd5b50508035926020909101359150565b60006020828403121562001dbf57600080fd5b5035919050565b600080600080600060a0868803121562001ddf57600080fd5b853567ffffffffffffffff8082111562001df857600080fd5b62001e0689838a0162001b88565b9650602088013591508082111562001e1d57600080fd5b62001e2b89838a0162001b88565b9550604088013591508082111562001e4257600080fd5b62001e5089838a0162001b88565b9450606088013591508082111562001e6757600080fd5b62001e7589838a0162001b88565b9350608088013591508082111562001e8c57600080fd5b5062001e9b8882890162001b88565b9150509295509295909350565b60008060006060848603121562001ebe57600080fd5b8335925060208401359150604084013567ffffffffffffffff81111562001ee457600080fd5b62001d7f8682870162001b88565b6001600160a01b0381168114620012c857600080fd5b60006020828403121562001f1b57600080fd5b813562001f288162001ef2565b9392505050565b600067ffffffffffffffff82111562001f4c5762001f4c62001ae6565b5060051b60200190565b600082601f83011262001f6857600080fd5b8135602062001f7b62001bab8362001f2f565b82815260059290921b8401810191818101908684111562001f9b57600080fd5b8286015b8481101562001fb8578035835291830191830162001f9f565b509695505050505050565b600082601f83011262001fd557600080fd5b8135602062001fe862001bab8362001f2f565b82815260059290921b840181019181810190868411156200200857600080fd5b8286015b8481101562001fb857803567ffffffffffffffff8111156200202e5760008081fd5b6200203e8986838b010162001b88565b8452509183019183016200200c565b600080600080600060a086880312156200206657600080fd5b853567ffffffffffffffff808211156200207f57600080fd5b6200208d89838a0162001f56565b96506020880135915080821115620020a457600080fd5b620020b289838a0162001f56565b95506040880135915080821115620020c957600080fd5b620020d789838a0162001f56565b94506060880135915080821115620020ee57600080fd5b620020fc89838a0162001fc3565b935060808801359150808211156200211357600080fd5b5062001e9b8882890162001fc3565b600080600080600060a086880312156200213b57600080fd5b853594506020860135935060408601359250606086013567ffffffffffffffff8082111562001e6757600080fd5b60208082526016908201527514de5cdd195b481b9bdd081a5b9a5d1a585b1a5e995960521b604082015260600190565b80518015158114620021aa57600080fd5b919050565b600060208284031215620021c257600080fd5b62001f288262002199565b602080825260139082015272155cd95c881b9bdd081c9959da5cdd195c9959606a1b604082015260600190565b60005b8381101562002217578181015183820152602001620021fd565b50506000910152565b600081518084526200223a816020860160208601620021fa565b601f01601f19169290920160200192915050565b60c0815260006200226360c083018962002220565b828103602084015262002277818962002220565b905082810360408401526200228d818862002220565b905060038610620022ae57634e487b7160e01b600052602160045260246000fd5b8560608401528281036080840152620022c8818662002220565b905082810360a0840152620022de818562002220565b9998505050505050505050565b60808152600062002300608083018762002220565b828103602084015262002314818762002220565b905082810360408401526200232a818662002220565b9050828103606084015262002340818562002220565b979650505050505050565b8051620021aa8162001ef2565b600082601f8301126200236a57600080fd5b81516200237b62001bab8262001b5d565b8181528460208386010111156200239157600080fd5b620023a4826020830160208701620021fa565b949350505050565b600060208284031215620023bf57600080fd5b815167ffffffffffffffff80821115620023d857600080fd5b908301906101608286031215620023ee57600080fd5b620023f862001afc565b825181526200240a602084016200234b565b60208201526040830151604082015260608301516060820152608083015160808201526200243b60a0840162002199565b60a08201526200244e60c084016200234b565b60c08201526200246160e0840162002199565b60e082015261010080840151838111156200247b57600080fd5b620024898882870162002358565b8284015250506101208084015183811115620024a457600080fd5b620024b28882870162002358565b91830191909152506101409283015192810192909252509392505050565b8681526001600160a01b038681166020830152851660408201526060810184905260c0608082018190526000906200250b9083018562002220565b82810360a0840152620022de818562002220565b83815282602082015260606040820152600062002540606083018462002220565b95945050505050565b600081518084526020808501945080840160005b838110156200257b578151875295820195908201906001016200255d565b509495945050505050565b600081518084526020808501808196508360051b8101915082860160005b85811015620025d2578284038952620025bf84835162002220565b98850198935090840190600101620025a4565b5091979650505050505050565b60a081526000620025f460a083018862002549565b828103602084015262002608818862002549565b905082810360408401526200261e818762002549565b9050828103606084015262002634818662002586565b905082810360808401526200264a818562002586565b98975050505050505050565b85815284602082015283604082015260a0606082015260006200267d60a083018562002220565b82810360808401526200264a81856200222056fe60806040526003600f5560026010553480156200001b57600080fd5b5060405162004f4538038062004f458339810160408190526200003e916200013b565b60405180604001604052806008815260200167151a5b5954db1bdd60c21b815250604051806040016040528060058152602001641514d313d560da1b81525081600090816200008e919062000212565b5060016200009d828262000212565b505050620000ba620000b4620000e560201b60201c565b620000e9565b6001600855601180546001600160a01b0319166001600160a01b0392909216919091179055620002de565b3390565b600780546001600160a01b038381166001600160a01b0319831681179093556040519116919082907f8be0079c531659141344cd1fd0a4f28419497f9722a3daafe3b4186f6b6457e090600090a35050565b6000602082840312156200014e57600080fd5b81516001600160a01b03811681146200016657600080fd5b9392505050565b634e487b7160e01b600052604160045260246000fd5b600181811c908216806200019857607f821691505b602082108103620001b957634e487b7160e01b600052602260045260246000fd5b50919050565b601f8211156200020d57600081815260208120601f850160051c81016020861015620001e85750805b601f850160051c820191505b818110156200020957828155600101620001f4565b5050505b505050565b81516001600160401b038111156200022e576200022e6200016d565b62000246816200023f845462000183565b84620001bf565b602080601f8311600181146200027e5760008415620002655750858301515b600019600386901b1c1916600185901b17855562000209565b600085815260208120601f198616915b82811015620002af578886015182559484019460019091019084016200028e565b5085821015620002ce5787850151600019600388901b60f8161c191681555b5050505050600190811b01905550565b614c5780620002ee6000396000f3fe6080604052600436106102515760003560e01c806395d89b4111610139578063bdabcfdd116100b6578063e985e9c51161007a578063e985e9c514610741578063eeee972014610761578063ef3197c814610774578063f2fde38b14610794578063fa2af9da146107b4578063fd806f99146107d457600080fd5b8063bdabcfdd146106a1578063c87b56dd146106c1578063cefead95146106e1578063e06de0a814610701578063e3a4d3a21461072157600080fd5b8063aa0b5988116100fd578063aa0b5988146105ec578063ae403f961461060c578063b7f929861461062c578063b88d4fde14610661578063bca602711461068157600080fd5b806395d89b4114610551578063964df978146105665780639f67756d14610596578063a22cb465146105ac578063a7791aae146105cc57600080fd5b806342842e0e116101d2578063743da87f11610196578063743da87f1461046c5780637846361e1461049957806386e1c04f146104c65780638c639a85146104fd5780638da5cb5b146105135780639275ce6a1461053157600080fd5b806342842e0e146103c95780634e83be47146103e95780636352211e1461040957806370a0823114610429578063715018a61461045757600080fd5b806320b4dc461161021957806320b4dc461461032757806323b872dd146103475780632b85dcc9146103675780633c5ea388146103945780633ccfd60b146103b457600080fd5b806301ffc9a71461025657806306fdde031461028b578063081812fc146102ad578063095ea7b3146102e557806319159e6e14610307575b600080fd5b34801561026257600080fd5b50610276610271366004613dde565b6107f4565b60405190151581526020015b60405180910390f35b34801561029757600080fd5b506102a0610805565b6040516102829190613e4b565b3480156102b957600080fd5b506102cd6102c8366004613e5e565b610897565b6040516001600160a01b039091168152602001610282565b3480156102f157600080fd5b50610305610300366004613e93565b6108be565b005b34801561031357600080fd5b50610305610322366004613e5e565b6109d8565b34801561033357600080fd5b50610276610342366004613e5e565b610c0d565b34801561035357600080fd5b50610305610362366004613ebd565b610e31565b34801561037357600080fd5b50610387610382366004613e5e565b610e62565b6040516102829190613ef9565b3480156103a057600080fd5b506103056103af366004613e5e565b6110c1565b3480156103c057600080fd5b50610305611304565b3480156103d557600080fd5b506103056103e4366004613ebd565b611345565b3480156103f557600080fd5b50610305610404366004613e5e565b611360565b34801561041557600080fd5b506102cd610424366004613e5e565b6113be565b34801561043557600080fd5b50610449610444366004613fcd565b61141e565b604051908152602001610282565b34801561046357600080fd5b506103056114a4565b34801561047857600080fd5b5061048c610487366004613fcd565b6114b8565b6040516102829190613fe8565b3480156104a557600080fd5b506104b96104b4366004613fcd565b611524565b604051610282919061402c565b3480156104d257600080fd5b506104e66104e1366004613e5e565b61187c565b6040516102829b9a999897969594939291906140f0565b34801561050957600080fd5b50610449600f5481565b34801561051f57600080fd5b506007546001600160a01b03166102cd565b34801561053d57600080fd5b5061030561054c366004614237565b6119f8565b34801561055d57600080fd5b506102a0611b7c565b34801561057257600080fd5b50610276610581366004613e5e565b600e6020526000908152604090205460ff1681565b3480156105a257600080fd5b5061044960105481565b3480156105b857600080fd5b506103056105c73660046142e4565b611b8b565b3480156105d857600080fd5b506103056105e73660046143af565b611b9a565b3480156105f857600080fd5b50610305610607366004613e5e565b611cae565b34801561061857600080fd5b50610305610627366004614464565b611d04565b34801561063857600080fd5b5061064c610647366004613fcd565b61234f565b60405161028299989796959493929190614536565b34801561066d57600080fd5b5061030561067c3660046145b6565b6125b9565b34801561068d57600080fd5b5061030561069c366004614626565b6125f1565b3480156106ad57600080fd5b506103056106bc36600461469a565b6129e2565b3480156106cd57600080fd5b506102a06106dc366004613e5e565b612bc3565b3480156106ed57600080fd5b506103056106fc366004613e5e565b612bce565b34801561070d57600080fd5b5061044961071c366004613e93565b612cb0565b34801561072d57600080fd5b5061044961073c366004613e93565b612ce1565b34801561074d57600080fd5b5061027661075c3660046146bc565b612cfd565b61030561076f366004613e5e565b612d2b565b34801561078057600080fd5b5061048c61078f366004613fcd565b6130f8565b3480156107a057600080fd5b506103056107af366004613fcd565b613162565b3480156107c057600080fd5b506011546102cd906001600160a01b031681565b3480156107e057600080fd5b506103056107ef366004613e5e565b6131d8565b60006107ff8261327f565b92915050565b606060008054610814906146ef565b80601f0160208091040260200160405190810160405280929190818152602001828054610840906146ef565b801561088d5780601f106108625761010080835404028352916020019161088d565b820191906000526020600020905b81548152906001019060200180831161087057829003601f168201915b5050505050905090565b60006108a2826132a4565b506000908152600460205260409020546001600160a01b031690565b60006108c9826113be565b9050806001600160a01b0316836001600160a01b03160361093b5760405162461bcd60e51b815260206004820152602160248201527f4552433732313a20617070726f76616c20746f2063757272656e74206f776e656044820152603960f91b60648201526084015b60405180910390fd5b336001600160a01b038216148061095757506109578133612cfd565b6109c95760405162461bcd60e51b815260206004820152603d60248201527f4552433732313a20617070726f76652063616c6c6572206973206e6f7420746f60448201527f6b656e206f776e6572206f7220617070726f76656420666f7220616c6c0000006064820152608401610932565b6109d38383613303565b505050565b6109e0613371565b6000818152600e602052604090205460ff16610a0e5760405162461bcd60e51b815260040161093290614729565b6000818152600a602052604090206005015460ff1615610a665760405162461bcd60e51b815260206004820152601360248201527214db1bdd08185b1c9958591e48189bdbdad959606a1b6044820152606401610932565b6000818152600a6020526040902060050154600160a81b900460ff1615610ac75760405162461bcd60e51b815260206004820152601560248201527414db1bdd081a185cc81899595b881c995d9bdad959605a1b6044820152606401610932565b6000818152600a6020526040902060020154610ae6906103849061476c565b4210610b045760405162461bcd60e51b81526004016109329061477f565b6000818152600a60209081526040808320600580820180543361010081026001600160a81b03199092169190911760019081179092558652600d8552838620805480830182559087528587200187905591909101546001600160a01b03168452600b909252822001805491610b78836147c4565b90915550506000818152600a6020526040902060010154610ba3906001600160a01b031633836133ca565b6000818152600a60209081526040918290206001810154600490910154925192835233926001600160a01b039091169184917f0ce2e08ff7e103a28790210debaa761c68415f7f7e03d96605ca6a66ace9e6e9910160405180910390a4610c0a6001600855565b50565b6000818152600e602052604081205460ff16610c3b5760405162461bcd60e51b815260040161093290614729565b6000828152600a602090815260408083208151610160810183528154815260018201546001600160a01b03908116948201949094526002820154928101929092526003810154606083015260048101546080830152600581015460ff808216151560a085015261010080830490951660c0850152600160a81b90910416151560e08301526006810180549293919291840191610cd6906146ef565b80601f0160208091040260200160405190810160405280929190818152602001828054610d02906146ef565b8015610d4f5780601f10610d2457610100808354040283529160200191610d4f565b820191906000526020600020905b815481529060010190602001808311610d3257829003601f168201915b50505050508152602001600782018054610d68906146ef565b80601f0160208091040260200160405190810160405280929190818152602001828054610d94906146ef565b8015610de15780601f10610db657610100808354040283529160200191610de1565b820191906000526020600020905b815481529060010190602001808311610dc457829003601f168201915b5050505050815260200160088201548152505090508060e0015180610e0757508060a001515b15610e155750600092915050565b6103848160400151610e27919061476c565b4210159392505050565b610e3b338261352e565b610e575760405162461bcd60e51b8152600401610932906147dd565b6109d38383836133ca565b610ed56040518061016001604052806000815260200160006001600160a01b0316815260200160008152602001600081526020016000815260200160001515815260200160006001600160a01b031681526020016000151581526020016060815260200160608152602001600081525090565b6000828152600e602052604090205460ff16610f035760405162461bcd60e51b815260040161093290614729565b6000828152600a60209081526040918290208251610160810184528154815260018201546001600160a01b03908116938201939093526002820154938101939093526003810154606084015260048101546080840152600581015460ff808216151560a086015261010080830490941660c0860152600160a81b90910416151560e08401526006810180549192840191610f9c906146ef565b80601f0160208091040260200160405190810160405280929190818152602001828054610fc8906146ef565b80156110155780601f10610fea57610100808354040283529160200191611015565b820191906000526020600020905b815481529060010190602001808311610ff857829003601f168201915b5050505050815260200160078201805461102e906146ef565b80601f016020809104026020016040519081016040528092919081815260200182805461105a906146ef565b80156110a75780601f1061107c576101008083540402835291602001916110a7565b820191906000526020600020905b81548152906001019060200180831161108a57829003601f168201915b505050505081526020016008820154815250509050919050565b6000818152600e602052604090205460ff166110ef5760405162461bcd60e51b815260040161093290614729565b6000818152600a60205260409020600101546001600160a01b031633148061113557506000818152600a602052604090206005015461010090046001600160a01b031633145b6111815760405162461bcd60e51b815260206004820152601860248201527f4e6f7420617574686f72697a656420746f207265766f6b6500000000000000006044820152606401610932565b6000818152600a6020526040902060050154600160a81b900460ff16156111e15760405162461bcd60e51b815260206004820152601460248201527314db1bdd08185b1c9958591e481c995d9bdad95960621b6044820152606401610932565b6000818152600a6020526040902060020154611200906103849061476c565b421061125e5760405162461bcd60e51b815260206004820152602760248201527f43616e6e6f74207265766f6b652077697468696e203135206d696e75746573206044820152661bd9881cdb1bdd60ca1b6064820152608401610932565b6000818152600a60205260409020600501805460ff60a81b198116600160a81b1790915560ff16156112aa576000818152600a6020526040902060050180546001600160a81b03191690555b6000818152600a6020526040808220600581015460019091015491516101009091046001600160a01b039081169392169184917fd7bd96fdc1aac9b10ac77a82f6927fbd36ee1935c1a4383906d8a9c997c201f59190a450565b61130c61358d565b6007546040516001600160a01b03909116904780156108fc02916000818181858888f19350505050158015610c0a573d6000803e3d6000fd5b6109d3838383604051806020016040528060008152506125b9565b61136861358d565b60058111156113b95760405162461bcd60e51b815260206004820152601860248201527f526f79616c74792063616e6e6f742065786365656420352500000000000000006044820152606401610932565b601055565b6000818152600260205260408120546001600160a01b0316806107ff5760405162461bcd60e51b8152602060048201526018602482015277115490cdcc8c4e881a5b9d985b1a59081d1bdad95b88125160421b6044820152606401610932565b60006001600160a01b0382166114885760405162461bcd60e51b815260206004820152602960248201527f4552433732313a2061646472657373207a65726f206973206e6f7420612076616044820152683634b21037bbb732b960b91b6064820152608401610932565b506001600160a01b031660009081526003602052604090205490565b6114ac61358d565b6114b660006135e7565b565b6001600160a01b0381166000908152600c602090815260409182902080548351818402810184019094528084526060939283018282801561151857602002820191906000526020600020905b815481526020019060010190808311611504575b50505050509050919050565b61157560405180610120016040528060608152602001606081526020016060815260200160608152602001600081526020016000815260200160008152602001600081526020016000151581525090565b6001600160a01b0382166000908152600b602052604090206008015460ff166115d35760405162461bcd60e51b815260206004820152601060248201526f115e1c195c9d081b9bdd08199bdd5b9960821b6044820152606401610932565b6001600160a01b0382166000908152600b60205260409081902081516101208101909252805482908290611606906146ef565b80601f0160208091040260200160405190810160405280929190818152602001828054611632906146ef565b801561167f5780601f106116545761010080835404028352916020019161167f565b820191906000526020600020905b81548152906001019060200180831161166257829003601f168201915b50505050508152602001600182018054611698906146ef565b80601f01602080910402602001604051908101604052809291908181526020018280546116c4906146ef565b80156117115780601f106116e657610100808354040283529160200191611711565b820191906000526020600020905b8154815290600101906020018083116116f457829003601f168201915b5050505050815260200160028201805461172a906146ef565b80601f0160208091040260200160405190810160405280929190818152602001828054611756906146ef565b80156117a35780601f10611778576101008083540402835291602001916117a3565b820191906000526020600020905b81548152906001019060200180831161178657829003601f168201915b505050505081526020016003820180546117bc906146ef565b80601f01602080910402602001604051908101604052809291908181526020018280546117e8906146ef565b80156118355780601f1061180a57610100808354040283529160200191611835565b820191906000526020600020905b81548152906001019060200180831161181857829003601f168201915b50505091835250506004820154602082015260058201546040820152600682015460608201526007820154608082015260089091015460ff16151560a09091015292915050565b600a60205260009081526040902080546001820154600283015460038401546004850154600586015460068701805496976001600160a01b039687169795969495939460ff80851695610100860490921694600160a81b90041692906118e1906146ef565b80601f016020809104026020016040519081016040528092919081815260200182805461190d906146ef565b801561195a5780601f1061192f5761010080835404028352916020019161195a565b820191906000526020600020905b81548152906001019060200180831161193d57829003601f168201915b50505050509080600701805461196f906146ef565b80601f016020809104026020016040519081016040528092919081815260200182805461199b906146ef565b80156119e85780601f106119bd576101008083540402835291602001916119e8565b820191906000526020600020905b8154815290600101906020018083116119cb57829003601f168201915b505050505090806008015490508b565b336000908152600b602052604090206008015460ff1615611a545760405162461bcd60e51b815260206004820152601660248201527550726f66696c6520616c72656164792065786973747360501b6044820152606401610932565b604080516101208101825285815260208082018690528183018590526060820184905260006080830181905260a0830181905260c0830181905260e083018190526001610100840152338152600b9091529190912081518190611ab79082614870565b5060208201516001820190611acc9082614870565b5060408201516002820190611ae19082614870565b5060608201516003820190611af69082614870565b506080820151600482015560a0820151600582015560c0820151600682015560e08201516007820155610100909101516008909101805460ff191691151591909117905560405133907fe09d1c36395d1bf4d1d4cfb74336c3d28296f86359479d0534081c044a2987db90611b6e9087908790614930565b60405180910390a250505050565b606060018054610814906146ef565b611b96338383613639565b5050565b60005b8151811015611b9657600e6000838381518110611bbc57611bbc61495e565b60209081029190910181015182528101919091526040016000205460ff168015611c035750611c03828281518110611bf657611bf661495e565b6020026020010151610c0d565b15611c9c576000600a6000848481518110611c2057611c2061495e565b602090810291909101810151825281019190915260400160002060058101805460ff60a81b1916600160a81b1790558351909150839083908110611c6657611c6661495e565b60200260200101517f98f6352fdccebadb71e5f46edfec4b893d02ccc29c2f690c8e856d22189a599c60405160405180910390a2505b80611ca6816147c4565b915050611b9d565b611cb661358d565b600a811115611cff5760405162461bcd60e51b81526020600482015260156024820152744665652063616e6e6f74206578636565642031302560581b6044820152606401610932565b600f55565b336000908152600b602052604090206008015460ff16611d605760405162461bcd60e51b8152602060048201526017602482015276139bdd0818481c9959da5cdd195c995908195e1c195c9d604a1b6044820152606401610932565b83518551148015611d72575082518451145b8015611d7f575081518351145b8015611d8c575080518251145b611dd15760405162461bcd60e51b8152602060048201526016602482015275082e4e4c2f2e640d8cadccee8d040dad2e6dac2e8c6d60531b6044820152606401610932565b600a85511115611e345760405162461bcd60e51b815260206004820152602860248201527f43616e6e6f7420637265617465206d6f7265207468616e20313020736c6f7473604482015267206174206f6e636560c01b6064820152608401610932565b60005b85518110156123475742868281518110611e5357611e5361495e565b602002602001015111611ea85760405162461bcd60e51b815260206004820152601c60248201527f53746172742074696d65206d75737420626520696e20667574757265000000006044820152606401610932565b858181518110611eba57611eba61495e565b6020026020010151858281518110611ed457611ed461495e565b602002602001015111611ef95760405162461bcd60e51b815260040161093290614974565b613840868281518110611f0e57611f0e61495e565b6020026020010151868381518110611f2857611f2861495e565b6020026020010151611f3a919061476c565b1115611f585760405162461bcd60e51b8152600401610932906149b5565b611f654262093a806149f8565b868281518110611f7757611f7761495e565b60200260200101511115611f9d5760405162461bcd60e51b815260040161093290614a0b565b6000848281518110611fb157611fb161495e565b6020026020010151116120065760405162461bcd60e51b815260206004820152601c60248201527f5072696365206d7573742062652067726561746572207468616e2030000000006044820152606401610932565b612014600980546001019055565b600061201f60095490565b9050604051806101600160405280828152602001336001600160a01b031681526020018884815181106120545761205461495e565b602002602001015181526020018784815181106120735761207361495e565b602002602001015181526020018684815181106120925761209261495e565b6020026020010151815260200160001515815260200160006001600160a01b031681526020016000151581526020018584815181106120d3576120d361495e565b602002602001015181526020018484815181106120f2576120f261495e565b602090810291909101810151825242918101919091526000838152600a825260409081902083518155918301516001830180546001600160a01b0319166001600160a01b03928316179055908301516002830155606083015160038301556080830151600483015560a083015160058301805460c086015160e08701516001600160a81b0319909216931515610100600160a81b031916939093176101009390941683029390931760ff60a81b1916600160a81b931515939093029290921790915582015160068201906121c69082614870565b5061012082015160078201906121dc9082614870565b506101409190910151600890910155336000818152600c60209081526040808320805460018101825590845282842001859055928252600b9052908120600401805491612228836147c4565b90915550506000818152600e60205260409020805460ff191660011790556122503382613707565b600061225b82613892565b60405160200161226b9190614a4c565b60405160208183030381529060405290506122868282613925565b336001600160a01b0316827f5038550aad37175ea4217a214663c5f62ea4962e4ffd594300e66d7029641b598a86815181106122c4576122c461495e565b60200260200101518a87815181106122de576122de61495e565b60200260200101518a88815181106122f8576122f861495e565b60200260200101518a89815181106123125761231261495e565b602002602001015160405161232a9493929190614aa3565b60405180910390a35050808061233f906147c4565b915050611e37565b505050505050565b600b6020526000908152604090208054819061236a906146ef565b80601f0160208091040260200160405190810160405280929190818152602001828054612396906146ef565b80156123e35780601f106123b8576101008083540402835291602001916123e3565b820191906000526020600020905b8154815290600101906020018083116123c657829003601f168201915b5050505050908060010180546123f8906146ef565b80601f0160208091040260200160405190810160405280929190818152602001828054612424906146ef565b80156124715780601f1061244657610100808354040283529160200191612471565b820191906000526020600020905b81548152906001019060200180831161245457829003601f168201915b505050505090806002018054612486906146ef565b80601f01602080910402602001604051908101604052809291908181526020018280546124b2906146ef565b80156124ff5780601f106124d4576101008083540402835291602001916124ff565b820191906000526020600020905b8154815290600101906020018083116124e257829003601f168201915b505050505090806003018054612514906146ef565b80601f0160208091040260200160405190810160405280929190818152602001828054612540906146ef565b801561258d5780601f106125625761010080835404028352916020019161258d565b820191906000526020600020905b81548152906001019060200180831161257057829003601f168201915b505050600484015460058501546006860154600787015460089097015495969295919450925060ff1689565b6125c3338361352e565b6125df5760405162461bcd60e51b8152600401610932906147dd565b6125eb848484846139f0565b50505050565b336000908152600b602052604090206008015460ff1661264d5760405162461bcd60e51b8152602060048201526017602482015276139bdd0818481c9959da5cdd195c995908195e1c195c9d604a1b6044820152606401610932565b848442821161269e5760405162461bcd60e51b815260206004820152601c60248201527f53746172742074696d65206d75737420626520696e20667574757265000000006044820152606401610932565b8181116126bd5760405162461bcd60e51b815260040161093290614974565b6138406126ca838361476c565b11156126e85760405162461bcd60e51b8152600401610932906149b5565b6126f54262093a806149f8565b8211156127145760405162461bcd60e51b815260040161093290614a0b565b600085116127645760405162461bcd60e51b815260206004820152601c60248201527f5072696365206d7573742062652067726561746572207468616e2030000000006044820152606401610932565b612772600980546001019055565b600061277d60095490565b9050604051806101600160405280828152602001336001600160a01b0316815260200189815260200188815260200187815260200160001515815260200160006001600160a01b0316815260200160001515815260200186815260200185815260200142815250600a60008381526020019081526020016000206000820151816000015560208201518160010160006101000a8154816001600160a01b0302191690836001600160a01b0316021790555060408201518160020155606082015181600301556080820151816004015560a08201518160050160006101000a81548160ff02191690831515021790555060c08201518160050160016101000a8154816001600160a01b0302191690836001600160a01b0316021790555060e08201518160050160156101000a81548160ff0219169083151502179055506101008201518160060190816128cf9190614870565b5061012082015160078201906128e59082614870565b506101409190910151600890910155336000818152600c60209081526040808320805460018101825590845282842001859055928252600b9052908120600401805491612931836147c4565b90915550506000818152600e60205260409020805460ff191660011790556129593382613707565b600061296482613892565b6040516020016129749190614a4c565b604051602081830303815290604052905061298f8282613925565b336001600160a01b0316827f5038550aad37175ea4217a214663c5f62ea4962e4ffd594300e66d7029641b598b8b8b8b6040516129cf9493929190614aa3565b60405180910390a3505050505050505050565b6000828152600e602052604090205460ff16612a105760405162461bcd60e51b815260040161093290614729565b33612a1a836113be565b6001600160a01b031614612a705760405162461bcd60e51b815260206004820152601a60248201527f4e6f7420746865206f776e6572206f66207468697320736c6f740000000000006044820152606401610932565b6000828152600a602052604090206005015460ff16612ac35760405162461bcd60e51b815260206004820152600f60248201526e14db1bdd081b9bdd08189bdbdad959608a1b6044820152606401610932565b6000828152600a6020526040902060040154811115612b1c5760405162461bcd60e51b815260206004820152601560248201527443616e6e6f7420696e63726561736520707269636560581b6044820152606401610932565b6000828152600a6020526040902060020154612b3b906107089061476c565b4210612b995760405162461bcd60e51b815260206004820152602760248201527f43616e6e6f7420726573656c6c2077697468696e203330206d696e75746573206044820152661bd9881cdb1bdd60ca1b6064820152608401610932565b6000918252600a6020526040909120600481019190915560050180546001600160a81b0319169055565b60606107ff82613a23565b6000818152600e602052604090205460ff16612bfc5760405162461bcd60e51b815260040161093290614729565b6000818152600a602052604090206005015460ff16612c4f5760405162461bcd60e51b815260206004820152600f60248201526e14db1bdd081b9bdd08189bdbdad959608a1b6044820152606401610932565b6000818152600a6020526040902060020154421015610c0a5760405162461bcd60e51b815260206004820152601b60248201527f4170706f696e746d656e74206e6f7420737461727465642079657400000000006044820152606401610932565b600c6020528160005260406000208181548110612ccc57600080fd5b90600052602060002001600091509150505481565b600d6020528160005260406000208181548110612ccc57600080fd5b6001600160a01b03918216600090815260056020908152604080832093909416825291909152205460ff1690565b612d33613371565b6000818152600e602052604090205460ff16612d615760405162461bcd60e51b815260040161093290614729565b6000818152600a602052604090206005015460ff1615612db95760405162461bcd60e51b815260206004820152601360248201527214db1bdd08185b1c9958591e48189bdbdad959606a1b6044820152606401610932565b6000818152600a6020526040902060050154600160a81b900460ff1615612e1a5760405162461bcd60e51b815260206004820152601560248201527414db1bdd081a185cc81899595b881c995d9bdad959605a1b6044820152606401610932565b6000818152600a6020526040902060040154341015612e725760405162461bcd60e51b8152602060048201526014602482015273125b9cdd59999a58da595b9d081c185e5b595b9d60621b6044820152606401610932565b6000818152600a6020526040902060020154612e91906103849061476c565b4210612eaf5760405162461bcd60e51b81526004016109329061477f565b6000612eba826113be565b600f546000848152600a602052604081206004015492935091606491612edf91614ad2565b612ee99190614ae9565b6010546000858152600a602052604081206004015492935091606491612f0e91614ad2565b612f189190614ae9565b6000858152600a6020526040812060040154919250908290612f3b90859061476c565b612f45919061476c565b6000868152600a60209081526040808320600580820180543361010081026001600160a81b03199092169190911760019081179092558652600d855283862080548083018255908752858720018c905591909101546001600160a01b03168452600b909252822001805492935090612fbc836147c4565b90915550506011546040516001600160a01b039091169084156108fc029085906000818181858888f19350505050158015612ffb573d6000803e3d6000fd5b506000858152600a60205260408082206001015490516001600160a01b039091169184156108fc02918591818181858888f19350505050158015613043573d6000803e3d6000fd5b506040516001600160a01b0385169082156108fc029083906000818181858888f1935050505015801561307a573d6000803e3d6000fd5b506130868433876133ca565b336001600160a01b0316846001600160a01b0316867f68211e9414aefb2c73a3ab8647d8363fab968af2b8a6795b4ea4aea2675e0759600a60008a8152602001908152602001600020600401546040516130e291815260200190565b60405180910390a450505050610c0a6001600855565b6001600160a01b0381166000908152600d602090815260409182902080548351818402810184019094528084526060939283018282801561151857602002820191906000526020600020908154815260200190600101908083116115045750505050509050919050565b61316a61358d565b6001600160a01b0381166131cf5760405162461bcd60e51b815260206004820152602660248201527f4f776e61626c653a206e6577206f776e657220697320746865207a65726f206160448201526564647265737360d01b6064820152608401610932565b610c0a816135e7565b6131e181610c0d565b61322d5760405162461bcd60e51b815260206004820152601c60248201527f4e6f7420656c696769626c6520666f72206175746f2d7265766f6b65000000006044820152606401610932565b6000818152600a602052604080822060058101805460ff60a81b1916600160a81b1790559051909183917f98f6352fdccebadb71e5f46edfec4b893d02ccc29c2f690c8e856d22189a599c9190a25050565b60006001600160e01b03198216632483248360e11b14806107ff57506107ff82613b2b565b6000818152600260205260409020546001600160a01b0316610c0a5760405162461bcd60e51b8152602060048201526018602482015277115490cdcc8c4e881a5b9d985b1a59081d1bdad95b88125160421b6044820152606401610932565b600081815260046020526040902080546001600160a01b0319166001600160a01b0384169081179091558190613338826113be565b6001600160a01b03167f8c5be1e5ebec7d5bd14f71427d1e84f3dd0314c0f7b2291e5b200ac8c7c3b92560405160405180910390a45050565b6002600854036133c35760405162461bcd60e51b815260206004820152601f60248201527f5265656e7472616e637947756172643a207265656e7472616e742063616c6c006044820152606401610932565b6002600855565b826001600160a01b03166133dd826113be565b6001600160a01b0316146134035760405162461bcd60e51b815260040161093290614b0b565b6001600160a01b0382166134655760405162461bcd60e51b8152602060048201526024808201527f4552433732313a207472616e7366657220746f20746865207a65726f206164646044820152637265737360e01b6064820152608401610932565b826001600160a01b0316613478826113be565b6001600160a01b03161461349e5760405162461bcd60e51b815260040161093290614b0b565b600081815260046020908152604080832080546001600160a01b03199081169091556001600160a01b0387811680865260038552838620805460001901905590871680865283862080546001019055868652600290945282852080549092168417909155905184937fddf252ad1be2c89b69c2b068fc378daa952ba7f163c4a11628f55a4df523b3ef91a4505050565b60008061353a836113be565b9050806001600160a01b0316846001600160a01b0316148061356157506135618185612cfd565b806135855750836001600160a01b031661357a84610897565b6001600160a01b0316145b949350505050565b6007546001600160a01b031633146114b65760405162461bcd60e51b815260206004820181905260248201527f4f776e61626c653a2063616c6c6572206973206e6f7420746865206f776e65726044820152606401610932565b600780546001600160a01b038381166001600160a01b0319831681179093556040519116919082907f8be0079c531659141344cd1fd0a4f28419497f9722a3daafe3b4186f6b6457e090600090a35050565b816001600160a01b0316836001600160a01b03160361369a5760405162461bcd60e51b815260206004820152601960248201527f4552433732313a20617070726f766520746f2063616c6c6572000000000000006044820152606401610932565b6001600160a01b03838116600081815260056020908152604080832094871680845294825291829020805460ff191686151590811790915591519182527f17307eab39ab6107e8899845ad3d59bd9653f200f220920489ca2b5937696c31910160405180910390a3505050565b6001600160a01b03821661375d5760405162461bcd60e51b815260206004820181905260248201527f4552433732313a206d696e7420746f20746865207a65726f20616464726573736044820152606401610932565b6000818152600260205260409020546001600160a01b0316156137c25760405162461bcd60e51b815260206004820152601c60248201527f4552433732313a20746f6b656e20616c7265616479206d696e746564000000006044820152606401610932565b6000818152600260205260409020546001600160a01b0316156138275760405162461bcd60e51b815260206004820152601c60248201527f4552433732313a20746f6b656e20616c7265616479206d696e746564000000006044820152606401610932565b6001600160a01b038216600081815260036020908152604080832080546001019055848352600290915280822080546001600160a01b0319168417905551839291907fddf252ad1be2c89b69c2b068fc378daa952ba7f163c4a11628f55a4df523b3ef908290a45050565b6060600061389f83613b7b565b600101905060008167ffffffffffffffff8111156138bf576138bf614178565b6040519080825280601f01601f1916602001820160405280156138e9576020820181803683370190505b5090508181016020015b600019016f181899199a1a9b1b9c1cb0b131b232b360811b600a86061a8153600a85049450846138f357509392505050565b6000828152600260205260409020546001600160a01b03166139a05760405162461bcd60e51b815260206004820152602e60248201527f45524337323155524953746f726167653a2055524920736574206f66206e6f6e60448201526d32bc34b9ba32b73a103a37b5b2b760911b6064820152608401610932565b60008281526006602052604090206139b88282614870565b506040518281527ff8e1a15aba9398e019f0b49df1a4fde98ee17ae345cb5f6b5e2c27f5033e8ce79060200160405180910390a15050565b6139fb8484846133ca565b613a0784848484613c53565b6125eb5760405162461bcd60e51b815260040161093290614b50565b6060613a2e826132a4565b60008281526006602052604081208054613a47906146ef565b80601f0160208091040260200160405190810160405280929190818152602001828054613a73906146ef565b8015613ac05780601f10613a9557610100808354040283529160200191613ac0565b820191906000526020600020905b815481529060010190602001808311613aa357829003601f168201915b505050505090506000613ade60408051602081019091526000815290565b90508051600003613af0575092915050565b815115613b22578082604051602001613b0a929190614ba2565b60405160208183030381529060405292505050919050565b61358584613d54565b60006001600160e01b031982166380ac58cd60e01b1480613b5c57506001600160e01b03198216635b5e139f60e01b145b806107ff57506301ffc9a760e01b6001600160e01b03198316146107ff565b60008072184f03e93ff9f4daa797ed6e38ed64bf6a1f0160401b8310613bba5772184f03e93ff9f4daa797ed6e38ed64bf6a1f0160401b830492506040015b6d04ee2d6d415b85acef81000000008310613be6576d04ee2d6d415b85acef8100000000830492506020015b662386f26fc100008310613c0457662386f26fc10000830492506010015b6305f5e1008310613c1c576305f5e100830492506008015b6127108310613c3057612710830492506004015b60648310613c42576064830492506002015b600a83106107ff5760010192915050565b60006001600160a01b0384163b15613d4957604051630a85bd0160e11b81526001600160a01b0385169063150b7a0290613c97903390899088908890600401614bd1565b6020604051808303816000875af1925050508015613cd2575060408051601f3d908101601f19168201909252613ccf91810190614c04565b60015b613d2f573d808015613d00576040519150601f19603f3d011682016040523d82523d6000602084013e613d05565b606091505b508051600003613d275760405162461bcd60e51b815260040161093290614b50565b805181602001fd5b6001600160e01b031916630a85bd0160e11b149050613585565b506001949350505050565b6060613d5f826132a4565b6000613d7660408051602081019091526000815290565b90506000815111613d965760405180602001604052806000815250613dc1565b80613da084613892565b604051602001613db1929190614ba2565b6040516020818303038152906040525b9392505050565b6001600160e01b031981168114610c0a57600080fd5b600060208284031215613df057600080fd5b8135613dc181613dc8565b60005b83811015613e16578181015183820152602001613dfe565b50506000910152565b60008151808452613e37816020860160208601613dfb565b601f01601f19169290920160200192915050565b602081526000613dc16020830184613e1f565b600060208284031215613e7057600080fd5b5035919050565b80356001600160a01b0381168114613e8e57600080fd5b919050565b60008060408385031215613ea657600080fd5b613eaf83613e77565b946020939093013593505050565b600080600060608486031215613ed257600080fd5b613edb84613e77565b9250613ee960208501613e77565b9150604084013590509250925092565b602081528151602082015260006020830151613f2060408401826001600160a01b03169052565b506040830151606083015260608301516080830152608083015160a083015260a0830151613f5260c084018215159052565b5060c08301516001600160a01b03811660e08401525060e0830151610100613f7d8185018315159052565b808501519150506101606101208181860152613f9d610180860184613e1f565b9250808601519050610140601f198685030181870152613fbd8483613e1f565b9601519190940152509192915050565b600060208284031215613fdf57600080fd5b613dc182613e77565b6020808252825182820181905260009190848201906040850190845b8181101561402057835183529284019291840191600101614004565b50909695505050505050565b602081526000825161012080602085015261404b610140850183613e1f565b91506020850151601f19808685030160408701526140698483613e1f565b935060408701519150808685030160608701526140868483613e1f565b93506060870151915080868503016080870152506140a48382613e1f565b925050608085015160a085015260a085015160c085015260c085015160e085015260e08501516101008181870152808701519150506140e68286018215159052565b5090949350505050565b8b81526001600160a01b038b81166020830152604082018b9052606082018a90526080820189905287151560a0830152861660c082015284151560e0820152610160610100820181905260009061414983820187613e1f565b905082810361012084015261415e8186613e1f565b915050826101408301529c9b505050505050505050505050565b634e487b7160e01b600052604160045260246000fd5b604051601f8201601f1916810167ffffffffffffffff811182821017156141b7576141b7614178565b604052919050565b600067ffffffffffffffff8311156141d9576141d9614178565b6141ec601f8401601f191660200161418e565b905082815283838301111561420057600080fd5b828260208301376000602084830101529392505050565b600082601f83011261422857600080fd5b613dc1838335602085016141bf565b6000806000806080858703121561424d57600080fd5b843567ffffffffffffffff8082111561426557600080fd5b61427188838901614217565b9550602087013591508082111561428757600080fd5b61429388838901614217565b945060408701359150808211156142a957600080fd5b6142b588838901614217565b935060608701359150808211156142cb57600080fd5b506142d887828801614217565b91505092959194509250565b600080604083850312156142f757600080fd5b61430083613e77565b91506020830135801515811461431557600080fd5b809150509250929050565b600067ffffffffffffffff82111561433a5761433a614178565b5060051b60200190565b600082601f83011261435557600080fd5b8135602061436a61436583614320565b61418e565b82815260059290921b8401810191818101908684111561438957600080fd5b8286015b848110156143a4578035835291830191830161438d565b509695505050505050565b6000602082840312156143c157600080fd5b813567ffffffffffffffff8111156143d857600080fd5b61358584828501614344565b600082601f8301126143f557600080fd5b8135602061440561436583614320565b82815260059290921b8401810191818101908684111561442457600080fd5b8286015b848110156143a457803567ffffffffffffffff8111156144485760008081fd5b6144568986838b0101614217565b845250918301918301614428565b600080600080600060a0868803121561447c57600080fd5b853567ffffffffffffffff8082111561449457600080fd5b6144a089838a01614344565b965060208801359150808211156144b657600080fd5b6144c289838a01614344565b955060408801359150808211156144d857600080fd5b6144e489838a01614344565b945060608801359150808211156144fa57600080fd5b61450689838a016143e4565b9350608088013591508082111561451c57600080fd5b50614529888289016143e4565b9150509295509295909350565b600061012080835261454a8184018d613e1f565b9050828103602084015261455e818c613e1f565b90508281036040840152614572818b613e1f565b90508281036060840152614586818a613e1f565b6080840198909852505060a081019490945260c084019290925260e0830152151561010090910152949350505050565b600080600080608085870312156145cc57600080fd5b6145d585613e77565b93506145e360208601613e77565b925060408501359150606085013567ffffffffffffffff81111561460657600080fd5b8501601f8101871361461757600080fd5b6142d8878235602084016141bf565b600080600080600060a0868803121561463e57600080fd5b853594506020860135935060408601359250606086013567ffffffffffffffff8082111561466b57600080fd5b61467789838a01614217565b9350608088013591508082111561468d57600080fd5b5061452988828901614217565b600080604083850312156146ad57600080fd5b50508035926020909101359150565b600080604083850312156146cf57600080fd5b6146d883613e77565b91506146e660208401613e77565b90509250929050565b600181811c9082168061470357607f821691505b60208210810361472357634e487b7160e01b600052602260045260246000fd5b50919050565b60208082526013908201527214db1bdd08191bd95cc81b9bdd08195e1a5cdd606a1b604082015260600190565b634e487b7160e01b600052601160045260246000fd5b818103818111156107ff576107ff614756565b60208082526025908201527f43616e6e6f7420626f6f6b2077697468696e203135206d696e75746573206f66604082015264081cdb1bdd60da1b606082015260800190565b6000600182016147d6576147d6614756565b5060010190565b6020808252602d908201527f4552433732313a2063616c6c6572206973206e6f7420746f6b656e206f776e6560408201526c1c881bdc88185c1c1c9bdd9959609a1b606082015260800190565b601f8211156109d357600081815260208120601f850160051c810160208610156148515750805b601f850160051c820191505b818110156123475782815560010161485d565b815167ffffffffffffffff81111561488a5761488a614178565b61489e8161489884546146ef565b8461482a565b602080601f8311600181146148d357600084156148bb5750858301515b600019600386901b1c1916600185901b178555612347565b600085815260208120601f198616915b82811015614902578886015182559484019460019091019084016148e3565b50858210156149205787850151600019600388901b60f8161c191681555b5050505050600190811b01905550565b6040815260006149436040830185613e1f565b82810360208401526149558185613e1f565b95945050505050565b634e487b7160e01b600052603260045260246000fd5b60208082526021908201527f456e642074696d65206d7573742062652061667465722073746172742074696d6040820152606560f81b606082015260800190565b60208082526023908201527f536c6f74206475726174696f6e2063616e6e6f7420657863656564203420686f60408201526275727360e81b606082015260800190565b808201808211156107ff576107ff614756565b60208082526021908201527f43616e6e6f742063726561746520736c6f7473206265796f6e642037206461796040820152607360f81b606082015260800190565b7f68747470733a2f2f6170692e6c656467657273656e74696e656c732e636f6d2f8152686d657461646174612f60b81b602082015260008251614a96816029850160208701613dfb565b9190910160290192915050565b848152836020820152826040820152608060608201526000614ac86080830184613e1f565b9695505050505050565b80820281158282048414176107ff576107ff614756565b600082614b0657634e487b7160e01b600052601260045260246000fd5b500490565b60208082526025908201527f4552433732313a207472616e736665722066726f6d20696e636f72726563742060408201526437bbb732b960d91b606082015260800190565b60208082526032908201527f4552433732313a207472616e7366657220746f206e6f6e20455243373231526560408201527131b2b4bb32b91034b6b83632b6b2b73a32b960711b606082015260800190565b60008351614bb4818460208801613dfb565b835190830190614bc8818360208801613dfb565b01949350505050565b6001600160a01b0385811682528416602082015260408101839052608060608201819052600090614ac890830184613e1f565b600060208284031215614c1657600080fd5b8151613dc181613dc856fea264697066735822122008655d024402727c8573b9338cc203839c4a5a504c19f4555f343fa422914bcd64736f6c63430008130033608060405260026007553480156200001657600080fd5b50604051620024d3380380620024d38339810160408190526200003991620000ea565b600160005562000049336200007b565b600280546001600160a01b039384166001600160a01b0319918216179091556008805492909316911617905562000122565b600180546001600160a01b038381166001600160a01b0319831681179093556040519116919082907f8be0079c531659141344cd1fd0a4f28419497f9722a3daafe3b4186f6b6457e090600090a35050565b80516001600160a01b0381168114620000e557600080fd5b919050565b60008060408385031215620000fe57600080fd5b6200010983620000cd565b91506200011960208401620000cd565b90509250929050565b6123a180620001326000396000f3fe60806040526004361061014b5760003560e01c8063883efa67116100b6578063db2e21bc1161006f578063db2e21bc1461040e578063de74e57b14610423578063e7fb74c7146104eb578063eb18a9d8146104fe578063f160d3691461051e578063f2fde38b1461053e57600080fd5b8063883efa671461035d5780638da5cb5b1461037d57806396ec50c31461039b5780639979ef45146103bb578063b2a4401b146103ce578063b9a2de3a146103ee57600080fd5b80635f93de49116101085780635f93de49146102695780636759789f146102ae57806370b4768e146102db578063715018a6146103085780637309d7791461031d57806386cfa7d31461033d57600080fd5b80631006163114610150578063107a274a14610172578063150b7a02146101a857806330eb80cd146101ed57806338d73b0d1461020d5780634690484014610231575b600080fd5b34801561015c57600080fd5b5061017061016b366004611d7d565b61055e565b005b34801561017e57600080fd5b5061019261018d366004611d7d565b61077a565b60405161019f9190611d96565b60405180910390f35b3480156101b457600080fd5b506101d46101c3366004611e33565b630a85bd0160e11b95945050505050565b6040516001600160e01b0319909116815260200161019f565b3480156101f957600080fd5b50610170610208366004611d7d565b61086d565b34801561021957600080fd5b5061022360075481565b60405190815260200161019f565b34801561023d57600080fd5b50600854610251906001600160a01b031681565b6040516001600160a01b03909116815260200161019f565b34801561027557600080fd5b50610289610284366004611ed2565b6108c2565b604080516001600160a01b03909416845260208401929092529082015260600161019f565b3480156102ba57600080fd5b506102ce6102c9366004611ef4565b61090e565b60405161019f9190611f18565b3480156102e757600080fd5b506102fb6102f6366004611d7d565b61097a565b60405161019f9190611f5c565b34801561031457600080fd5b50610170610a0f565b34801561032957600080fd5b50610170610338366004611fbe565b610a23565b34801561034957600080fd5b50610223610358366004611fea565b610e83565b34801561036957600080fd5b50610170610378366004611ed2565b610eb4565b34801561038957600080fd5b506001546001600160a01b0316610251565b3480156103a757600080fd5b506102236103b6366004611fea565b611295565b6101706103c9366004611d7d565b6112b1565b3480156103da57600080fd5b50600254610251906001600160a01b031681565b3480156103fa57600080fd5b50610170610409366004611d7d565b61155b565b34801561041a57600080fd5b50610170611778565b34801561042f57600080fd5b5061049d61043e366004611d7d565b600360208190526000918252604090912080546001820154600283015493830154600484015460058501546006860154600787015460089097015495976001600160a01b0395861697909660ff95861696949590931693919290911689565b60408051998a526001600160a01b0398891660208b015289019690965293151560608801526080870192909252151560a086015260c085015260e0840152166101008201526101200161019f565b6101706104f9366004611d7d565b6117b9565b34801561050a57600080fd5b506102ce610519366004611ef4565b611968565b34801561052a57600080fd5b50610170610539366004611ef4565b6119d2565b34801561054a57600080fd5b50610170610559366004611ef4565b611a44565b60008181526003602081905260409091200154819060ff1661059b5760405162461bcd60e51b815260040161059290612016565b60405180910390fd5b600082815260036020526040902060018101546001600160a01b031633146105f65760405162461bcd60e51b815260206004820152600e60248201526d2737ba103a34329039b2b63632b960911b6044820152606401610592565b600581015460ff16158061060d5750806006015442105b6106595760405162461bcd60e51b815260206004820152601b60248201527f43616e6e6f742064656c69737420656e6465642061756374696f6e00000000006044820152606401610592565b600581015460ff168015610679575060088101546001600160a01b031615155b156106c057600881015460078201546040516001600160a01b039092169181156108fc0291906000818181858888f193505050501580156106be573d6000803e3d6000fd5b505b60038101805460ff191690556002546001820154604051632142170760e11b81526001600160a01b03928316926342842e0e92610707923092909116908890600401612046565b600060405180830381600087803b15801561072157600080fd5b505af1158015610735573d6000803e3d6000fd5b50505060018201546040516001600160a01b03909116915084907fcd69f8512d5dbb6c8101e48b86eee5edf783a51bc5e597bc5c832971e40fc91390600090a3505050565b6107df6040518061012001604052806000815260200160006001600160a01b031681526020016000815260200160001515815260200160008152602001600015158152602001600081526020016000815260200160006001600160a01b031681525090565b506000908152600360208181526040928390208351610120810185528154815260018201546001600160a01b03908116938201939093526002820154948101949094529182015460ff9081161515606085015260048301546080850152600583015416151560a0840152600682015460c0840152600782015460e08401526008909101541661010082015290565b610875611aba565b60058111156108bd5760405162461bcd60e51b81526020600482015260146024820152734665652063616e6e6f742065786365656420352560601b6044820152606401610592565b600755565b600460205281600052604060002081815481106108de57600080fd5b60009182526020909120600390910201805460018201546002909201546001600160a01b03909116935090915083565b6001600160a01b03811660009081526006602090815260409182902080548351818402810184019094528084526060939283018282801561096e57602002820191906000526020600020905b81548152602001906001019080831161095a575b50505050509050919050565b606060046000838152602001908152602001600020805480602002602001604051908101604052809291908181526020016000905b82821015610a04576000848152602090819020604080516060810182526003860290920180546001600160a01b03168352600180820154848601526002909101549183019190915290835290920191016109af565b505050509050919050565b610a17611aba565b610a216000611b14565b565b6002546040516331a9108f60e11b815260048101859052849133916001600160a01b0390911690636352211e90602401602060405180830381865afa158015610a70573d6000803e3d6000fd5b505050506040513d601f19601f82011682018060405250810190610a94919061207a565b6001600160a01b031614610adc5760405162461bcd60e51b815260206004820152600f60248201526e2737ba103a37b5b2b71037bbb732b960891b6044820152606401610592565b60008311610b3a5760405162461bcd60e51b815260206004820152602560248201527f5374617274696e67207072696365206d75737420626520677265617465722074604482015264068616e20360dc1b6064820152608401610592565b610e108210158015610b4f575062093a808211155b610b9b5760405162461bcd60e51b815260206004820152601860248201527f496e76616c69642061756374696f6e206475726174696f6e00000000000000006044820152606401610592565b6000848152600360208190526040909120015460ff1615610bef5760405162461bcd60e51b815260206004820152600e60248201526d105b1c9958591e481b1a5cdd195960921b6044820152606401610592565b600080610bfb86611b66565b9150915081158015610c0b575080155b610c275760405162461bcd60e51b815260040161059290612097565b6000610c3385426120ef565b9050604051806101200160405280888152602001336001600160a01b031681526020018781526020016001151581526020014281526020016001151581526020018281526020016000815260200160006001600160a01b0316815250600360008981526020019081526020016000206000820151816000015560208201518160010160006101000a8154816001600160a01b0302191690836001600160a01b031602179055506040820151816002015560608201518160030160006101000a81548160ff0219169083151502179055506080820151816004015560a08201518160050160006101000a81548160ff02191690831515021790555060c0820151816006015560e082015181600701556101008201518160080160006101000a8154816001600160a01b0302191690836001600160a01b0316021790555090505060056000336001600160a01b03166001600160a01b03168152602001908152602001600020879080600181540180825580915050600190039060005260206000200160009091909190915055600260009054906101000a90046001600160a01b03166001600160a01b03166342842e0e33308a6040518463ffffffff1660e01b8152600401610e0393929190612046565b600060405180830381600087803b158015610e1d57600080fd5b505af1158015610e31573d6000803e3d6000fd5b505060408051898152600160208201529081018490523392508991507fe6ab21b2a83da025cd3cf0447b97c61c4fba73debef8290fd378364c9110e0809060600160405180910390a350505050505050565b60056020528160005260406000208181548110610e9f57600080fd5b90600052602060002001600091509150505481565b6002546040516331a9108f60e11b815260048101849052839133916001600160a01b0390911690636352211e90602401602060405180830381865afa158015610f01573d6000803e3d6000fd5b505050506040513d601f19601f82011682018060405250810190610f25919061207a565b6001600160a01b031614610f6d5760405162461bcd60e51b815260206004820152600f60248201526e2737ba103a37b5b2b71037bbb732b960891b6044820152606401610592565b60008211610fbd5760405162461bcd60e51b815260206004820152601c60248201527f5072696365206d7573742062652067726561746572207468616e2030000000006044820152606401610592565b6000838152600360208190526040909120015460ff16156110115760405162461bcd60e51b815260206004820152600e60248201526d105b1c9958591e481b1a5cdd195960921b6044820152606401610592565b60008061101d85611b66565b915091508115801561102d575080155b6110495760405162461bcd60e51b815260040161059290612097565b604051806101200160405280868152602001336001600160a01b03168152602001858152602001600115158152602001428152602001600015158152602001600081526020016000815260200160006001600160a01b0316815250600360008781526020019081526020016000206000820151816000015560208201518160010160006101000a8154816001600160a01b0302191690836001600160a01b031602179055506040820151816002015560608201518160030160006101000a81548160ff0219169083151502179055506080820151816004015560a08201518160050160006101000a81548160ff02191690831515021790555060c0820151816006015560e082015181600701556101008201518160080160006101000a8154816001600160a01b0302191690836001600160a01b0316021790555090505060056000336001600160a01b03166001600160a01b03168152602001908152602001600020859080600181540180825580915050600190039060005260206000200160009091909190915055600260009054906101000a90046001600160a01b03166001600160a01b03166342842e0e3330886040518463ffffffff1660e01b815260040161121893929190612046565b600060405180830381600087803b15801561123257600080fd5b505af1158015611246573d6000803e3d6000fd5b5050604080518781526000602082018190528183015290513393508892507fe6ab21b2a83da025cd3cf0447b97c61c4fba73debef8290fd378364c9110e0809181900360600190a35050505050565b60066020528160005260406000208181548110610e9f57600080fd5b6112b9611bf8565b60008181526003602081905260409091200154819060ff166112ed5760405162461bcd60e51b815260040161059290612016565b6000828152600360205260409020600581015460ff166113485760405162461bcd60e51b815260206004820152601660248201527524ba32b69034b9903737ba1034b71030bab1ba34b7b760511b6044820152606401610592565b8060060154421061138b5760405162461bcd60e51b815260206004820152600d60248201526c105d58dd1a5bdb88195b991959609a1b6044820152606401610592565b806007015434116113cc5760405162461bcd60e51b815260206004820152600b60248201526a42696420746f6f206c6f7760a81b6044820152606401610592565b80600201543410156114205760405162461bcd60e51b815260206004820152601860248201527f4269642062656c6f77207374617274696e6720707269636500000000000000006044820152606401610592565b60088101546001600160a01b03161561147557600881015460078201546040516001600160a01b039092169181156108fc0291906000818181858888f19350505050158015611473573d6000803e3d6000fd5b505b3460078201819055600882018054336001600160a01b0319918216811790925560008681526004602090815260408083208151606081018352868152808401888152428285019081528354600181810186559488528688209351600390910290930180549098166001600160a01b03909316929092178755518683015551600290950194909455848352600682528083208054948501815583529181902090920187905551928352909185917f0e54eff26401bf69b81b26f60bd85ef47f5d85275c1d268d84f68d6897431c47910160405180910390a350506115586001600055565b50565b611563611bf8565b60008181526003602081905260409091200154819060ff166115975760405162461bcd60e51b815260040161059290612016565b6000828152600360205260409020600581015460ff166115ea5760405162461bcd60e51b815260206004820152600e60248201526d2737ba1030b71030bab1ba34b7b760911b6044820152606401610592565b80600601544210156116325760405162461bcd60e51b8152602060048201526011602482015270105d58dd1a5bdb881b9bdd08195b991959607a1b6044820152606401610592565b60088101546001600160a01b0316156116b657600881015460078201546116669185916001600160a01b0390911690611c51565b600881015460078201546040519081526001600160a01b039091169084907fd2aa34a4fdbbc6dff6a3e56f46e0f3ae2a31d7785ff3487aa5c95c642acea5019060200160405180910390a361176c565b60038101805460ff191690556002546001820154604051632142170760e11b81526001600160a01b03928316926342842e0e926116fd923092909116908890600401612046565b600060405180830381600087803b15801561171757600080fd5b505af115801561172b573d6000803e3d6000fd5b50505060018201546040516001600160a01b03909116915084907fcd69f8512d5dbb6c8101e48b86eee5edf783a51bc5e597bc5c832971e40fc91390600090a35b50506115586001600055565b611780611aba565b6001546040516001600160a01b03909116904780156108fc02916000818181858888f19350505050158015611558573d6000803e3d6000fd5b6117c1611bf8565b60008181526003602081905260409091200154819060ff166117f55760405162461bcd60e51b815260040161059290612016565b6000828152600360205260409020600581015460ff161561184d5760405162461bcd60e51b815260206004820152601260248201527124ba32b69034b99034b71030bab1ba34b7b760711b6044820152606401610592565b80600201543410156118985760405162461bcd60e51b8152602060048201526014602482015273125b9cdd59999a58da595b9d081c185e5b595b9d60621b6044820152606401610592565b6000806118a485611b66565b91509150811580156118b4575080155b6119005760405162461bcd60e51b815260206004820152601860248201527f536c6f74206e6f206c6f6e67657220617661696c61626c6500000000000000006044820152606401610592565b61190f85338560020154611c51565b6001830154600284015460405190815233916001600160a01b03169087907f04ddd54c6b746e69ba87f862311f7670bd1d7276846778ac81cd38747b27a7469060200160405180910390a4505050506115586001600055565b6001600160a01b03811660009081526005602090815260409182902080548351818402810184019094528084526060939283018282801561096e576020028201919060005260206000209081548152602001906001019080831161095a5750505050509050919050565b6119da611aba565b6001600160a01b038116611a225760405162461bcd60e51b815260206004820152600f60248201526e496e76616c6964206164647265737360881b6044820152606401610592565b600880546001600160a01b0319166001600160a01b0392909216919091179055565b611a4c611aba565b6001600160a01b038116611ab15760405162461bcd60e51b815260206004820152602660248201527f4f776e61626c653a206e6577206f776e657220697320746865207a65726f206160448201526564647265737360d01b6064820152608401610592565b61155881611b14565b6001546001600160a01b03163314610a215760405162461bcd60e51b815260206004820181905260248201527f4f776e61626c653a2063616c6c6572206973206e6f7420746865206f776e65726044820152606401610592565b600180546001600160a01b038381166001600160a01b0319831681179093556040519116919082907f8be0079c531659141344cd1fd0a4f28419497f9722a3daafe3b4186f6b6457e090600090a35050565b600254604051632b85dcc960e01b81526004810183905260009182916001600160a01b0390911690632b85dcc990602401600060405180830381865afa925050508015611bd557506040513d6000823e601f3d908101601f19168201604052611bd2919081019061220e565b60015b611be457506000928392509050565b8060a001518160e001519250925050915091565b600260005403611c4a5760405162461bcd60e51b815260206004820152601f60248201527f5265656e7472616e637947756172643a207265656e7472616e742063616c6c006044820152606401610592565b6002600055565b6000838152600360205260408120600754909190606490611c72908561231f565b611c7c9190612336565b90506000611c8a8285612358565b6008546040519192506001600160a01b03169083156108fc029084906000818181858888f19350505050158015611cc5573d6000803e3d6000fd5b5060018301546040516001600160a01b039091169082156108fc029083906000818181858888f19350505050158015611d02573d6000803e3d6000fd5b50600254604051632142170760e11b81526001600160a01b03909116906342842e0e90611d3790309089908b90600401612046565b600060405180830381600087803b158015611d5157600080fd5b505af1158015611d65573d6000803e3d6000fd5b5050506003909301805460ff19169055505050505050565b600060208284031215611d8f57600080fd5b5035919050565b815181526020808301516001600160a01b031690820152604080830151908201526060808301511515908201526080808301519082015260a080830151610120830191611de69084018215159052565b5060c083015160c083015260e083015160e083015261010080840151611e16828501826001600160a01b03169052565b505092915050565b6001600160a01b038116811461155857600080fd5b600080600080600060808688031215611e4b57600080fd5b8535611e5681611e1e565b94506020860135611e6681611e1e565b935060408601359250606086013567ffffffffffffffff80821115611e8a57600080fd5b818801915088601f830112611e9e57600080fd5b813581811115611ead57600080fd5b896020828501011115611ebf57600080fd5b9699959850939650602001949392505050565b60008060408385031215611ee557600080fd5b50508035926020909101359150565b600060208284031215611f0657600080fd5b8135611f1181611e1e565b9392505050565b6020808252825182820181905260009190848201906040850190845b81811015611f5057835183529284019291840191600101611f34565b50909695505050505050565b602080825282518282018190526000919060409081850190868401855b82811015611fb157815180516001600160a01b0316855286810151878601528501518585015260609093019290850190600101611f79565b5091979650505050505050565b600080600060608486031215611fd357600080fd5b505081359360208301359350604090920135919050565b60008060408385031215611ffd57600080fd5b823561200881611e1e565b946020939093013593505050565b602080825260169082015275131a5cdd1a5b99c8191bd95cc81b9bdd08195e1a5cdd60521b604082015260600190565b6001600160a01b039384168152919092166020820152604081019190915260600190565b805161207581611e1e565b919050565b60006020828403121561208c57600080fd5b8151611f1181611e1e565b60208082526022908201527f43616e6e6f74206c69737420626f6f6b6564206f72207265766f6b656420736c6040820152611bdd60f21b606082015260800190565b634e487b7160e01b600052601160045260246000fd5b80820180821115612102576121026120d9565b92915050565b634e487b7160e01b600052604160045260246000fd5b604051610160810167ffffffffffffffff8111828210171561214257612142612108565b60405290565b604051601f8201601f1916810167ffffffffffffffff8111828210171561217157612171612108565b604052919050565b8051801515811461207557600080fd5b600082601f83011261219a57600080fd5b815167ffffffffffffffff8111156121b4576121b4612108565b60206121c8601f8301601f19168201612148565b82815285828487010111156121dc57600080fd5b60005b838110156121fa5785810183015182820184015282016121df565b506000928101909101919091529392505050565b60006020828403121561222057600080fd5b815167ffffffffffffffff8082111561223857600080fd5b90830190610160828603121561224d57600080fd5b61225561211e565b825181526122656020840161206a565b602082015260408301516040820152606083015160608201526080830151608082015261229460a08401612179565b60a08201526122a560c0840161206a565b60c08201526122b660e08401612179565b60e082015261010080840151838111156122cf57600080fd5b6122db88828701612189565b82840152505061012080840151838111156122f557600080fd5b61230188828701612189565b91830191909152506101409283015192810192909252509392505050565b8082028115828204841417612102576121026120d9565b60008261235357634e487b7160e01b600052601260045260246000fd5b500490565b81810381811115612102576121026120d956fea2646970667358221220499211ee833b8b01c87ead3953c0d6a358a9350a8c9207f98259bf52df7085c264736f6c6343000813003360806040526201518060065560016007553480156200001d57600080fd5b5060405162002a6638038062002a668339810160408190526200004091620000f1565b6001600055620000503362000082565b600280546001600160a01b039384166001600160a01b0319918216179091556008805492909316911617905562000129565b600180546001600160a01b038381166001600160a01b0319831681179093556040519116919082907f8be0079c531659141344cd1fd0a4f28419497f9722a3daafe3b4186f6b6457e090600090a35050565b80516001600160a01b0381168114620000ec57600080fd5b919050565b600080604083850312156200010557600080fd5b6200011083620000d4565b91506200012060208401620000d4565b90509250929050565b61292d80620001396000396000f3fe6080604052600436106101665760003560e01c80638e0eac0f116100d1578063d321c6cf1161008a578063e018243611610064578063e018243614610452578063f2fde38b14610472578063f792bf2414610492578063fa2af9da146104b257600080fd5b8063d321c6cf146103fd578063db2e21bc1461041d578063df3e0a1d1461043257600080fd5b80638e0eac0f1461031d5780639f5644fd1461035d578063aa0b59881461037d578063ac1b23351461039d578063b2a4401b146103bd578063cefead95146103dd57600080fd5b8063715018a611610123578063715018a61461025357806376b2e0e5146102685780637d19e596146102885780637f944dd0146102b55780638c639a85146102d55780638da5cb5b146102eb57600080fd5b8063012f52ee1461016b57806306e652dd146101ad57806328e5dc55146101cf5780632a9be529146101e25780635bf31d4d146102025780635ccea85e14610226575b600080fd5b34801561017757600080fd5b5061018b610186366004612059565b6104d2565b6040516101a49d9c9b9a999897969594939291906120fa565b60405180910390f35b3480156101b957600080fd5b506101cd6101c8366004612059565b61065f565b005b6101cd6101dd3660046122a0565b6106c3565b3480156101ee57600080fd5b506101cd6101fd36600461233b565b610b24565b34801561020e57600080fd5b5061021860065481565b6040519081526020016101a4565b34801561023257600080fd5b50610246610241366004612382565b610c2e565b6040516101a4919061239f565b34801561025f57600080fd5b506101cd610c9a565b34801561027457600080fd5b506101cd61028336600461233b565b610cae565b34801561029457600080fd5b506102a86102a3366004612059565b610db0565b6040516101a491906123e3565b3480156102c157600080fd5b506102186102d03660046124d5565b610fdf565b3480156102e157600080fd5b5061021860075481565b3480156102f757600080fd5b506001546001600160a01b03165b6040516001600160a01b0390911681526020016101a4565b34801561032957600080fd5b5061034d610338366004612059565b60056020526000908152604090205460ff1681565b60405190151581526020016101a4565b34801561036957600080fd5b506101cd61037836600461233b565b611010565b34801561038957600080fd5b506101cd610398366004612059565b6111c7565b3480156103a957600080fd5b5061034d6103b8366004612059565b61121c565b3480156103c957600080fd5b50600254610305906001600160a01b031681565b3480156103e957600080fd5b506101cd6103f8366004612059565b61147f565b34801561040957600080fd5b506101cd610418366004612059565b611681565b34801561042957600080fd5b506101cd6117b8565b34801561043e57600080fd5b506101cd61044d366004612059565b6117fc565b34801561045e57600080fd5b506101cd61046d366004612059565b611a71565b34801561047e57600080fd5b506101cd61048d366004612382565b611c73565b34801561049e57600080fd5b506101cd6104ad36600461250f565b611ce9565b3480156104be57600080fd5b50600854610305906001600160a01b031681565b60036020819052600091825260409091208054600182015460028301549383015460048401546005850154600686015460078701546008880154600989018054989a6001600160a01b039889169a98169896979596949560ff909416949293919261053c9061254c565b80601f01602080910402602001604051908101604052809291908181526020018280546105689061254c565b80156105b55780601f1061058a576101008083540402835291602001916105b5565b820191906000526020600020905b81548152906001019060200180831161059857829003601f168201915b50505050509080600a0180546105ca9061254c565b80601f01602080910402602001604051908101604052809291908181526020018280546105f69061254c565b80156106435780601f1061061857610100808354040283529160200191610643565b820191906000526020600020905b81548152906001019060200180831161062657829003601f168201915b505050600b909301549192505060ff808216916101009004168d565b610667611f1e565b610e10811015801561067c575062093a808111155b6106be5760405162461bcd60e51b815260206004820152600e60248201526d125b9d985b1a59081c195c9a5bd960921b60448201526064015b60405180910390fd5b600655565b6106cb611f1e565b60008681526005602052604090205460ff16156107225760405162461bcd60e51b8152602060048201526015602482015274457363726f7720616c72656164792065786973747360581b60448201526064016106b5565b6001600160a01b0385161580159061074257506001600160a01b03841615155b6107825760405162461bcd60e51b8152602060048201526011602482015270496e76616c69642061646472657373657360781b60448201526064016106b5565b600083116107d25760405162461bcd60e51b815260206004820152601d60248201527f416d6f756e74206d7573742062652067726561746572207468616e203000000060448201526064016106b5565b823410156108165760405162461bcd60e51b8152602060048201526011602482015270115cd8dc9bddc81b9bdd08199d5b991959607a1b60448201526064016106b5565b600254604051632b85dcc960e01b8152600481018890526000916001600160a01b031690632b85dcc990602401600060405180830381865afa158015610860573d6000803e3d6000fd5b505050506040513d6000823e601f3d908101601f1916820160405261088891908101906125ee565b90508060a0015180156108b05750856001600160a01b03168160c001516001600160a01b0316145b6108ee5760405162461bcd60e51b815260206004820152600f60248201526e496e76616c696420626f6f6b696e6760881b60448201526064016106b5565b604080516101a0810182528881526001600160a01b0388811660208301528716818301526060808201879052918301516080820152908201805160a0830152600060c08301524260e0830152600654905161010083019161094e91612715565b8152602080820186905260408083018690526000606080850182905260809485018290528c82526003808552918390208651815593860151600185810180546001600160a01b039384166001600160a01b03199182161790915594880151600287018054919093169516949094179055850151908301559183015160048083019190915560a0840151600583015560c084015160068301805493949193909260ff1990911691908490811115610a0657610a06612072565b021790555060e0820151600782015561010082015160088201556101208201516009820190610a359082612779565b50610140820151600a820190610a4b9082612779565b50610160820151600b90910180546101809093015115156101000261ff00199215159290921661ffff19909316929092171790556000878152600560209081526040808320805460ff191660019081179091556001600160a01b03808b168086526004855283862080548085018255908752858720018d9055908a1680865283862080549384018155865293909420018a90555190919089907f9405ad0a6208539879349284d71265479b1623846f70303da1f9890d6e8c10a790610b139089815260200190565b60405180910390a450505050505050565b60008281526003602052604090206001015482906001600160a01b0316331480610b6757506000818152600360205260409020600201546001600160a01b031633145b610b835760405162461bcd60e51b81526004016106b590612839565b600083815260056020526040902054839060ff16610bb35760405162461bcd60e51b81526004016106b590612869565b600084815260036020526040812090600682015460ff166004811115610bdb57610bdb612072565b14610c185760405162461bcd60e51b815260206004820152600d60248201526c43616e6e6f742075706461746560981b60448201526064016106b5565b60098101610c268582612779565b505050505050565b6001600160a01b038116600090815260046020908152604091829020805483518184028101840190945280845260609392830182828015610c8e57602002820191906000526020600020905b815481526020019060010190808311610c7a575b50505050509050919050565b610ca2611f1e565b610cac6000611f78565b565b60008281526003602052604090206001015482906001600160a01b0316331480610cf157506000818152600360205260409020600201546001600160a01b031633145b610d0d5760405162461bcd60e51b81526004016106b590612839565b600083815260056020526040902054839060ff16610d3d5760405162461bcd60e51b81526004016106b590612869565b600084815260036020526040812090600682015460ff166004811115610d6557610d65612072565b14610da25760405162461bcd60e51b815260206004820152600d60248201526c43616e6e6f742075706461746560981b60448201526064016106b5565b600a8101610c268582612779565b610db8611fca565b60008281526005602052604090205460ff16610de65760405162461bcd60e51b81526004016106b590612869565b60008281526003602081815260409283902083516101a0810185528154815260018201546001600160a01b03908116938201939093526002820154909216938201939093529082015460608201526004808301546080830152600583015460a0830152600683015491929160c084019160ff90911690811115610e6b57610e6b612072565b6004811115610e7c57610e7c612072565b81526020016007820154815260200160088201548152602001600982018054610ea49061254c565b80601f0160208091040260200160405190810160405280929190818152602001828054610ed09061254c565b8015610f1d5780601f10610ef257610100808354040283529160200191610f1d565b820191906000526020600020905b815481529060010190602001808311610f0057829003601f168201915b50505050508152602001600a82018054610f369061254c565b80601f0160208091040260200160405190810160405280929190818152602001828054610f629061254c565b8015610faf5780601f10610f8457610100808354040283529160200191610faf565b820191906000526020600020905b815481529060010190602001808311610f9257829003601f168201915b5050509183525050600b919091015460ff8082161515602084015261010090910416151560409091015292915050565b60046020528160005260406000208181548110610ffb57600080fd5b90600052602060002001600091509150505481565b60008281526003602052604090206001015482906001600160a01b031633148061105357506000818152600360205260409020600201546001600160a01b031633145b61106f5760405162461bcd60e51b81526004016106b590612839565b600083815260056020526040902054839060ff1661109f5760405162461bcd60e51b81526004016106b590612869565b600084815260036020526040812090600682015460ff1660048111156110c7576110c7612072565b14806110eb57506001600682015460ff1660048111156110e9576110e9612072565b145b6111285760405162461bcd60e51b815260206004820152600e60248201526d496e76616c69642073746174757360901b60448201526064016106b5565b80600801544211156111755760405162461bcd60e51b8152602060048201526016602482015275111a5cdc1d5d19481c195c9a5bd908195e1c1a5c995960521b60448201526064016106b5565b60068101805460ff19166002179055604051339086907fc523357a17c19a0da11b08e9f4d7e4fbed304cbe1be1d3583e4d5a677d75d709906111b8908890612898565b60405180910390a35050505050565b6111cf611f1e565b60058111156112175760405162461bcd60e51b81526020600482015260146024820152734665652063616e6e6f742065786365656420352560601b60448201526064016106b5565b600755565b60008181526005602052604081205460ff1661123a57506000919050565b600082815260036020818152604080842081516101a0810183528154815260018201546001600160a01b03908116948201949094526002820154909316918301919091529182015460608201526004808301546080830152600583015460a0830152600683015491929160c084019160ff909116908111156112be576112be612072565b60048111156112cf576112cf612072565b815260200160078201548152602001600882015481526020016009820180546112f79061254c565b80601f01602080910402602001604051908101604052809291908181526020018280546113239061254c565b80156113705780601f1061134557610100808354040283529160200191611370565b820191906000526020600020905b81548152906001019060200180831161135357829003601f168201915b50505050508152602001600a820180546113899061254c565b80601f01602080910402602001604051908101604052809291908181526020018280546113b59061254c565b80156114025780601f106113d757610100808354040283529160200191611402565b820191906000526020600020905b8154815290600101906020018083116113e557829003601f168201915b5050509183525050600b919091015460ff80821615156020840152610100909104161515604090910152905060008160c00151600481111561144657611446612072565b1480611467575060018160c00151600481111561146557611465612072565b145b801561147857508061010001514211155b9392505050565b60008181526003602052604090206001015481906001600160a01b03163314806114c257506000818152600360205260409020600201546001600160a01b031633145b6114de5760405162461bcd60e51b81526004016106b590612839565b600082815260056020526040902054829060ff1661150e5760405162461bcd60e51b81526004016106b590612869565b600083815260036020526040812090600682015460ff16600481111561153657611536612072565b146115745760405162461bcd60e51b815260206004820152600e60248201526d496e76616c69642073746174757360901b60448201526064016106b5565b80600401544210156115c85760405162461bcd60e51b815260206004820152601760248201527f4170706f696e746d656e74206e6f74207374617274656400000000000000000060448201526064016106b5565b60018101546001600160a01b031633036115f057600b8101805460ff19166001179055611602565b600b8101805461ff0019166101001790555b600b81015460ff16801561161f5750600b810154610100900460ff165b1561167b5760068101805460ff191660019081179091556002820154908201546040516001600160a01b03928316929091169086907f57686fbfe51936415c2986151f93a4f5d1e9dc80ff3e4de21d761283e1d7167190600090a45b50505050565b611689611f1e565b600081815260056020526040902054819060ff166116b95760405162461bcd60e51b81526004016106b590612869565b600082815260036020526040812090600682015460ff1660048111156116e1576116e1612072565b1461171e5760405162461bcd60e51b815260206004820152600d60248201526c10d85b9b9bdd0818d85b98d95b609a1b60448201526064016106b5565b60068101805460ff19166004179055600181015460038201546040516001600160a01b03909216916108fc82150291906000818181858888f1935050505015801561176d573d6000803e3d6000fd5b50600281015460018201546040516001600160a01b03928316929091169085907ffca3ebde593847ecc88c2f405eb4ae8805802c3e13f028aabc38759b87c8524090600090a4505050565b6117c0611f1e565b6001546040516001600160a01b03909116904780156108fc02916000818181858888f193505050501580156117f9573d6000803e3d6000fd5b50565b60008181526003602052604090206001015481906001600160a01b031633148061183f57506000818152600360205260409020600201546001600160a01b031633145b61185b5760405162461bcd60e51b81526004016106b590612839565b600082815260056020526040902054829060ff1661188b5760405162461bcd60e51b81526004016106b590612869565b60008381526003602052604090206001600682015460ff1660048111156118b4576118b4612072565b146119015760405162461bcd60e51b815260206004820152601760248201527f4d75737420626520636f6e6669726d656420666972737400000000000000000060448201526064016106b5565b80600501544210156119555760405162461bcd60e51b815260206004820152601860248201527f4170706f696e746d656e74206e6f742066696e6973686564000000000000000060448201526064016106b5565b60068101805460ff191660039081179091556007549082015460009160649161197e91906128ab565b61198891906128c2565b9050600081836003015461199c91906128e4565b6008546040519192506001600160a01b03169083156108fc029084906000818181858888f193505050501580156119d7573d6000803e3d6000fd5b5060028301546040516001600160a01b039091169082156108fc029083906000818181858888f19350505050158015611a14573d6000803e3d6000fd5b506002830154600184015460038501546040519081526001600160a01b03928316929091169088907f9dec7057567c230c9ad82c429f563876768f2ac36c936f3f31e3f03b4d5909219060200160405180910390a4505050505050565b60008181526003602052604090206001015481906001600160a01b0316331480611ab457506000818152600360205260409020600201546001600160a01b031633145b611ad05760405162461bcd60e51b81526004016106b590612839565b600082815260056020526040902054829060ff16611b005760405162461bcd60e51b81526004016106b590612869565b600083815260036020526040812090600682015460ff166004811115611b2857611b28612072565b14611b655760405162461bcd60e51b815260206004820152600d60248201526c10d85b9b9bdd0818d85b98d95b609a1b60448201526064016106b5565b610e108160040154611b7791906128e4565b4210611bd85760405162461bcd60e51b815260206004820152602a60248201527f43616e6e6f742063616e63656c2077697468696e203120686f7572206f6620616044820152691c1c1bda5b9d1b595b9d60b21b60648201526084016106b5565b60068101805460ff19166004179055600181015460038201546040516001600160a01b03909216916108fc82150291906000818181858888f19350505050158015611c27573d6000803e3d6000fd5b50600281015460018201546040516001600160a01b03928316929091169086907ffca3ebde593847ecc88c2f405eb4ae8805802c3e13f028aabc38759b87c8524090600090a450505050565b611c7b611f1e565b6001600160a01b038116611ce05760405162461bcd60e51b815260206004820152602660248201527f4f776e61626c653a206e6577206f776e657220697320746865207a65726f206160448201526564647265737360d01b60648201526084016106b5565b6117f981611f78565b611cf1611f1e565b600084815260056020526040902054849060ff16611d215760405162461bcd60e51b81526004016106b590612869565b60008581526003602052604090206002600682015460ff166004811115611d4a57611d4a612072565b14611d865760405162461bcd60e51b815260206004820152600c60248201526b139bdd08191a5cdc1d5d195960a21b60448201526064016106b5565b6003810154611d958486612715565b1115611dd55760405162461bcd60e51b815260206004820152600f60248201526e496e76616c696420616d6f756e747360881b60448201526064016106b5565b60068101805460ff191660031790558315611e285760028101546040516001600160a01b039091169085156108fc029086906000818181858888f19350505050158015611e26573d6000803e3d6000fd5b505b8215611e6c5760018101546040516001600160a01b039091169084156108fc029085906000818181858888f19350505050158015611e6a573d6000803e3d6000fd5b505b600083858360030154611e7f91906128e4565b611e8991906128e4565b90508015611ecd576008546040516001600160a01b039091169082156108fc029083906000818181858888f19350505050158015611ecb573d6000803e3d6000fd5b505b6002820154600183015460038401546040519081526001600160a01b03928316929091169089907f9dec7057567c230c9ad82c429f563876768f2ac36c936f3f31e3f03b4d59092190602001610b13565b6001546001600160a01b03163314610cac5760405162461bcd60e51b815260206004820181905260248201527f4f776e61626c653a2063616c6c6572206973206e6f7420746865206f776e657260448201526064016106b5565b600180546001600160a01b038381166001600160a01b0319831681179093556040519116919082907f8be0079c531659141344cd1fd0a4f28419497f9722a3daafe3b4186f6b6457e090600090a35050565b604051806101a001604052806000815260200160006001600160a01b0316815260200160006001600160a01b031681526020016000815260200160008152602001600081526020016000600481111561202557612025612072565b8152602001600081526020016000815260200160608152602001606081526020016000151581526020016000151581525090565b60006020828403121561206b57600080fd5b5035919050565b634e487b7160e01b600052602160045260246000fd5b600581106120a657634e487b7160e01b600052602160045260246000fd5b9052565b60005b838110156120c55781810151838201526020016120ad565b50506000910152565b600081518084526120e68160208601602086016120aa565b601f01601f19169290920160200192915050565b8d81526001600160a01b038d811660208301528c166040820152606081018b9052608081018a905260a08101899052600061213860c083018a612088565b8760e0830152866101008301526101a061012083015261215c6101a08301876120ce565b82810361014084015261216f81876120ce565b91505083151561016083015261218a61018083018415159052565b9e9d5050505050505050505050505050565b6001600160a01b03811681146117f957600080fd5b634e487b7160e01b600052604160045260246000fd5b604051610160810167ffffffffffffffff811182821017156121eb576121eb6121b1565b60405290565b604051601f8201601f1916810167ffffffffffffffff8111828210171561221a5761221a6121b1565b604052919050565b600067ffffffffffffffff82111561223c5761223c6121b1565b50601f01601f191660200190565b600082601f83011261225b57600080fd5b813561226e61226982612222565b6121f1565b81815284602083860101111561228357600080fd5b816020850160208301376000918101602001919091529392505050565b60008060008060008060c087890312156122b957600080fd5b8635955060208701356122cb8161219c565b945060408701356122db8161219c565b935060608701359250608087013567ffffffffffffffff808211156122ff57600080fd5b61230b8a838b0161224a565b935060a089013591508082111561232157600080fd5b5061232e89828a0161224a565b9150509295509295509295565b6000806040838503121561234e57600080fd5b82359150602083013567ffffffffffffffff81111561236c57600080fd5b6123788582860161224a565b9150509250929050565b60006020828403121561239457600080fd5b81356114788161219c565b6020808252825182820181905260009190848201906040850190845b818110156123d7578351835292840192918401916001016123bb565b50909695505050505050565b60208152815160208201526000602083015161240a60408401826001600160a01b03169052565b5060408301516001600160a01b03811660608401525060608301516080830152608083015160a083015260a083015160c083015260c083015161245060e0840182612088565b5060e083015161010083810191909152830151610120808401919091528301516101a061014080850182905261248a6101c08601846120ce565b9250808601519050610160601f1986850301818701526124aa84836120ce565b9350808701519150506101806124c38187018315159052565b90950151151593019290925250919050565b600080604083850312156124e857600080fd5b82356124f38161219c565b946020939093013593505050565b80151581146117f957600080fd5b6000806000806080858703121561252557600080fd5b84359350602085013561253781612501565b93969395505050506040820135916060013590565b600181811c9082168061256057607f821691505b60208210810361258057634e487b7160e01b600052602260045260246000fd5b50919050565b80516125918161219c565b919050565b805161259181612501565b600082601f8301126125b257600080fd5b81516125c061226982612222565b8181528460208386010111156125d557600080fd5b6125e68260208301602087016120aa565b949350505050565b60006020828403121561260057600080fd5b815167ffffffffffffffff8082111561261857600080fd5b90830190610160828603121561262d57600080fd5b6126356121c7565b8251815261264560208401612586565b602082015260408301516040820152606083015160608201526080830151608082015261267460a08401612596565b60a082015261268560c08401612586565b60c082015261269660e08401612596565b60e082015261010080840151838111156126af57600080fd5b6126bb888287016125a1565b82840152505061012080840151838111156126d557600080fd5b6126e1888287016125a1565b91830191909152506101409283015192810192909252509392505050565b634e487b7160e01b600052601160045260246000fd5b80820180821115612728576127286126ff565b92915050565b601f82111561277457600081815260208120601f850160051c810160208610156127555750805b601f850160051c820191505b81811015610c2657828155600101612761565b505050565b815167ffffffffffffffff811115612793576127936121b1565b6127a7816127a1845461254c565b8461272e565b602080601f8311600181146127dc57600084156127c45750858301515b600019600386901b1c1916600185901b178555610c26565b600085815260208120601f198616915b8281101561280b578886015182559484019460019091019084016127ec565b50858210156128295787850151600019600388901b60f8161c191681555b5050505050600190811b01905550565b602080825260169082015275139bdd08195cd8dc9bddc81c185c9d1a58da5c185b9d60521b604082015260600190565b602080825260159082015274115cd8dc9bddc8191bd95cc81b9bdd08195e1a5cdd605a1b604082015260600190565b60208152600061147860208301846120ce565b8082028115828204841417612728576127286126ff565b6000826128df57634e487b7160e01b600052601260045260246000fd5b500490565b81810381811115612728576127286126ff56fea264697066735822122038cf8907ca3d85bbc813fe72e11abe7842c28c9e6c5928fedaf9029c4539c22564736f6c6343000813003360806040523480156200001157600080fd5b5060405162001eb438038062001eb48339810160408190526200003491620000e5565b6001600055620000443362000076565b600280546001600160a01b039384166001600160a01b031991821617909155600380549290931691161790556200011d565b600180546001600160a01b038381166001600160a01b0319831681179093556040519116919082907f8be0079c531659141344cd1fd0a4f28419497f9722a3daafe3b4186f6b6457e090600090a35050565b80516001600160a01b0381168114620000e057600080fd5b919050565b60008060408385031215620000f957600080fd5b6200010483620000c8565b91506200011460208401620000c8565b90509250929050565b611d87806200012d6000396000f3fe608060405234801561001057600080fd5b506004361061014c5760003560e01c80638da5cb5b116100c3578063b2a4401b1161007c578063b2a4401b1461034f578063b7cdb62814610362578063e83ddcea14610375578063ee4d777e1461039b578063eff5924f146103ae578063f2fde38b146103b757600080fd5b80638da5cb5b146102bc5780638ea59129146102e157806396e8800c14610303578063990581b6146103165780639f54b729146103295780639fc25eb51461033c57600080fd5b806326b39e3d1161011557806326b39e3d146101f2578063312709e7146102145780633260802f146102375780635dd302c1146102815780636cc470a2146102a1578063715018a6146102b457600080fd5b8062d64e7614610151578063175a3b411461018957806318d0e8b21461019e5780631d2f9d98146101be5780631f4ac129146101d1575b600080fd5b61017461015f366004611485565b60086020526000908152604090205460ff1681565b60405190151581526020015b60405180910390f35b61019c61019736600461155b565b6103ca565b005b6101b16101ac366004611603565b61061c565b6040516101809190611662565b61019c6101cc366004611485565b610688565b6101e46101df366004611675565b6106ab565b604051908152602001610180565b610205610200366004611485565b6106dc565b604051610180939291906116a1565b610174610222366004611485565b60096020526000908152604090205460ff1681565b610266610245366004611603565b60056020526000908152604090208054600182015460029092015490919083565b60408051938452602084019290925290820152606001610180565b61029461028f366004611485565b6107b6565b6040516101809190611766565b6101b16102af366004611603565b61091b565b61019c610985565b6001546001600160a01b03165b6040516001600160a01b039091168152602001610180565b6102f46102ef366004611603565b610999565b604051610180939291906117db565b61019c610311366004611485565b610a16565b610294610324366004611485565b610a36565b61019c61033736600461155b565b610ba9565b6003546102c9906001600160a01b031681565b6002546102c9906001600160a01b031681565b6101e4610370366004611675565b610f5a565b610388610383366004611485565b610f76565b604051610180979695949392919061181d565b61019c6103a9366004611485565b61104c565b6101e4600a5481565b61019c6103c5366004611603565b6111a0565b60008381526004602052604090206001015483906001600160a01b0316331461042d5760405162461bcd60e51b815260206004820152601060248201526f2737ba103a3432903932bb34b2bbb2b960811b60448201526064015b60405180910390fd5b6001831015801561043f575060058311155b6104805760405162461bcd60e51b8152602060048201526012602482015271526174696e67206d75737420626520312d3560701b6044820152606401610424565b6101f4825111156104c65760405162461bcd60e51b815260206004820152601060248201526f436f6d6d656e7420746f6f206c6f6e6760801b6044820152606401610424565b60006104d185611219565b9050600081116105165760405162461bcd60e51b815260206004820152601060248201526f14995d9a595dc81b9bdd08199bdd5b9960821b6044820152606401610424565b600081815260046020526040902060058101546105369062015180611887565b4211156105855760405162461bcd60e51b815260206004820152601c60248201527f43616e6e6f742075706461746520616674657220323420686f757273000000006044820152606401610424565b600281015460038201546105a2916001600160a01b03169061125e565b60028101546105ba906001600160a01b0316866112f3565b60038101859055600481016105cf8582611929565b50336001600160a01b0316867f433c4b4bad557503d685df8bedd104307b66cc2c3fa18a5f00fae69f261eff29878760405161060c9291906119e9565b60405180910390a3505050505050565b6001600160a01b03811660009081526007602090815260409182902080548351818402810184019094528084526060939283018282801561067c57602002820191906000526020600020905b815481526020019060010190808311610668575b50505050509050919050565b61069061136a565b6000908152600960205260409020805460ff19166001179055565b600760205281600052604060002081815481106106c757600080fd5b90600052602060002001600091509150505481565b60608060608367ffffffffffffffff8111156106fa576106fa61149e565b604051908082528060200260200182016040528015610723578160200160208202803683370190505b5092508367ffffffffffffffff81111561073f5761073f61149e565b604051908082528060200260200182016040528015610768578160200160208202803683370190505b5091508367ffffffffffffffff8111156107845761078461149e565b6040519080825280602002602001820160405280156107ad578160200160208202803683370190505b50929491935050565b6107be611416565b6000821180156107d05750600a548211155b6108145760405162461bcd60e51b815260206004820152601560248201527414995d9a595dc8191bd95cc81b9bdd08195e1a5cdd605a1b6044820152606401610424565b600082815260046020818152604092839020835160e0810185528154815260018201546001600160a01b0390811693820193909352600282015490921693820193909352600383015460608201529082018054919291608084019190610879906118a0565b80601f01602080910402602001604051908101604052809291908181526020018280546108a5906118a0565b80156108f25780601f106108c7576101008083540402835291602001916108f2565b820191906000526020600020905b8154815290600101906020018083116108d557829003601f168201915b50505091835250506005820154602082015260069091015460ff16151560409091015292915050565b6001600160a01b03811660009081526006602090815260409182902080548351818402810184019094528084526060939283018282801561067c57602002820191906000526020600020908154815260200190600101908083116106685750505050509050919050565b61098d61136a565b61099760006113c4565b565b6000806109a4611467565b6001600160a01b038416600090815260056020526040902080546001808301549195509093505b60058111610a0d5760008181526003830160205260409020548382600681106109f6576109f6611a0a565b602002015280610a0581611a20565b9150506109cb565b50509193909250565b610a1e61136a565b6000908152600960205260409020805460ff19169055565b610a3e611416565b60008281526008602052604090205460ff16610a945760405162461bcd60e51b815260206004820152601560248201527414995d9a595dc8191bd95cc81b9bdd08195e1a5cdd605a1b6044820152606401610424565b6000610a9f83611219565b600081815260046020818152604092839020835160e0810185528154815260018201546001600160a01b03908116938201939093526002820154909216938201939093526003830154606082015290820180549394509092608084019190610b06906118a0565b80601f0160208091040260200160405190810160405280929190818152602001828054610b32906118a0565b8015610b7f5780601f10610b5457610100808354040283529160200191610b7f565b820191906000526020600020905b815481529060010190602001808311610b6257829003601f168201915b50505091835250506005820154602082015260069091015460ff1615156040909101529392505050565b600083815260096020526040902054839060ff16610bfd5760405162461bcd60e51b815260206004820152601160248201527010d85b9b9bdd081c995d9a595dc81e595d607a1b6044820152606401610424565b60008481526008602052604090205460ff1615610c545760405162461bcd60e51b815260206004820152601560248201527452657669657720616c72656164792065786973747360581b6044820152606401610424565b60018310158015610c66575060058311155b610ca75760405162461bcd60e51b8152602060048201526012602482015271526174696e67206d75737420626520312d3560701b6044820152606401610424565b6101f482511115610ced5760405162461bcd60e51b815260206004820152601060248201526f436f6d6d656e7420746f6f206c6f6e6760801b6044820152606401610424565b600254604051632b85dcc960e01b8152600481018690526000916001600160a01b031690632b85dcc990602401600060405180830381865afa158015610d37573d6000803e3d6000fd5b505050506040513d6000823e601f3d908101601f19168201604052610d5f9190810190611a9e565b60c08101519091506001600160a01b03163314610dae5760405162461bcd60e51b815260206004820152600d60248201526c2737ba103a343290313abcb2b960991b6044820152606401610424565b600a8054906000610dbe83611a20565b90915550506040805160e081018252868152336020808301918252848101516001600160a01b03908116848601908152606085018a8152608086018a81524260a0880152600160c08801819052600a5460009081526004968790529890982087518155955197860180549885166001600160a01b0319998a161790559151600286018054919094169716969096179091559351600383015592519192909190820190610e6a9082611929565b5060a0820151600582015560c0909101516006918201805491151560ff1992831617905560008781526008602090815260408083208054909416600190811790945585820180516001600160a01b03168452948252808320600a805482548088018455928652848620909201919091553384526007835290832090548154948501825590835291209091015551610f0190856112f3565b80602001516001600160a01b0316336001600160a01b0316867f7e21b007fd5c7653ebf7e9601faee30687667cccc8a658f245d94efd646aff5b8787604051610f4b9291906119e9565b60405180910390a45050505050565b600660205281600052604060002081815481106106c757600080fd5b60046020819052600091825260409091208054600182015460028301546003840154948401805493956001600160a01b03938416959290931693610fb9906118a0565b80601f0160208091040260200160405190810160405280929190818152602001828054610fe5906118a0565b80156110325780601f1061100757610100808354040283529160200191611032565b820191906000526020600020905b81548152906001019060200180831161101557829003601f168201915b50505050600583015460069093015491929160ff16905087565b61105461136a565b60008181526008602052604090205460ff16156110ab5760405162461bcd60e51b815260206004820152601560248201527452657669657720616c72656164792065786973747360581b6044820152606401610424565b600354604051633e8cf2cb60e11b8152600481018390526000916001600160a01b031690637d19e59690602401600060405180830381865afa1580156110f5573d6000803e3d6000fd5b505050506040513d6000823e601f3d908101601f1916820160405261111d9190810190611bbe565b905060038160c00151600481111561113757611137611cef565b146111845760405162461bcd60e51b815260206004820152601960248201527f4170706f696e746d656e74206e6f7420636f6d706c65746564000000000000006044820152606401610424565b506000908152600960205260409020805460ff19166001179055565b6111a861136a565b6001600160a01b03811661120d5760405162461bcd60e51b815260206004820152602660248201527f4f776e61626c653a206e6577206f776e657220697320746865207a65726f206160448201526564647265737360d01b6064820152608401610424565b611216816113c4565b50565b600060015b600a548111611255576000818152600460205260409020548390036112435792915050565b8061124d81611a20565b91505061121e565b50600092915050565b6001600160a01b038216600090815260056020526040812080549091829061128583611d05565b91905055508181600201600082825461129e9190611d1c565b90915550508054156112c557805460028201546112bb9190611d2f565b60018201556112cd565b600060018201555b600082815260038201602052604081208054916112e983611d05565b9190505550505050565b6001600160a01b038216600090815260056020526040812080549091829061131a83611a20565b9190505550818160020160008282546113339190611887565b9091555050805460028201546113499190611d2f565b6001820155600082815260038201602052604081208054916112e983611a20565b6001546001600160a01b031633146109975760405162461bcd60e51b815260206004820181905260248201527f4f776e61626c653a2063616c6c6572206973206e6f7420746865206f776e65726044820152606401610424565b600180546001600160a01b038381166001600160a01b0319831681179093556040519116919082907f8be0079c531659141344cd1fd0a4f28419497f9722a3daafe3b4186f6b6457e090600090a35050565b6040518060e001604052806000815260200160006001600160a01b0316815260200160006001600160a01b031681526020016000815260200160608152602001600081526020016000151581525090565b6040518060c001604052806006906020820280368337509192915050565b60006020828403121561149757600080fd5b5035919050565b634e487b7160e01b600052604160045260246000fd5b604051610160810167ffffffffffffffff811182821017156114d8576114d861149e565b60405290565b6040516101a0810167ffffffffffffffff811182821017156114d8576114d861149e565b604051601f8201601f1916810167ffffffffffffffff8111828210171561152b5761152b61149e565b604052919050565b600067ffffffffffffffff82111561154d5761154d61149e565b50601f01601f191660200190565b60008060006060848603121561157057600080fd5b8335925060208401359150604084013567ffffffffffffffff81111561159557600080fd5b8401601f810186136115a657600080fd5b80356115b96115b482611533565b611502565b8181528760208385010111156115ce57600080fd5b816020840160208301376000602083830101528093505050509250925092565b6001600160a01b038116811461121657600080fd5b60006020828403121561161557600080fd5b8135611620816115ee565b9392505050565b600081518084526020808501945080840160005b838110156116575781518752958201959082019060010161163b565b509495945050505050565b6020815260006116206020830184611627565b6000806040838503121561168857600080fd5b8235611693816115ee565b946020939093013593505050565b606080825284519082018190526000906020906080840190828801845b828110156116e35781516001600160a01b0316845292840192908401906001016116be565b505050838103828501526116f78187611627565b915050828103604084015261170c8185611627565b9695505050505050565b60005b83811015611731578181015183820152602001611719565b50506000910152565b60008151808452611752816020860160208601611716565b601f01601f19169290920160200192915050565b60208152815160208201526000602083015160018060a01b038082166040850152806040860151166060850152505060608301516080830152608083015160e060a08401526117b961010084018261173a565b905060a084015160c084015260c0840151151560e08401528091505092915050565b8381526020808201849052610100820190604083018460005b6006811015611811578151835291830191908301906001016117f4565b50505050949350505050565b8781526001600160a01b038781166020830152861660408201526060810185905260e0608082018190526000906118569083018661173a565b60a08301949094525090151560c09091015295945050505050565b634e487b7160e01b600052601160045260246000fd5b8082018082111561189a5761189a611871565b92915050565b600181811c908216806118b457607f821691505b6020821081036118d457634e487b7160e01b600052602260045260246000fd5b50919050565b601f82111561192457600081815260208120601f850160051c810160208610156119015750805b601f850160051c820191505b818110156119205782815560010161190d565b5050505b505050565b815167ffffffffffffffff8111156119435761194361149e565b6119578161195184546118a0565b846118da565b602080601f83116001811461198c57600084156119745750858301515b600019600386901b1c1916600185901b178555611920565b600085815260208120601f198616915b828110156119bb5788860151825594840194600190910190840161199c565b50858210156119d95787850151600019600388901b60f8161c191681555b5050505050600190811b01905550565b828152604060208201526000611a02604083018461173a565b949350505050565b634e487b7160e01b600052603260045260246000fd5b600060018201611a3257611a32611871565b5060010190565b8051611a44816115ee565b919050565b80518015158114611a4457600080fd5b600082601f830112611a6a57600080fd5b8151611a786115b482611533565b818152846020838601011115611a8d57600080fd5b611a02826020830160208701611716565b600060208284031215611ab057600080fd5b815167ffffffffffffffff80821115611ac857600080fd5b908301906101608286031215611add57600080fd5b611ae56114b4565b82518152611af560208401611a39565b6020820152604083015160408201526060830151606082015260808301516080820152611b2460a08401611a49565b60a0820152611b3560c08401611a39565b60c0820152611b4660e08401611a49565b60e08201526101008084015183811115611b5f57600080fd5b611b6b88828701611a59565b8284015250506101208084015183811115611b8557600080fd5b611b9188828701611a59565b91830191909152506101409283015192810192909252509392505050565b805160058110611a4457600080fd5b600060208284031215611bd057600080fd5b815167ffffffffffffffff80821115611be857600080fd5b908301906101a08286031215611bfd57600080fd5b611c056114de565b82518152611c1560208401611a39565b6020820152611c2660408401611a39565b6040820152606083015160608201526080830151608082015260a083015160a0820152611c5560c08401611baf565b60c082015260e083015160e08201526101008084015181830152506101208084015183811115611c8457600080fd5b611c9088828701611a59565b8284015250506101408084015183811115611caa57600080fd5b611cb688828701611a59565b8284015250506101609150611ccc828401611a49565b828201526101809150611ce0828401611a49565b91810191909152949350505050565b634e487b7160e01b600052602160045260246000fd5b600081611d1457611d14611871565b506000190190565b8181038181111561189a5761189a611871565b600082611d4c57634e487b7160e01b600052601260045260246000fd5b50049056fea2646970667358221220fca7569b3f774314e589f803c7307acf2840792a6c1bfaabc7474ed9af19640d64736f6c634300081300336080604052662386f26fc10000600955600a805460ff1916905534801561002557600080fd5b5061002f33610038565b60018055610088565b600080546001600160a01b038381166001600160a01b0319831681178455604051919092169283917f8be0079c531659141344cd1fd0a4f28419497f9722a3daafe3b4186f6b6457e09190a35050565b612979806100976000396000f3fe6080604052600436106101cd5760003560e01c80638da5cb5b116100f7578063b043e03211610095578063d9d3fa6411610064578063d9d3fa6414610561578063e2842d7914610581578063ea78dcbf146105a3578063f2fde38b146105e457600080fd5b8063b043e032146104e6578063b5cb15f714610506578063c3c5a5471461051b578063ce088ccc1461054b57600080fd5b80639bb9cb4f116100d15780639bb9cb4f1461047e578063add304d214610493578063ae91666a146104b3578063af582c6b146104c657600080fd5b80638da5cb5b146104205780638f599e441461043e578063987ee1561461045e57600080fd5b80634a3183011161016f5780637259e0f81161013e5780637259e0f81461039357806376c535ae146103b35780637ea073c8146103d357806381a294571461040057600080fd5b80634a318301146103145780634de2bfbf1461034457806352506dae14610364578063715018a61461037e57600080fd5b806333097df6116101ab57806333097df61461023d578063332d56d7146102965780634089d49f146102cd578063476343ee146102ff57600080fd5b806314c44e09146101d25780631a47767b146101fb5780632bbfcba31461021d575b600080fd5b3480156101de57600080fd5b506101e860095481565b6040519081526020015b60405180910390f35b34801561020757600080fd5b5061021b6102163660046120d3565b610604565b005b34801561022957600080fd5b5061021b6102383660046120f5565b61069b565b34801561024957600080fd5b5061027e6102583660046121cd565b80516020818301810180516005825292820191909301209152546001600160a01b031681565b6040516001600160a01b0390911681526020016101f2565b3480156102a257600080fd5b506102b66102b13660046120d3565b610833565b6040516101f29b9a99989796959493929190612292565b3480156102d957600080fd5b506102ed6102e8366004612345565b610b44565b6040516101f29695949392919061235e565b34801561030b57600080fd5b5061021b610c9a565b34801561032057600080fd5b5061033461032f3660046120d3565b610cdf565b60405190151581526020016101f2565b34801561035057600080fd5b5061021b61035f3660046123b5565b610d97565b34801561037057600080fd5b50600a546103349060ff1681565b34801561038a57600080fd5b5061021b610f14565b34801561039f57600080fd5b5061027e6103ae366004612345565b610f28565b3480156103bf57600080fd5b506103346103ce3660046120d3565b610f52565b3480156103df57600080fd5b506103f36103ee366004612419565b610fd9565b6040516101f2919061245d565b34801561040c57600080fd5b5061021b61041b3660046120d3565b6110e9565b34801561042c57600080fd5b506000546001600160a01b031661027e565b34801561044a57600080fd5b5061021b6104593660046123b5565b61115c565b34801561046a57600080fd5b506102b66104793660046120d3565b61120e565b34801561048a57600080fd5b5061021b6115a7565b34801561049f57600080fd5b5061021b6104ae3660046121cd565b6115c3565b61021b6104c136600461247f565b611671565b3480156104d257600080fd5b5061021b6104e1366004612345565b611a18565b3480156104f257600080fd5b5061021b610501366004612560565b611a25565b34801561051257600080fd5b506007546101e8565b34801561052757600080fd5b506103346105363660046120d3565b60036020526000908152604090205460ff1681565b34801561055757600080fd5b506101e860085481565b34801561056d57600080fd5b5061021b61057c3660046123b5565b611e3d565b34801561058d57600080fd5b50610596611ee7565b6040516101f29190612632565b3480156105af57600080fd5b5061027e6105be3660046121cd565b80516020818301810180516004825292820191909301209152546001600160a01b031681565b3480156105f057600080fd5b5061021b6105ff3660046120d3565b611f49565b61060c611fbf565b6001600160a01b03811660009081526003602052604090205460ff1661064d5760405162461bcd60e51b81526004016106449061267f565b60405180910390fd5b6001600160a01b038116600081815260026020526040808220600401805462ff000019169055517f5554feec4e87bc4eba14bd62f71df68156f97d26128616fbc27d28e33b35a6b49190a250565b6106a3611fbf565b6000821180156106b557506008548211155b6106f65760405162461bcd60e51b8152602060048201526012602482015271125b9d985b1a59081c995c5d595cdd08125160721b6044820152606401610644565b6000828152600660205260409020600481015460ff16156107595760405162461bcd60e51b815260206004820152601960248201527f5265717565737420616c72656164792070726f636573736564000000000000006044820152606401610644565b600481018054831580156101000261ffff19909216919091176001179091556107a65780546001600160a01b03166000908152600260205260409020600401805461ff0019166101001790555b805460405183151581526001600160a01b039091169084907fc48d635ac0541426d81d70aea483c649ca63924160e9fd46d5b3507cb116432f9060200160405180910390a3805460405183151581526001600160a01b03909116907f34736af44d2b91cd43fa896d4cfe0861ec1e6b4538583d385fc671639e9153b29060200160405180910390a2505050565b600260205260009081526040902080546001820180546001600160a01b03909216929161085f906126ac565b80601f016020809104026020016040519081016040528092919081815260200182805461088b906126ac565b80156108d85780601f106108ad576101008083540402835291602001916108d8565b820191906000526020600020905b8154815290600101906020018083116108bb57829003601f168201915b5050505050908060020180546108ed906126ac565b80601f0160208091040260200160405190810160405280929190818152602001828054610919906126ac565b80156109665780601f1061093b57610100808354040283529160200191610966565b820191906000526020600020905b81548152906001019060200180831161094957829003601f168201915b50505050509080600301805461097b906126ac565b80601f01602080910402602001604051908101604052809291908181526020018280546109a7906126ac565b80156109f45780601f106109c9576101008083540402835291602001916109f4565b820191906000526020600020905b8154815290600101906020018083116109d757829003601f168201915b50505050600483015460058401546006850154600786018054959660ff80861697610100870482169750620100009096041694909190610a33906126ac565b80601f0160208091040260200160405190810160405280929190818152602001828054610a5f906126ac565b8015610aac5780601f10610a8157610100808354040283529160200191610aac565b820191906000526020600020905b815481529060010190602001808311610a8f57829003601f168201915b505050505090806008018054610ac1906126ac565b80601f0160208091040260200160405190810160405280929190818152602001828054610aed906126ac565b8015610b3a5780601f10610b0f57610100808354040283529160200191610b3a565b820191906000526020600020905b815481529060010190602001808311610b1d57829003601f168201915b505050505090508b565b600660205260009081526040902080546001820180546001600160a01b039092169291610b70906126ac565b80601f0160208091040260200160405190810160405280929190818152602001828054610b9c906126ac565b8015610be95780601f10610bbe57610100808354040283529160200191610be9565b820191906000526020600020905b815481529060010190602001808311610bcc57829003601f168201915b505050505090806002018054610bfe906126ac565b80601f0160208091040260200160405190810160405280929190818152602001828054610c2a906126ac565b8015610c775780601f10610c4c57610100808354040283529160200191610c77565b820191906000526020600020905b815481529060010190602001808311610c5a57829003601f168201915b50505050600383015460049093015491929160ff80821692506101009091041686565b610ca2611fbf565b600080546040516001600160a01b03909116914780156108fc02929091818181858888f19350505050158015610cdc573d6000803e3d6000fd5b50565b6001600160a01b03811660009081526003602052604081205460ff168015610d38575060016001600160a01b03831660009081526002602081905260409091206004015460ff1690811115610d3657610d3661225a565b145b8015610d6457506001600160a01b038216600090815260026020526040902060040154610100900460ff165b8015610d9157506001600160a01b03821660009081526002602052604090206004015462010000900460ff165b92915050565b3360009081526003602052604090205460ff16610dc65760405162461bcd60e51b81526004016106449061267f565b3360009081526002602052604090206004015462010000900460ff16610dfe5760405162461bcd60e51b8152600401610644906126e6565b60088054906000610e0e8361270f565b90915550506040805160c081018252338152602080820185815282840185905242606084015260006080840181905260a0840181905260085481526006909252929020815181546001600160a01b0319166001600160a01b0390911617815591519091906001820190610e819082612785565b5060408201516002820190610e969082612785565b506060820151600382015560808201516004909101805460a09093015115156101000261ff00199215159290921661ffff19909316929092171790556008546040513391907fa34e1dd2e50439a3590264f0b2c8d97c220efc7ef0fbe5a3552280b9b128c84490610f0890859061245d565b60405180910390a35050565b610f1c611fbf565b610f266000612019565b565b60078181548110610f3857600080fd5b6000918252602090912001546001600160a01b0316905081565b6001600160a01b03811660009081526003602052604081205460ff168015610d64575060016001600160a01b03831660009081526002602081905260409091206004015460ff1690811115610fa957610fa961225a565b148015610d915750506001600160a01b031660009081526002602052604090206004015462010000900460ff1690565b6001600160a01b03821660009081526003602052604090205460609060ff166110145760405162461bcd60e51b81526004016106449061267f565b60026000846001600160a01b03166001600160a01b03168152602001908152602001600020600a018260405161104a9190612845565b90815260200160405180910390208054611063906126ac565b80601f016020809104026020016040519081016040528092919081815260200182805461108f906126ac565b80156110dc5780601f106110b1576101008083540402835291602001916110dc565b820191906000526020600020905b8154815290600101906020018083116110bf57829003601f168201915b5050505050905092915050565b6110f1611fbf565b6001600160a01b03811660009081526003602052604090205460ff166111295760405162461bcd60e51b81526004016106449061267f565b6001600160a01b0316600090815260026020526040902060048101805462ff000019166201000017905542600690910155565b3360009081526003602052604090205460ff1661118b5760405162461bcd60e51b81526004016106449061267f565b3360009081526002602052604090206004015462010000900460ff166111c35760405162461bcd60e51b8152600401610644906126e6565b336000908152600260205260409081902090518290600a8301906111e8908690612845565b908152602001604051809103902090816112029190612785565b50426006909101555050565b6001600160a01b03811660009081526003602052604081205460609081908190849081908190819081908690819060ff1661125b5760405162461bcd60e51b81526004016106449061267f565b6001600160a01b03808d166000908152600260208190526040909120805460048201546005830154600684015460018501805495979490941695939493870193600388019360ff808216946101008304821694620100009093049091169290919060078b019060088c01908a906112d1906126ac565b80601f01602080910402602001604051908101604052809291908181526020018280546112fd906126ac565b801561134a5780601f1061131f5761010080835404028352916020019161134a565b820191906000526020600020905b81548152906001019060200180831161132d57829003601f168201915b5050505050995088805461135d906126ac565b80601f0160208091040260200160405190810160405280929190818152602001828054611389906126ac565b80156113d65780601f106113ab576101008083540402835291602001916113d6565b820191906000526020600020905b8154815290600101906020018083116113b957829003601f168201915b505050505098508780546113e9906126ac565b80601f0160208091040260200160405190810160405280929190818152602001828054611415906126ac565b80156114625780601f1061143757610100808354040283529160200191611462565b820191906000526020600020905b81548152906001019060200180831161144557829003601f168201915b50505050509750818054611475906126ac565b80601f01602080910402602001604051908101604052809291908181526020018280546114a1906126ac565b80156114ee5780601f106114c3576101008083540402835291602001916114ee565b820191906000526020600020905b8154815290600101906020018083116114d157829003601f168201915b50505050509150808054611501906126ac565b80601f016020809104026020016040519081016040528092919081815260200182805461152d906126ac565b801561157a5780601f1061154f5761010080835404028352916020019161157a565b820191906000526020600020905b81548152906001019060200180831161155d57829003601f168201915b505050505090509b509b509b509b509b509b509b509b509b509b509b505091939597999b90929496989a50565b6115af611fbf565b600a805460ff19811660ff90911615179055565b3360009081526003602052604090205460ff166115f25760405162461bcd60e51b81526004016106449061267f565b3360009081526002602052604090206004015462010000900460ff1661162a5760405162461bcd60e51b8152600401610644906126e6565b33600090815260026020526040908190209051600a82019061164d908490612845565b908152602001604051809103902060006116679190612069565b4260069091015550565b3360009081526003602052604090205460ff16156116d15760405162461bcd60e51b815260206004820152601760248201527f5573657220616c726561647920726567697374657265640000000000000000006044820152606401610644565b60006001600160a01b03166004866040516116ec9190612845565b908152604051908190036020019020546001600160a01b03161461174d5760405162461bcd60e51b8152602060048201526018602482015277115b585a5b08185b1c9958591e481c9959da5cdd195c995960421b6044820152606401610644565b60008651116117955760405162461bcd60e51b81526020600482015260146024820152734e616d652063616e6e6f7420626520656d70747960601b6044820152606401610644565b60008551116117de5760405162461bcd60e51b8152602060048201526015602482015274456d61696c2063616e6e6f7420626520656d70747960581b6044820152606401610644565b600a5460ff161561183b5760095434101561183b5760405162461bcd60e51b815260206004820152601d60248201527f496e73756666696369656e7420726567697374726174696f6e206665650000006044820152606401610644565b33600081815260026020526040902080546001600160a01b0319169091178155600181016118698882612785565b50600281016118788782612785565b50600381016118878682612785565b5060048101805485919060ff191660018360028111156118a9576118a961225a565b021790555060048101805462ffff0019166201000017905542600582018190556006820155600781016118dc8482612785565b50600881016118eb8382612785565b503360008181526003602052604090819020805460ff1916600117905551600490611917908990612845565b90815260405190819003602001902080546001600160a01b03929092166001600160a01b031990921691909117905584511561198e573360058660405161195e9190612845565b90815260405190819003602001902080546001600160a01b03929092166001600160a01b03199092169190911790555b600780546001810182556000919091527fa66cc928b5edb82af9bd49922954155ab7b0942694bea4ce44661d9a8736c6880180546001600160a01b031916339081179091556040517fb55f2195f4d9bf657054eaed9581ba0a67e1eec660941cf665585e5352fcbea090611a07908a908a908990612861565b60405180910390a250505050505050565b611a20611fbf565b600955565b3360009081526003602052604090205460ff16611a545760405162461bcd60e51b81526004016106449061267f565b3360009081526002602052604090206004015462010000900460ff16611a8c5760405162461bcd60e51b8152600401610644906126e6565b6000855111611ad45760405162461bcd60e51b81526020600482015260146024820152734e616d652063616e6e6f7420626520656d70747960601b6044820152606401610644565b6000845111611b1d5760405162461bcd60e51b8152602060048201526015602482015274456d61696c2063616e6e6f7420626520656d70747960581b6044820152606401610644565b336000908152600260208181526040928390208751918801919091209251909291611b4b9190840190612909565b604051809103902014611c5c5760006001600160a01b0316600486604051611b739190612845565b908152604051908190036020019020546001600160a01b031614611bd45760405162461bcd60e51b8152602060048201526018602482015277115b585a5b08185b1c9958591e481c9959da5cdd195c995960421b6044820152606401610644565b6000600482600201604051611be99190612909565b908152602001604051809103902060006101000a8154816001600160a01b0302191690836001600160a01b0316021790555033600486604051611c2c9190612845565b90815260405190819003602001902080546001600160a01b03929092166001600160a01b03199092169190911790555b83516020850120604051611c74906003840190612909565b604051809103902014611da857835115611d025760006001600160a01b0316600585604051611ca39190612845565b908152604051908190036020019020546001600160a01b031614611d025760405162461bcd60e51b8152602060048201526016602482015275115394c8185b1c9958591e481c9959da5cdd195c995960521b6044820152606401610644565b6000816003018054611d13906126ac565b90501115611d60576000600582600301604051611d309190612909565b90815260405190819003602001902080546001600160a01b03929092166001600160a01b03199092169190911790555b835115611da85733600585604051611d789190612845565b90815260405190819003602001902080546001600160a01b03929092166001600160a01b03199092169190911790555b60018101611db68782612785565b5060028101611dc58682612785565b5060038101611dd48582612785565b5060078101611de38482612785565b5060088101611df28382612785565b5042600682015560405133907fe5d18d6612696bff7df1db8015eac613241613297fa2ba2783993e4fd0e76f3d90611e2d9089908990612915565b60405180910390a2505050505050565b3360009081526003602052604090205460ff16611e6c5760405162461bcd60e51b81526004016106449061267f565b3360009081526002602052604090206004015462010000900460ff16611ea45760405162461bcd60e51b8152600401610644906126e6565b33600090815260026020908152604082206009810180546001810182559084529190922001611ed38382612785565b508181600a01846040516111e89190612845565b60606007805480602002602001604051908101604052809291908181526020018280548015611f3f57602002820191906000526020600020905b81546001600160a01b03168152600190910190602001808311611f21575b5050505050905090565b611f51611fbf565b6001600160a01b038116611fb65760405162461bcd60e51b815260206004820152602660248201527f4f776e61626c653a206e6577206f776e657220697320746865207a65726f206160448201526564647265737360d01b6064820152608401610644565b610cdc81612019565b6000546001600160a01b03163314610f265760405162461bcd60e51b815260206004820181905260248201527f4f776e61626c653a2063616c6c6572206973206e6f7420746865206f776e65726044820152606401610644565b600080546001600160a01b038381166001600160a01b0319831681178455604051919092169283917f8be0079c531659141344cd1fd0a4f28419497f9722a3daafe3b4186f6b6457e09190a35050565b508054612075906126ac565b6000825580601f10612085575050565b601f016020900490600052602060002090810190610cdc91905b808211156120b3576000815560010161209f565b5090565b80356001600160a01b03811681146120ce57600080fd5b919050565b6000602082840312156120e557600080fd5b6120ee826120b7565b9392505050565b6000806040838503121561210857600080fd5b823591506020830135801515811461211f57600080fd5b809150509250929050565b634e487b7160e01b600052604160045260246000fd5b600082601f83011261215157600080fd5b813567ffffffffffffffff8082111561216c5761216c61212a565b604051601f8301601f19908116603f011681019082821181831017156121945761219461212a565b816040528381528660208588010111156121ad57600080fd5b836020870160208301376000602085830101528094505050505092915050565b6000602082840312156121df57600080fd5b813567ffffffffffffffff8111156121f657600080fd5b61220284828501612140565b949350505050565b60005b8381101561222557818101518382015260200161220d565b50506000910152565b6000815180845261224681602086016020860161220a565b601f01601f19169290920160200192915050565b634e487b7160e01b600052602160045260246000fd5b6003811061228e57634e487b7160e01b600052602160045260246000fd5b9052565b6001600160a01b038c168152610160602082018190526000906122b78382018e61222e565b905082810360408401526122cb818d61222e565b905082810360608401526122df818c61222e565b90506122ee608084018b612270565b88151560a084015287151560c08401528660e08401528561010084015282810361012084015261231e818661222e565b9050828103610140840152612333818561222e565b9e9d5050505050505050505050505050565b60006020828403121561235757600080fd5b5035919050565b6001600160a01b038716815260c0602082018190526000906123829083018861222e565b8281036040840152612394818861222e565b606084019690965250509115156080830152151560a0909101529392505050565b600080604083850312156123c857600080fd5b823567ffffffffffffffff808211156123e057600080fd5b6123ec86838701612140565b9350602085013591508082111561240257600080fd5b5061240f85828601612140565b9150509250929050565b6000806040838503121561242c57600080fd5b612435836120b7565b9150602083013567ffffffffffffffff81111561245157600080fd5b61240f85828601612140565b6020815260006120ee602083018461222e565b8035600381106120ce57600080fd5b60008060008060008060c0878903121561249857600080fd5b863567ffffffffffffffff808211156124b057600080fd5b6124bc8a838b01612140565b975060208901359150808211156124d257600080fd5b6124de8a838b01612140565b965060408901359150808211156124f457600080fd5b6125008a838b01612140565b955061250e60608a01612470565b9450608089013591508082111561252457600080fd5b6125308a838b01612140565b935060a089013591508082111561254657600080fd5b5061255389828a01612140565b9150509295509295509295565b600080600080600060a0868803121561257857600080fd5b853567ffffffffffffffff8082111561259057600080fd5b61259c89838a01612140565b965060208801359150808211156125b257600080fd5b6125be89838a01612140565b955060408801359150808211156125d457600080fd5b6125e089838a01612140565b945060608801359150808211156125f657600080fd5b61260289838a01612140565b9350608088013591508082111561261857600080fd5b5061262588828901612140565b9150509295509295909350565b6020808252825182820181905260009190848201906040850190845b818110156126735783516001600160a01b03168352928401929184019160010161264e565b50909695505050505050565b602080825260139082015272155cd95c881b9bdd081c9959da5cdd195c9959606a1b604082015260600190565b600181811c908216806126c057607f821691505b6020821081036126e057634e487b7160e01b600052602260045260246000fd5b50919050565b6020808252600f908201526e55736572206e6f742061637469766560881b604082015260600190565b60006001820161272f57634e487b7160e01b600052601160045260246000fd5b5060010190565b601f82111561278057600081815260208120601f850160051c8101602086101561275d5750805b601f850160051c820191505b8181101561277c57828155600101612769565b5050505b505050565b815167ffffffffffffffff81111561279f5761279f61212a565b6127b3816127ad84546126ac565b84612736565b602080601f8311600181146127e857600084156127d05750858301515b600019600386901b1c1916600185901b17855561277c565b600085815260208120601f198616915b82811015612817578886015182559484019460019091019084016127f8565b50858210156128355787850151600019600388901b60f8161c191681555b5050505050600190811b01905550565b6000825161285781846020870161220a565b9190910192915050565b606081526000612874606083018661222e565b8281036020840152612886818661222e565b9150506122026040830184612270565b600081546128a3816126ac565b600182811680156128bb57600181146128d0576128ff565b60ff19841687528215158302870194506128ff565b8560005260208060002060005b858110156128f65781548a8201529084019082016128dd565b50505082870194505b5050505092915050565b60006120ee8284612896565b604081526000612928604083018561222e565b828103602084015261293a818561222e565b9594505050505056fea264697066735822122023bc1c3e48190c876cd8bf01127469ef5f3f10a6507b13555d699982ce741c1c64736f6c63430008130033a264697066735822122075c44186709b8f6b7bfcc39061213d9cae9fd7fe95c2dd82b2dc191b6fb67ba564736f6c63430008130033",
  "linkReferences": {},
  "deployedLinkReferences": {}
}