{
  "_format": "hh-sol-artifact-1",
  "contractName": "TimeSlotEscrow",
  "sourceName": "contracts/TimeSlotEscrow.sol",
  "abi": [
    {
      "inputs": [
        {
          "internalType": "address",
          "name": "_timeSlotNFT",
          "type": "address"
        },
        {
          "internalType": "address",
          "name": "_platformWallet",
          "type": "address"
        }
      ],
      "stateMutability": "nonpayable",
      "type": "constructor"
    },
    {
      "anonymous": false,
      "inputs": [
        {
          "indexed": true,
          "internalType": "uint256",
          "name": "tokenId",
          "type": "uint256"
        },
        {
          "indexed": true,
          "internalType": "address",
          "name": "buyer",
          "type": "address"
        },
        {
          "indexed": true,
          "internalType": "address",
          "name": "seller",
          "type": "address"
        }
      ],
      "name": "EscrowCancelled",
      "type": "event"
    },
    {
      "anonymous": false,
      "inputs": [
        {
          "indexed": true,
          "internalType": "uint256",
          "name": "tokenId",
          "type": "uint256"
        },
        {
          "indexed": true,
          "internalType": "address",
          "name": "buyer",
          "type": "address"
        },
        {
          "indexed": true,
          "internalType": "address",
          "name": "seller",
          "type": "address"
        },
        {
          "indexed": false,
          "internalType": "uint256",
          "name": "amount",
          "type": "uint256"
        }
      ],
      "name": "EscrowCompleted",
      "type": "event"
    },
    {
      "anonymous": false,
      "inputs": [
        {
          "indexed": true,
          "internalType": "uint256",
          "name": "tokenId",
          "type": "uint256"
        },
        {
          "indexed": true,
          "internalType": "address",
          "name": "buyer",
          "type": "address"
        },
        {
          "indexed": true,
          "internalType": "address",
          "name": "seller",
          "type": "address"
        }
      ],
      "name": "EscrowConfirmed",
      "type": "event"
    },
    {
      "anonymous": false,
      "inputs": [
        {
          "indexed": true,
          "internalType": "uint256",
          "name": "tokenId",
          "type": "uint256"
        },
        {
          "indexed": true,
          "internalType": "address",
          "name": "buyer",
          "type": "address"
        },
        {
          "indexed": true,
          "internalType": "address",
          "name": "seller",
          "type": "address"
        },
        {
          "indexed": false,
          "internalType": "uint256",
          "name": "amount",
          "type": "uint256"
        }
      ],
      "name": "EscrowCreated",
      "type": "event"
    },
    {
      "anonymous": false,
      "inputs": [
        {
          "indexed": true,
          "internalType": "uint256",
          "name": "tokenId",
          "type": "uint256"
        },
        {
          "indexed": true,
          "internalType": "address",
          "name": "disputer",
          "type": "address"
        },
        {
          "indexed": false,
          "internalType": "string",
          "name": "reason",
          "type": "string"
        }
      ],
      "name": "EscrowDisputed",
      "type": "event"
    },
    {
      "anonymous": false,
      "inputs": [
        {
          "indexed": true,
          "internalType": "address",
          "name": "previousOwner",
          "type": "address"
        },
        {
          "indexed": true,
          "internalType": "address",
          "name": "newOwner",
          "type": "address"
        }
      ],
      "name": "OwnershipTransferred",
      "type": "event"
    },
    {
      "inputs": [
        {
          "internalType": "uint256",
          "name": "_tokenId",
          "type": "uint256"
        }
      ],
      "name": "adminCancelAndRefund",
      "outputs": [],
      "stateMutability": "nonpayable",
      "type": "function"
    },
    {
      "inputs": [
        {
          "internalType": "uint256",
          "name": "_tokenId",
          "type": "uint256"
        }
      ],
      "name": "canDispute",
      "outputs": [
        {
          "internalType": "bool",
          "name": "",
          "type": "bool"
        }
      ],
      "stateMutability": "view",
      "type": "function"
    },
    {
      "inputs": [
        {
          "internalType": "uint256",
          "name": "_tokenId",
          "type": "uint256"
        }
      ],
      "name": "cancelEscrow",
      "outputs": [],
      "stateMutability": "nonpayable",
      "type": "function"
    },
    {
      "inputs": [
        {
          "internalType": "uint256",
          "name": "_tokenId",
          "type": "uint256"
        }
      ],
      "name": "completeEscrow",
      "outputs": [],
      "stateMutability": "nonpayable",
      "type": "function"
    },
    {
      "inputs": [
        {
          "internalType": "uint256",
          "name": "_tokenId",
          "type": "uint256"
        }
      ],
      "name": "confirmAppointment",
      "outputs": [],
      "stateMutability": "nonpayable",
      "type": "function"
    },
    {
      "inputs": [
        {
          "internalType": "uint256",
          "name": "_tokenId",
          "type": "uint256"
        },
        {
          "internalType": "address",
          "name": "_buyer",
          "type": "address"
        },
        {
          "internalType": "address",
          "name": "_seller",
          "type": "address"
        },
        {
          "internalType": "uint256",
          "name": "_amount",
          "type": "uint256"
        },
        {
          "internalType": "string",
          "name": "_meetingLink",
          "type": "string"
        },
        {
          "internalType": "string",
          "name": "_notes",
          "type": "string"
        }
      ],
      "name": "createEscrow",
      "outputs": [],
      "stateMutability": "payable",
      "type": "function"
    },
    {
      "inputs": [
        {
          "internalType": "uint256",
          "name": "_tokenId",
          "type": "uint256"
        },
        {
          "internalType": "string",
          "name": "_reason",
          "type": "string"
        }
      ],
      "name": "disputeEscrow",
      "outputs": [],
      "stateMutability": "nonpayable",
      "type": "function"
    },
    {
      "inputs": [],
      "name": "disputePeriod",
      "outputs": [
        {
          "internalType": "uint256",
          "name": "",
          "type": "uint256"
        }
      ],
      "stateMutability": "view",
      "type": "function"
    },
    {
      "inputs": [],
      "name": "emergencyWithdraw",
      "outputs": [],
      "stateMutability": "nonpayable",
      "type": "function"
    },
    {
      "inputs": [
        {
          "internalType": "uint256",
          "name": "",
          "type": "uint256"
        }
      ],
      "name": "escrowExists",
      "outputs": [
        {
          "internalType": "bool",
          "name": "",
          "type": "bool"
        }
      ],
      "stateMutability": "view",
      "type": "function"
    },
    {
      "inputs": [
        {
          "internalType": "uint256",
          "name": "",
          "type": "uint256"
        }
      ],
      "name": "escrows",
      "outputs": [
        {
          "internalType": "uint256",
          "name": "tokenId",
          "type": "uint256"
        },
        {
          "internalType": "address",
          "name": "buyer",
          "type": "address"
        },
        {
          "internalType": "address",
          "name": "seller",
          "type": "address"
        },
        {
          "internalType": "uint256",
          "name": "amount",
          "type": "uint256"
        },
        {
          "internalType": "uint256",
          "name": "startTime",
          "type": "uint256"
        },
        {
          "internalType": "uint256",
          "name": "endTime",
          "type": "uint256"
        },
        {
          "internalType": "enum TimeSlotEscrow.EscrowStatus",
          "name": "status",
          "type": "uint8"
        },
        {
          "internalType": "uint256",
          "name": "createdAt",
          "type": "uint256"
        },
        {
          "internalType": "uint256",
          "name": "disputeDeadline",
          "type": "uint256"
        },
        {
          "internalType": "string",
          "name": "meetingLink",
          "type": "string"
        },
        {
          "internalType": "string",
          "name": "notes",
          "type": "string"
        },
        {
          "internalType": "bool",
          "name": "buyerConfirmed",
          "type": "bool"
        },
        {
          "internalType": "bool",
          "name": "sellerConfirmed",
          "type": "bool"
        }
      ],
      "stateMutability": "view",
      "type": "function"
    },
    {
      "inputs": [
        {
          "internalType": "uint256",
          "name": "_tokenId",
          "type": "uint256"
        }
      ],
      "name": "getEscrow",
      "outputs": [
        {
          "components": [
            {
              "internalType": "uint256",
              "name": "tokenId",
              "type": "uint256"
            },
            {
              "internalType": "address",
              "name": "buyer",
              "type": "address"
            },
            {
              "internalType": "address",
              "name": "seller",
              "type": "address"
            },
            {
              "internalType": "uint256",
              "name": "amount",
              "type": "uint256"
            },
            {
              "internalType": "uint256",
              "name": "startTime",
              "type": "uint256"
            },
            {
              "internalType": "uint256",
              "name": "endTime",
              "type": "uint256"
            },
            {
              "internalType": "enum TimeSlotEscrow.EscrowStatus",
              "name": "status",
              "type": "uint8"
            },
            {
              "internalType": "uint256",
              "name": "createdAt",
              "type": "uint256"
            },
            {
              "internalType": "uint256",
              "name": "disputeDeadline",
              "type": "uint256"
            },
            {
              "internalType": "string",
              "name": "meetingLink",
              "type": "string"
            },
            {
              "internalType": "string",
              "name": "notes",
              "type": "string"
            },
            {
              "internalType": "bool",
              "name": "buyerConfirmed",
              "type": "bool"
            },
            {
              "internalType": "bool",
              "name": "sellerConfirmed",
              "type": "bool"
            }
          ],
          "internalType": "struct TimeSlotEscrow.EscrowData",
          "name": "",
          "type": "tuple"
        }
      ],
      "stateMutability": "view",
      "type": "function"
    },
    {
      "inputs": [
        {
          "internalType": "address",
          "name": "_user",
          "type": "address"
        }
      ],
      "name": "getUserEscrows",
      "outputs": [
        {
          "internalType": "uint256[]",
          "name": "",
          "type": "uint256[]"
        }
      ],
      "stateMutability": "view",
      "type": "function"
    },
    {
      "inputs": [],
      "name": "owner",
      "outputs": [
        {
          "internalType": "address",
          "name": "",
          "type": "address"
        }
      ],
      "stateMutability": "view",
      "type": "function"
    },
    {
      "inputs": [],
      "name": "platformFeePercent",
      "outputs": [
        {
          "internalType": "uint256",
          "name": "",
          "type": "uint256"
        }
      ],
      "stateMutability": "view",
      "type": "function"
    },
    {
      "inputs": [],
      "name": "platformWallet",
      "outputs": [
        {
          "internalType": "address",
          "name": "",
          "type": "address"
        }
      ],
      "stateMutability": "view",
      "type": "function"
    },
    {
      "inputs": [],
      "name": "renounceOwnership",
      "outputs": [],
      "stateMutability": "nonpayable",
      "type": "function"
    },
    {
      "inputs": [
        {
          "internalType": "uint256",
          "name": "_tokenId",
          "type": "uint256"
        },
        {
          "internalType": "bool",
          "name": "_favorBuyer",
          "type": "bool"
        },
        {
          "internalType": "uint256",
          "name": "_sellerAmount",
          "type": "uint256"
        },
        {
          "internalType": "uint256",
          "name": "_buyerAmount",
          "type": "uint256"
        }
      ],
      "name": "resolveDispute",
      "outputs": [],
      "stateMutability": "nonpayable",
      "type": "function"
    },
    {
      "inputs": [],
      "name": "timeSlotNFT",
      "outputs": [
        {
          "internalType": "contract TimeSlotNFT",
          "name": "",
          "type": "address"
        }
      ],
      "stateMutability": "view",
      "type": "function"
    },
    {
      "inputs": [
        {
          "internalType": "address",
          "name": "newOwner",
          "type": "address"
        }
      ],
      "name": "transferOwnership",
      "outputs": [],
      "stateMutability": "nonpayable",
      "type": "function"
    },
    {
      "inputs": [
        {
          "internalType": "uint256",
          "name": "_newPeriod",
          "type": "uint256"
        }
      ],
      "name": "updateDisputePeriod",
      "outputs": [],
      "stateMutability": "nonpayable",
      "type": "function"
    },
    {
      "inputs": [
        {
          "internalType": "uint256",
          "name": "_tokenId",
          "type": "uint256"
        },
        {
          "internalType": "string",
          "name": "_newLink",
          "type": "string"
        }
      ],
      "name": "updateMeetingLink",
      "outputs": [],
      "stateMutability": "nonpayable",
      "type": "function"
    },
    {
      "inputs": [
        {
          "internalType": "uint256",
          "name": "_tokenId",
          "type": "uint256"
        },
        {
          "internalType": "string",
          "name": "_newNotes",
          "type": "string"
        }
      ],
      "name": "updateNotes",
      "outputs": [],
      "stateMutability": "nonpayable",
      "type": "function"
    },
    {
      "inputs": [
        {
          "internalType": "uint256",
          "name": "_newFeePercent",
          "type": "uint256"
        }
      ],
      "name": "updatePlatformFee",
      "outputs": [],
      "stateMutability": "nonpayable",
      "type": "function"
    },
    {
      "inputs": [
        {
          "internalType": "address",
          "name": "",
          "type": "address"
        },
        {
          "internalType": "uint256",
          "name": "",
          "type": "uint256"
        }
      ],
      "name": "userEscrows",
      "outputs": [
        {
          "internalType": "uint256",
          "name": "",
          "type": "uint256"
        }
      ],
      "stateMutability": "view",
      "type": "function"
    }
  ],
  "bytecode": "0x60806040526201518060065560016007553480156200001d57600080fd5b5060405162002a6638038062002a668339810160408190526200004091620000f1565b6001600055620000503362000082565b600280546001600160a01b039384166001600160a01b0319918216179091556008805492909316911617905562000129565b600180546001600160a01b038381166001600160a01b0319831681179093556040519116919082907f8be0079c531659141344cd1fd0a4f28419497f9722a3daafe3b4186f6b6457e090600090a35050565b80516001600160a01b0381168114620000ec57600080fd5b919050565b600080604083850312156200010557600080fd5b6200011083620000d4565b91506200012060208401620000d4565b90509250929050565b61292d80620001396000396000f3fe6080604052600436106101665760003560e01c80638e0eac0f116100d1578063d321c6cf1161008a578063e018243611610064578063e018243614610452578063f2fde38b14610472578063f792bf2414610492578063fa2af9da146104b257600080fd5b8063d321c6cf146103fd578063db2e21bc1461041d578063df3e0a1d1461043257600080fd5b80638e0eac0f1461031d5780639f5644fd1461035d578063aa0b59881461037d578063ac1b23351461039d578063b2a4401b146103bd578063cefead95146103dd57600080fd5b8063715018a611610123578063715018a61461025357806376b2e0e5146102685780637d19e596146102885780637f944dd0146102b55780638c639a85146102d55780638da5cb5b146102eb57600080fd5b8063012f52ee1461016b57806306e652dd146101ad57806328e5dc55146101cf5780632a9be529146101e25780635bf31d4d146102025780635ccea85e14610226575b600080fd5b34801561017757600080fd5b5061018b610186366004612059565b6104d2565b6040516101a49d9c9b9a999897969594939291906120fa565b60405180910390f35b3480156101b957600080fd5b506101cd6101c8366004612059565b61065f565b005b6101cd6101dd3660046122a0565b6106c3565b3480156101ee57600080fd5b506101cd6101fd36600461233b565b610b24565b34801561020e57600080fd5b5061021860065481565b6040519081526020016101a4565b34801561023257600080fd5b50610246610241366004612382565b610c2e565b6040516101a4919061239f565b34801561025f57600080fd5b506101cd610c9a565b34801561027457600080fd5b506101cd61028336600461233b565b610cae565b34801561029457600080fd5b506102a86102a3366004612059565b610db0565b6040516101a491906123e3565b3480156102c157600080fd5b506102186102d03660046124d5565b610fdf565b3480156102e157600080fd5b5061021860075481565b3480156102f757600080fd5b506001546001600160a01b03165b6040516001600160a01b0390911681526020016101a4565b34801561032957600080fd5b5061034d610338366004612059565b60056020526000908152604090205460ff1681565b60405190151581526020016101a4565b34801561036957600080fd5b506101cd61037836600461233b565b611010565b34801561038957600080fd5b506101cd610398366004612059565b6111c7565b3480156103a957600080fd5b5061034d6103b8366004612059565b61121c565b3480156103c957600080fd5b50600254610305906001600160a01b031681565b3480156103e957600080fd5b506101cd6103f8366004612059565b61147f565b34801561040957600080fd5b506101cd610418366004612059565b611681565b34801561042957600080fd5b506101cd6117b8565b34801561043e57600080fd5b506101cd61044d366004612059565b6117fc565b34801561045e57600080fd5b506101cd61046d366004612059565b611a71565b34801561047e57600080fd5b506101cd61048d366004612382565b611c73565b34801561049e57600080fd5b506101cd6104ad36600461250f565b611ce9565b3480156104be57600080fd5b50600854610305906001600160a01b031681565b60036020819052600091825260409091208054600182015460028301549383015460048401546005850154600686015460078701546008880154600989018054989a6001600160a01b039889169a98169896979596949560ff909416949293919261053c9061254c565b80601f01602080910402602001604051908101604052809291908181526020018280546105689061254c565b80156105b55780601f1061058a576101008083540402835291602001916105b5565b820191906000526020600020905b81548152906001019060200180831161059857829003601f168201915b50505050509080600a0180546105ca9061254c565b80601f01602080910402602001604051908101604052809291908181526020018280546105f69061254c565b80156106435780601f1061061857610100808354040283529160200191610643565b820191906000526020600020905b81548152906001019060200180831161062657829003601f168201915b505050600b909301549192505060ff808216916101009004168d565b610667611f1e565b610e10811015801561067c575062093a808111155b6106be5760405162461bcd60e51b815260206004820152600e60248201526d125b9d985b1a59081c195c9a5bd960921b60448201526064015b60405180910390fd5b600655565b6106cb611f1e565b60008681526005602052604090205460ff16156107225760405162461bcd60e51b8152602060048201526015602482015274457363726f7720616c72656164792065786973747360581b60448201526064016106b5565b6001600160a01b0385161580159061074257506001600160a01b03841615155b6107825760405162461bcd60e51b8152602060048201526011602482015270496e76616c69642061646472657373657360781b60448201526064016106b5565b600083116107d25760405162461bcd60e51b815260206004820152601d60248201527f416d6f756e74206d7573742062652067726561746572207468616e203000000060448201526064016106b5565b823410156108165760405162461bcd60e51b8152602060048201526011602482015270115cd8dc9bddc81b9bdd08199d5b991959607a1b60448201526064016106b5565b600254604051632b85dcc960e01b8152600481018890526000916001600160a01b031690632b85dcc990602401600060405180830381865afa158015610860573d6000803e3d6000fd5b505050506040513d6000823e601f3d908101601f1916820160405261088891908101906125ee565b90508060a0015180156108b05750856001600160a01b03168160c001516001600160a01b0316145b6108ee5760405162461bcd60e51b815260206004820152600f60248201526e496e76616c696420626f6f6b696e6760881b60448201526064016106b5565b604080516101a0810182528881526001600160a01b0388811660208301528716818301526060808201879052918301516080820152908201805160a0830152600060c08301524260e0830152600654905161010083019161094e91612715565b8152602080820186905260408083018690526000606080850182905260809485018290528c82526003808552918390208651815593860151600185810180546001600160a01b039384166001600160a01b03199182161790915594880151600287018054919093169516949094179055850151908301559183015160048083019190915560a0840151600583015560c084015160068301805493949193909260ff1990911691908490811115610a0657610a06612072565b021790555060e0820151600782015561010082015160088201556101208201516009820190610a359082612779565b50610140820151600a820190610a4b9082612779565b50610160820151600b90910180546101809093015115156101000261ff00199215159290921661ffff19909316929092171790556000878152600560209081526040808320805460ff191660019081179091556001600160a01b03808b168086526004855283862080548085018255908752858720018d9055908a1680865283862080549384018155865293909420018a90555190919089907f9405ad0a6208539879349284d71265479b1623846f70303da1f9890d6e8c10a790610b139089815260200190565b60405180910390a450505050505050565b60008281526003602052604090206001015482906001600160a01b0316331480610b6757506000818152600360205260409020600201546001600160a01b031633145b610b835760405162461bcd60e51b81526004016106b590612839565b600083815260056020526040902054839060ff16610bb35760405162461bcd60e51b81526004016106b590612869565b600084815260036020526040812090600682015460ff166004811115610bdb57610bdb612072565b14610c185760405162461bcd60e51b815260206004820152600d60248201526c43616e6e6f742075706461746560981b60448201526064016106b5565b60098101610c268582612779565b505050505050565b6001600160a01b038116600090815260046020908152604091829020805483518184028101840190945280845260609392830182828015610c8e57602002820191906000526020600020905b815481526020019060010190808311610c7a575b50505050509050919050565b610ca2611f1e565b610cac6000611f78565b565b60008281526003602052604090206001015482906001600160a01b0316331480610cf157506000818152600360205260409020600201546001600160a01b031633145b610d0d5760405162461bcd60e51b81526004016106b590612839565b600083815260056020526040902054839060ff16610d3d5760405162461bcd60e51b81526004016106b590612869565b600084815260036020526040812090600682015460ff166004811115610d6557610d65612072565b14610da25760405162461bcd60e51b815260206004820152600d60248201526c43616e6e6f742075706461746560981b60448201526064016106b5565b600a8101610c268582612779565b610db8611fca565b60008281526005602052604090205460ff16610de65760405162461bcd60e51b81526004016106b590612869565b60008281526003602081815260409283902083516101a0810185528154815260018201546001600160a01b03908116938201939093526002820154909216938201939093529082015460608201526004808301546080830152600583015460a0830152600683015491929160c084019160ff90911690811115610e6b57610e6b612072565b6004811115610e7c57610e7c612072565b81526020016007820154815260200160088201548152602001600982018054610ea49061254c565b80601f0160208091040260200160405190810160405280929190818152602001828054610ed09061254c565b8015610f1d5780601f10610ef257610100808354040283529160200191610f1d565b820191906000526020600020905b815481529060010190602001808311610f0057829003601f168201915b50505050508152602001600a82018054610f369061254c565b80601f0160208091040260200160405190810160405280929190818152602001828054610f629061254c565b8015610faf5780601f10610f8457610100808354040283529160200191610faf565b820191906000526020600020905b815481529060010190602001808311610f9257829003601f168201915b5050509183525050600b919091015460ff8082161515602084015261010090910416151560409091015292915050565b60046020528160005260406000208181548110610ffb57600080fd5b90600052602060002001600091509150505481565b60008281526003602052604090206001015482906001600160a01b031633148061105357506000818152600360205260409020600201546001600160a01b031633145b61106f5760405162461bcd60e51b81526004016106b590612839565b600083815260056020526040902054839060ff1661109f5760405162461bcd60e51b81526004016106b590612869565b600084815260036020526040812090600682015460ff1660048111156110c7576110c7612072565b14806110eb57506001600682015460ff1660048111156110e9576110e9612072565b145b6111285760405162461bcd60e51b815260206004820152600e60248201526d496e76616c69642073746174757360901b60448201526064016106b5565b80600801544211156111755760405162461bcd60e51b8152602060048201526016602482015275111a5cdc1d5d19481c195c9a5bd908195e1c1a5c995960521b60448201526064016106b5565b60068101805460ff19166002179055604051339086907fc523357a17c19a0da11b08e9f4d7e4fbed304cbe1be1d3583e4d5a677d75d709906111b8908890612898565b60405180910390a35050505050565b6111cf611f1e565b60058111156112175760405162461bcd60e51b81526020600482015260146024820152734665652063616e6e6f742065786365656420352560601b60448201526064016106b5565b600755565b60008181526005602052604081205460ff1661123a57506000919050565b600082815260036020818152604080842081516101a0810183528154815260018201546001600160a01b03908116948201949094526002820154909316918301919091529182015460608201526004808301546080830152600583015460a0830152600683015491929160c084019160ff909116908111156112be576112be612072565b60048111156112cf576112cf612072565b815260200160078201548152602001600882015481526020016009820180546112f79061254c565b80601f01602080910402602001604051908101604052809291908181526020018280546113239061254c565b80156113705780601f1061134557610100808354040283529160200191611370565b820191906000526020600020905b81548152906001019060200180831161135357829003601f168201915b50505050508152602001600a820180546113899061254c565b80601f01602080910402602001604051908101604052809291908181526020018280546113b59061254c565b80156114025780601f106113d757610100808354040283529160200191611402565b820191906000526020600020905b8154815290600101906020018083116113e557829003601f168201915b5050509183525050600b919091015460ff80821615156020840152610100909104161515604090910152905060008160c00151600481111561144657611446612072565b1480611467575060018160c00151600481111561146557611465612072565b145b801561147857508061010001514211155b9392505050565b60008181526003602052604090206001015481906001600160a01b03163314806114c257506000818152600360205260409020600201546001600160a01b031633145b6114de5760405162461bcd60e51b81526004016106b590612839565b600082815260056020526040902054829060ff1661150e5760405162461bcd60e51b81526004016106b590612869565b600083815260036020526040812090600682015460ff16600481111561153657611536612072565b146115745760405162461bcd60e51b815260206004820152600e60248201526d496e76616c69642073746174757360901b60448201526064016106b5565b80600401544210156115c85760405162461bcd60e51b815260206004820152601760248201527f4170706f696e746d656e74206e6f74207374617274656400000000000000000060448201526064016106b5565b60018101546001600160a01b031633036115f057600b8101805460ff19166001179055611602565b600b8101805461ff0019166101001790555b600b81015460ff16801561161f5750600b810154610100900460ff165b1561167b5760068101805460ff191660019081179091556002820154908201546040516001600160a01b03928316929091169086907f57686fbfe51936415c2986151f93a4f5d1e9dc80ff3e4de21d761283e1d7167190600090a45b50505050565b611689611f1e565b600081815260056020526040902054819060ff166116b95760405162461bcd60e51b81526004016106b590612869565b600082815260036020526040812090600682015460ff1660048111156116e1576116e1612072565b1461171e5760405162461bcd60e51b815260206004820152600d60248201526c10d85b9b9bdd0818d85b98d95b609a1b60448201526064016106b5565b60068101805460ff19166004179055600181015460038201546040516001600160a01b03909216916108fc82150291906000818181858888f1935050505015801561176d573d6000803e3d6000fd5b50600281015460018201546040516001600160a01b03928316929091169085907ffca3ebde593847ecc88c2f405eb4ae8805802c3e13f028aabc38759b87c8524090600090a4505050565b6117c0611f1e565b6001546040516001600160a01b03909116904780156108fc02916000818181858888f193505050501580156117f9573d6000803e3d6000fd5b50565b60008181526003602052604090206001015481906001600160a01b031633148061183f57506000818152600360205260409020600201546001600160a01b031633145b61185b5760405162461bcd60e51b81526004016106b590612839565b600082815260056020526040902054829060ff1661188b5760405162461bcd60e51b81526004016106b590612869565b60008381526003602052604090206001600682015460ff1660048111156118b4576118b4612072565b146119015760405162461bcd60e51b815260206004820152601760248201527f4d75737420626520636f6e6669726d656420666972737400000000000000000060448201526064016106b5565b80600501544210156119555760405162461bcd60e51b815260206004820152601860248201527f4170706f696e746d656e74206e6f742066696e6973686564000000000000000060448201526064016106b5565b60068101805460ff191660039081179091556007549082015460009160649161197e91906128ab565b61198891906128c2565b9050600081836003015461199c91906128e4565b6008546040519192506001600160a01b03169083156108fc029084906000818181858888f193505050501580156119d7573d6000803e3d6000fd5b5060028301546040516001600160a01b039091169082156108fc029083906000818181858888f19350505050158015611a14573d6000803e3d6000fd5b506002830154600184015460038501546040519081526001600160a01b03928316929091169088907f9dec7057567c230c9ad82c429f563876768f2ac36c936f3f31e3f03b4d5909219060200160405180910390a4505050505050565b60008181526003602052604090206001015481906001600160a01b0316331480611ab457506000818152600360205260409020600201546001600160a01b031633145b611ad05760405162461bcd60e51b81526004016106b590612839565b600082815260056020526040902054829060ff16611b005760405162461bcd60e51b81526004016106b590612869565b600083815260036020526040812090600682015460ff166004811115611b2857611b28612072565b14611b655760405162461bcd60e51b815260206004820152600d60248201526c10d85b9b9bdd0818d85b98d95b609a1b60448201526064016106b5565b610e108160040154611b7791906128e4565b4210611bd85760405162461bcd60e51b815260206004820152602a60248201527f43616e6e6f742063616e63656c2077697468696e203120686f7572206f6620616044820152691c1c1bda5b9d1b595b9d60b21b60648201526084016106b5565b60068101805460ff19166004179055600181015460038201546040516001600160a01b03909216916108fc82150291906000818181858888f19350505050158015611c27573d6000803e3d6000fd5b50600281015460018201546040516001600160a01b03928316929091169086907ffca3ebde593847ecc88c2f405eb4ae8805802c3e13f028aabc38759b87c8524090600090a450505050565b611c7b611f1e565b6001600160a01b038116611ce05760405162461bcd60e51b815260206004820152602660248201527f4f776e61626c653a206e6577206f776e657220697320746865207a65726f206160448201526564647265737360d01b60648201526084016106b5565b6117f981611f78565b611cf1611f1e565b600084815260056020526040902054849060ff16611d215760405162461bcd60e51b81526004016106b590612869565b60008581526003602052604090206002600682015460ff166004811115611d4a57611d4a612072565b14611d865760405162461bcd60e51b815260206004820152600c60248201526b139bdd08191a5cdc1d5d195960a21b60448201526064016106b5565b6003810154611d958486612715565b1115611dd55760405162461bcd60e51b815260206004820152600f60248201526e496e76616c696420616d6f756e747360881b60448201526064016106b5565b60068101805460ff191660031790558315611e285760028101546040516001600160a01b039091169085156108fc029086906000818181858888f19350505050158015611e26573d6000803e3d6000fd5b505b8215611e6c5760018101546040516001600160a01b039091169084156108fc029085906000818181858888f19350505050158015611e6a573d6000803e3d6000fd5b505b600083858360030154611e7f91906128e4565b611e8991906128e4565b90508015611ecd576008546040516001600160a01b039091169082156108fc029083906000818181858888f19350505050158015611ecb573d6000803e3d6000fd5b505b6002820154600183015460038401546040519081526001600160a01b03928316929091169089907f9dec7057567c230c9ad82c429f563876768f2ac36c936f3f31e3f03b4d59092190602001610b13565b6001546001600160a01b03163314610cac5760405162461bcd60e51b815260206004820181905260248201527f4f776e61626c653a2063616c6c6572206973206e6f7420746865206f776e657260448201526064016106b5565b600180546001600160a01b038381166001600160a01b0319831681179093556040519116919082907f8be0079c531659141344cd1fd0a4f28419497f9722a3daafe3b4186f6b6457e090600090a35050565b604051806101a001604052806000815260200160006001600160a01b0316815260200160006001600160a01b031681526020016000815260200160008152602001600081526020016000600481111561202557612025612072565b8152602001600081526020016000815260200160608152602001606081526020016000151581526020016000151581525090565b60006020828403121561206b57600080fd5b5035919050565b634e487b7160e01b600052602160045260246000fd5b600581106120a657634e487b7160e01b600052602160045260246000fd5b9052565b60005b838110156120c55781810151838201526020016120ad565b50506000910152565b600081518084526120e68160208601602086016120aa565b601f01601f19169290920160200192915050565b8d81526001600160a01b038d811660208301528c166040820152606081018b9052608081018a905260a08101899052600061213860c083018a612088565b8760e0830152866101008301526101a061012083015261215c6101a08301876120ce565b82810361014084015261216f81876120ce565b91505083151561016083015261218a61018083018415159052565b9e9d5050505050505050505050505050565b6001600160a01b03811681146117f957600080fd5b634e487b7160e01b600052604160045260246000fd5b604051610160810167ffffffffffffffff811182821017156121eb576121eb6121b1565b60405290565b604051601f8201601f1916810167ffffffffffffffff8111828210171561221a5761221a6121b1565b604052919050565b600067ffffffffffffffff82111561223c5761223c6121b1565b50601f01601f191660200190565b600082601f83011261225b57600080fd5b813561226e61226982612222565b6121f1565b81815284602083860101111561228357600080fd5b816020850160208301376000918101602001919091529392505050565b60008060008060008060c087890312156122b957600080fd5b8635955060208701356122cb8161219c565b945060408701356122db8161219c565b935060608701359250608087013567ffffffffffffffff808211156122ff57600080fd5b61230b8a838b0161224a565b935060a089013591508082111561232157600080fd5b5061232e89828a0161224a565b9150509295509295509295565b6000806040838503121561234e57600080fd5b82359150602083013567ffffffffffffffff81111561236c57600080fd5b6123788582860161224a565b9150509250929050565b60006020828403121561239457600080fd5b81356114788161219c565b6020808252825182820181905260009190848201906040850190845b818110156123d7578351835292840192918401916001016123bb565b50909695505050505050565b60208152815160208201526000602083015161240a60408401826001600160a01b03169052565b5060408301516001600160a01b03811660608401525060608301516080830152608083015160a083015260a083015160c083015260c083015161245060e0840182612088565b5060e083015161010083810191909152830151610120808401919091528301516101a061014080850182905261248a6101c08601846120ce565b9250808601519050610160601f1986850301818701526124aa84836120ce565b9350808701519150506101806124c38187018315159052565b90950151151593019290925250919050565b600080604083850312156124e857600080fd5b82356124f38161219c565b946020939093013593505050565b80151581146117f957600080fd5b6000806000806080858703121561252557600080fd5b84359350602085013561253781612501565b93969395505050506040820135916060013590565b600181811c9082168061256057607f821691505b60208210810361258057634e487b7160e01b600052602260045260246000fd5b50919050565b80516125918161219c565b919050565b805161259181612501565b600082601f8301126125b257600080fd5b81516125c061226982612222565b8181528460208386010111156125d557600080fd5b6125e68260208301602087016120aa565b949350505050565b60006020828403121561260057600080fd5b815167ffffffffffffffff8082111561261857600080fd5b90830190610160828603121561262d57600080fd5b6126356121c7565b8251815261264560208401612586565b602082015260408301516040820152606083015160608201526080830151608082015261267460a08401612596565b60a082015261268560c08401612586565b60c082015261269660e08401612596565b60e082015261010080840151838111156126af57600080fd5b6126bb888287016125a1565b82840152505061012080840151838111156126d557600080fd5b6126e1888287016125a1565b91830191909152506101409283015192810192909252509392505050565b634e487b7160e01b600052601160045260246000fd5b80820180821115612728576127286126ff565b92915050565b601f82111561277457600081815260208120601f850160051c810160208610156127555750805b601f850160051c820191505b81811015610c2657828155600101612761565b505050565b815167ffffffffffffffff811115612793576127936121b1565b6127a7816127a1845461254c565b8461272e565b602080601f8311600181146127dc57600084156127c45750858301515b600019600386901b1c1916600185901b178555610c26565b600085815260208120601f198616915b8281101561280b578886015182559484019460019091019084016127ec565b50858210156128295787850151600019600388901b60f8161c191681555b5050505050600190811b01905550565b602080825260169082015275139bdd08195cd8dc9bddc81c185c9d1a58da5c185b9d60521b604082015260600190565b602080825260159082015274115cd8dc9bddc8191bd95cc81b9bdd08195e1a5cdd605a1b604082015260600190565b60208152600061147860208301846120ce565b8082028115828204841417612728576127286126ff565b6000826128df57634e487b7160e01b600052601260045260246000fd5b500490565b81810381811115612728576127286126ff56fea264697066735822122038cf8907ca3d85bbc813fe72e11abe7842c28c9e6c5928fedaf9029c4539c22564736f6c63430008130033",
  "linkReferences": {},
  "deployedLinkReferences": {}
}