{
  "_format": "hh-sol-artifact-1",
  "contractName": "ReviewSystem",
  "sourceName": "contracts/ReviewSystem.sol",
  "abi": [
    {
      "inputs": [
        {
          "internalType": "address",
          "name": "_timeSlotNFT",
          "type": "address"
        },
        {
          "internalType": "address",
          "name": "_timeSlotEscrow",
          "type": "address"
        }
      ],
      "stateMutability": "nonpayable",
      "type": "constructor"
    },
    {
      "anonymous": false,
      "inputs": [
        {
          "indexed": true,
          "internalType": "address",
          "name": "previousOwner",
          "type": "address"
        },
        {
          "indexed": true,
          "internalType": "address",
          "name": "newOwner",
          "type": "address"
        }
      ],
      "name": "OwnershipTransferred",
      "type": "event"
    },
    {
      "anonymous": false,
      "inputs": [
        {
          "indexed": true,
          "internalType": "uint256",
          "name": "tokenId",
          "type": "uint256"
        },
        {
          "indexed": true,
          "internalType": "address",
          "name": "reviewer",
          "type": "address"
        },
        {
          "indexed": true,
          "internalType": "address",
          "name": "expert",
          "type": "address"
        },
        {
          "indexed": false,
          "internalType": "uint256",
          "name": "rating",
          "type": "uint256"
        },
        {
          "indexed": false,
          "internalType": "string",
          "name": "comment",
          "type": "string"
        }
      ],
      "name": "ReviewSubmitted",
      "type": "event"
    },
    {
      "anonymous": false,
      "inputs": [
        {
          "indexed": true,
          "internalType": "uint256",
          "name": "tokenId",
          "type": "uint256"
        },
        {
          "indexed": true,
          "internalType": "address",
          "name": "reviewer",
          "type": "address"
        },
        {
          "indexed": false,
          "internalType": "uint256",
          "name": "newRating",
          "type": "uint256"
        },
        {
          "indexed": false,
          "internalType": "string",
          "name": "newComment",
          "type": "string"
        }
      ],
      "name": "ReviewUpdated",
      "type": "event"
    },
    {
      "inputs": [
        {
          "internalType": "uint256",
          "name": "",
          "type": "uint256"
        }
      ],
      "name": "canReview",
      "outputs": [
        {
          "internalType": "bool",
          "name": "",
          "type": "bool"
        }
      ],
      "stateMutability": "view",
      "type": "function"
    },
    {
      "inputs": [
        {
          "internalType": "uint256",
          "name": "_tokenId",
          "type": "uint256"
        }
      ],
      "name": "emergencyDisableReview",
      "outputs": [],
      "stateMutability": "nonpayable",
      "type": "function"
    },
    {
      "inputs": [
        {
          "internalType": "uint256",
          "name": "_tokenId",
          "type": "uint256"
        }
      ],
      "name": "emergencyEnableReview",
      "outputs": [],
      "stateMutability": "nonpayable",
      "type": "function"
    },
    {
      "inputs": [
        {
          "internalType": "uint256",
          "name": "_tokenId",
          "type": "uint256"
        }
      ],
      "name": "enableReview",
      "outputs": [],
      "stateMutability": "nonpayable",
      "type": "function"
    },
    {
      "inputs": [
        {
          "internalType": "address",
          "name": "",
          "type": "address"
        },
        {
          "internalType": "uint256",
          "name": "",
          "type": "uint256"
        }
      ],
      "name": "expertReviews",
      "outputs": [
        {
          "internalType": "uint256",
          "name": "",
          "type": "uint256"
        }
      ],
      "stateMutability": "view",
      "type": "function"
    },
    {
      "inputs": [
        {
          "internalType": "address",
          "name": "",
          "type": "address"
        }
      ],
      "name": "expertStats",
      "outputs": [
        {
          "internalType": "uint256",
          "name": "totalReviews",
          "type": "uint256"
        },
        {
          "internalType": "uint256",
          "name": "averageRating",
          "type": "uint256"
        },
        {
          "internalType": "uint256",
          "name": "totalRating",
          "type": "uint256"
        }
      ],
      "stateMutability": "view",
      "type": "function"
    },
    {
      "inputs": [
        {
          "internalType": "address",
          "name": "_expert",
          "type": "address"
        }
      ],
      "name": "getExpertRatingBreakdown",
      "outputs": [
        {
          "internalType": "uint256",
          "name": "totalReviews",
          "type": "uint256"
        },
        {
          "internalType": "uint256",
          "name": "averageRating",
          "type": "uint256"
        },
        {
          "internalType": "uint256[6]",
          "name": "ratingCounts",
          "type": "uint256[6]"
        }
      ],
      "stateMutability": "view",
      "type": "function"
    },
    {
      "inputs": [
        {
          "internalType": "address",
          "name": "_expert",
          "type": "address"
        }
      ],
      "name": "getExpertReviews",
      "outputs": [
        {
          "internalType": "uint256[]",
          "name": "",
          "type": "uint256[]"
        }
      ],
      "stateMutability": "view",
      "type": "function"
    },
    {
      "inputs": [
        {
          "internalType": "uint256",
          "name": "_tokenId",
          "type": "uint256"
        }
      ],
      "name": "getReview",
      "outputs": [
        {
          "components": [
            {
              "internalType": "uint256",
              "name": "tokenId",
              "type": "uint256"
            },
            {
              "internalType": "address",
              "name": "reviewer",
              "type": "address"
            },
            {
              "internalType": "address",
              "name": "expert",
              "type": "address"
            },
            {
              "internalType": "uint256",
              "name": "rating",
              "type": "uint256"
            },
            {
              "internalType": "string",
              "name": "comment",
              "type": "string"
            },
            {
              "internalType": "uint256",
              "name": "timestamp",
              "type": "uint256"
            },
            {
              "internalType": "bool",
              "name": "isVerified",
              "type": "bool"
            }
          ],
          "internalType": "struct ReviewSystem.Review",
          "name": "",
          "type": "tuple"
        }
      ],
      "stateMutability": "view",
      "type": "function"
    },
    {
      "inputs": [
        {
          "internalType": "uint256",
          "name": "_reviewId",
          "type": "uint256"
        }
      ],
      "name": "getReviewById",
      "outputs": [
        {
          "components": [
            {
              "internalType": "uint256",
              "name": "tokenId",
              "type": "uint256"
            },
            {
              "internalType": "address",
              "name": "reviewer",
              "type": "address"
            },
            {
              "internalType": "address",
              "name": "expert",
              "type": "address"
            },
            {
              "internalType": "uint256",
              "name": "rating",
              "type": "uint256"
            },
            {
              "internalType": "string",
              "name": "comment",
              "type": "string"
            },
            {
              "internalType": "uint256",
              "name": "timestamp",
              "type": "uint256"
            },
            {
              "internalType": "bool",
              "name": "isVerified",
              "type": "bool"
            }
          ],
          "internalType": "struct ReviewSystem.Review",
          "name": "",
          "type": "tuple"
        }
      ],
      "stateMutability": "view",
      "type": "function"
    },
    {
      "inputs": [
        {
          "internalType": "uint256",
          "name": "_limit",
          "type": "uint256"
        }
      ],
      "name": "getTopRatedExperts",
      "outputs": [
        {
          "internalType": "address[]",
          "name": "experts",
          "type": "address[]"
        },
        {
          "internalType": "uint256[]",
          "name": "ratings",
          "type": "uint256[]"
        },
        {
          "internalType": "uint256[]",
          "name": "reviewCounts",
          "type": "uint256[]"
        }
      ],
      "stateMutability": "view",
      "type": "function"
    },
    {
      "inputs": [
        {
          "internalType": "address",
          "name": "_user",
          "type": "address"
        }
      ],
      "name": "getUserReviews",
      "outputs": [
        {
          "internalType": "uint256[]",
          "name": "",
          "type": "uint256[]"
        }
      ],
      "stateMutability": "view",
      "type": "function"
    },
    {
      "inputs": [],
      "name": "owner",
      "outputs": [
        {
          "internalType": "address",
          "name": "",
          "type": "address"
        }
      ],
      "stateMutability": "view",
      "type": "function"
    },
    {
      "inputs": [],
      "name": "renounceOwnership",
      "outputs": [],
      "stateMutability": "nonpayable",
      "type": "function"
    },
    {
      "inputs": [],
      "name": "reviewCount",
      "outputs": [
        {
          "internalType": "uint256",
          "name": "",
          "type": "uint256"
        }
      ],
      "stateMutability": "view",
      "type": "function"
    },
    {
      "inputs": [
        {
          "internalType": "uint256",
          "name": "",
          "type": "uint256"
        }
      ],
      "name": "reviewExists",
      "outputs": [
        {
          "internalType": "bool",
          "name": "",
          "type": "bool"
        }
      ],
      "stateMutability": "view",
      "type": "function"
    },
    {
      "inputs": [
        {
          "internalType": "uint256",
          "name": "",
          "type": "uint256"
        }
      ],
      "name": "reviews",
      "outputs": [
        {
          "internalType": "uint256",
          "name": "tokenId",
          "type": "uint256"
        },
        {
          "internalType": "address",
          "name": "reviewer",
          "type": "address"
        },
        {
          "internalType": "address",
          "name": "expert",
          "type": "address"
        },
        {
          "internalType": "uint256",
          "name": "rating",
          "type": "uint256"
        },
        {
          "internalType": "string",
          "name": "comment",
          "type": "string"
        },
        {
          "internalType": "uint256",
          "name": "timestamp",
          "type": "uint256"
        },
        {
          "internalType": "bool",
          "name": "isVerified",
          "type": "bool"
        }
      ],
      "stateMutability": "view",
      "type": "function"
    },
    {
      "inputs": [
        {
          "internalType": "uint256",
          "name": "_tokenId",
          "type": "uint256"
        },
        {
          "internalType": "uint256",
          "name": "_rating",
          "type": "uint256"
        },
        {
          "internalType": "string",
          "name": "_comment",
          "type": "string"
        }
      ],
      "name": "submitReview",
      "outputs": [],
      "stateMutability": "nonpayable",
      "type": "function"
    },
    {
      "inputs": [],
      "name": "timeSlotEscrow",
      "outputs": [
        {
          "internalType": "contract TimeSlotEscrow",
          "name": "",
          "type": "address"
        }
      ],
      "stateMutability": "view",
      "type": "function"
    },
    {
      "inputs": [],
      "name": "timeSlotNFT",
      "outputs": [
        {
          "internalType": "contract TimeSlotNFT",
          "name": "",
          "type": "address"
        }
      ],
      "stateMutability": "view",
      "type": "function"
    },
    {
      "inputs": [
        {
          "internalType": "address",
          "name": "newOwner",
          "type": "address"
        }
      ],
      "name": "transferOwnership",
      "outputs": [],
      "stateMutability": "nonpayable",
      "type": "function"
    },
    {
      "inputs": [
        {
          "internalType": "uint256",
          "name": "_tokenId",
          "type": "uint256"
        },
        {
          "internalType": "uint256",
          "name": "_newRating",
          "type": "uint256"
        },
        {
          "internalType": "string",
          "name": "_newComment",
          "type": "string"
        }
      ],
      "name": "updateReview",
      "outputs": [],
      "stateMutability": "nonpayable",
      "type": "function"
    },
    {
      "inputs": [
        {
          "internalType": "address",
          "name": "",
          "type": "address"
        },
        {
          "internalType": "uint256",
          "name": "",
          "type": "uint256"
        }
      ],
      "name": "userReviews",
      "outputs": [
        {
          "internalType": "uint256",
          "name": "",
          "type": "uint256"
        }
      ],
      "stateMutability": "view",
      "type": "function"
    }
  ],
  "bytecode": "0x60806040523480156200001157600080fd5b5060405162001eb438038062001eb48339810160408190526200003491620000e5565b6001600055620000443362000076565b600280546001600160a01b039384166001600160a01b031991821617909155600380549290931691161790556200011d565b600180546001600160a01b038381166001600160a01b0319831681179093556040519116919082907f8be0079c531659141344cd1fd0a4f28419497f9722a3daafe3b4186f6b6457e090600090a35050565b80516001600160a01b0381168114620000e057600080fd5b919050565b60008060408385031215620000f957600080fd5b6200010483620000c8565b91506200011460208401620000c8565b90509250929050565b611d87806200012d6000396000f3fe608060405234801561001057600080fd5b506004361061014c5760003560e01c80638da5cb5b116100c3578063b2a4401b1161007c578063b2a4401b1461034f578063b7cdb62814610362578063e83ddcea14610375578063ee4d777e1461039b578063eff5924f146103ae578063f2fde38b146103b757600080fd5b80638da5cb5b146102bc5780638ea59129146102e157806396e8800c14610303578063990581b6146103165780639f54b729146103295780639fc25eb51461033c57600080fd5b806326b39e3d1161011557806326b39e3d146101f2578063312709e7146102145780633260802f146102375780635dd302c1146102815780636cc470a2146102a1578063715018a6146102b457600080fd5b8062d64e7614610151578063175a3b411461018957806318d0e8b21461019e5780631d2f9d98146101be5780631f4ac129146101d1575b600080fd5b61017461015f366004611485565b60086020526000908152604090205460ff1681565b60405190151581526020015b60405180910390f35b61019c61019736600461155b565b6103ca565b005b6101b16101ac366004611603565b61061c565b6040516101809190611662565b61019c6101cc366004611485565b610688565b6101e46101df366004611675565b6106ab565b604051908152602001610180565b610205610200366004611485565b6106dc565b604051610180939291906116a1565b610174610222366004611485565b60096020526000908152604090205460ff1681565b610266610245366004611603565b60056020526000908152604090208054600182015460029092015490919083565b60408051938452602084019290925290820152606001610180565b61029461028f366004611485565b6107b6565b6040516101809190611766565b6101b16102af366004611603565b61091b565b61019c610985565b6001546001600160a01b03165b6040516001600160a01b039091168152602001610180565b6102f46102ef366004611603565b610999565b604051610180939291906117db565b61019c610311366004611485565b610a16565b610294610324366004611485565b610a36565b61019c61033736600461155b565b610ba9565b6003546102c9906001600160a01b031681565b6002546102c9906001600160a01b031681565b6101e4610370366004611675565b610f5a565b610388610383366004611485565b610f76565b604051610180979695949392919061181d565b61019c6103a9366004611485565b61104c565b6101e4600a5481565b61019c6103c5366004611603565b6111a0565b60008381526004602052604090206001015483906001600160a01b0316331461042d5760405162461bcd60e51b815260206004820152601060248201526f2737ba103a3432903932bb34b2bbb2b960811b60448201526064015b60405180910390fd5b6001831015801561043f575060058311155b6104805760405162461bcd60e51b8152602060048201526012602482015271526174696e67206d75737420626520312d3560701b6044820152606401610424565b6101f4825111156104c65760405162461bcd60e51b815260206004820152601060248201526f436f6d6d656e7420746f6f206c6f6e6760801b6044820152606401610424565b60006104d185611219565b9050600081116105165760405162461bcd60e51b815260206004820152601060248201526f14995d9a595dc81b9bdd08199bdd5b9960821b6044820152606401610424565b600081815260046020526040902060058101546105369062015180611887565b4211156105855760405162461bcd60e51b815260206004820152601c60248201527f43616e6e6f742075706461746520616674657220323420686f757273000000006044820152606401610424565b600281015460038201546105a2916001600160a01b03169061125e565b60028101546105ba906001600160a01b0316866112f3565b60038101859055600481016105cf8582611929565b50336001600160a01b0316867f433c4b4bad557503d685df8bedd104307b66cc2c3fa18a5f00fae69f261eff29878760405161060c9291906119e9565b60405180910390a3505050505050565b6001600160a01b03811660009081526007602090815260409182902080548351818402810184019094528084526060939283018282801561067c57602002820191906000526020600020905b815481526020019060010190808311610668575b50505050509050919050565b61069061136a565b6000908152600960205260409020805460ff19166001179055565b600760205281600052604060002081815481106106c757600080fd5b90600052602060002001600091509150505481565b60608060608367ffffffffffffffff8111156106fa576106fa61149e565b604051908082528060200260200182016040528015610723578160200160208202803683370190505b5092508367ffffffffffffffff81111561073f5761073f61149e565b604051908082528060200260200182016040528015610768578160200160208202803683370190505b5091508367ffffffffffffffff8111156107845761078461149e565b6040519080825280602002602001820160405280156107ad578160200160208202803683370190505b50929491935050565b6107be611416565b6000821180156107d05750600a548211155b6108145760405162461bcd60e51b815260206004820152601560248201527414995d9a595dc8191bd95cc81b9bdd08195e1a5cdd605a1b6044820152606401610424565b600082815260046020818152604092839020835160e0810185528154815260018201546001600160a01b0390811693820193909352600282015490921693820193909352600383015460608201529082018054919291608084019190610879906118a0565b80601f01602080910402602001604051908101604052809291908181526020018280546108a5906118a0565b80156108f25780601f106108c7576101008083540402835291602001916108f2565b820191906000526020600020905b8154815290600101906020018083116108d557829003601f168201915b50505091835250506005820154602082015260069091015460ff16151560409091015292915050565b6001600160a01b03811660009081526006602090815260409182902080548351818402810184019094528084526060939283018282801561067c57602002820191906000526020600020908154815260200190600101908083116106685750505050509050919050565b61098d61136a565b61099760006113c4565b565b6000806109a4611467565b6001600160a01b038416600090815260056020526040902080546001808301549195509093505b60058111610a0d5760008181526003830160205260409020548382600681106109f6576109f6611a0a565b602002015280610a0581611a20565b9150506109cb565b50509193909250565b610a1e61136a565b6000908152600960205260409020805460ff19169055565b610a3e611416565b60008281526008602052604090205460ff16610a945760405162461bcd60e51b815260206004820152601560248201527414995d9a595dc8191bd95cc81b9bdd08195e1a5cdd605a1b6044820152606401610424565b6000610a9f83611219565b600081815260046020818152604092839020835160e0810185528154815260018201546001600160a01b03908116938201939093526002820154909216938201939093526003830154606082015290820180549394509092608084019190610b06906118a0565b80601f0160208091040260200160405190810160405280929190818152602001828054610b32906118a0565b8015610b7f5780601f10610b5457610100808354040283529160200191610b7f565b820191906000526020600020905b815481529060010190602001808311610b6257829003601f168201915b50505091835250506005820154602082015260069091015460ff1615156040909101529392505050565b600083815260096020526040902054839060ff16610bfd5760405162461bcd60e51b815260206004820152601160248201527010d85b9b9bdd081c995d9a595dc81e595d607a1b6044820152606401610424565b60008481526008602052604090205460ff1615610c545760405162461bcd60e51b815260206004820152601560248201527452657669657720616c72656164792065786973747360581b6044820152606401610424565b60018310158015610c66575060058311155b610ca75760405162461bcd60e51b8152602060048201526012602482015271526174696e67206d75737420626520312d3560701b6044820152606401610424565b6101f482511115610ced5760405162461bcd60e51b815260206004820152601060248201526f436f6d6d656e7420746f6f206c6f6e6760801b6044820152606401610424565b600254604051632b85dcc960e01b8152600481018690526000916001600160a01b031690632b85dcc990602401600060405180830381865afa158015610d37573d6000803e3d6000fd5b505050506040513d6000823e601f3d908101601f19168201604052610d5f9190810190611a9e565b60c08101519091506001600160a01b03163314610dae5760405162461bcd60e51b815260206004820152600d60248201526c2737ba103a343290313abcb2b960991b6044820152606401610424565b600a8054906000610dbe83611a20565b90915550506040805160e081018252868152336020808301918252848101516001600160a01b03908116848601908152606085018a8152608086018a81524260a0880152600160c08801819052600a5460009081526004968790529890982087518155955197860180549885166001600160a01b0319998a161790559151600286018054919094169716969096179091559351600383015592519192909190820190610e6a9082611929565b5060a0820151600582015560c0909101516006918201805491151560ff1992831617905560008781526008602090815260408083208054909416600190811790945585820180516001600160a01b03168452948252808320600a805482548088018455928652848620909201919091553384526007835290832090548154948501825590835291209091015551610f0190856112f3565b80602001516001600160a01b0316336001600160a01b0316867f7e21b007fd5c7653ebf7e9601faee30687667cccc8a658f245d94efd646aff5b8787604051610f4b9291906119e9565b60405180910390a45050505050565b600660205281600052604060002081815481106106c757600080fd5b60046020819052600091825260409091208054600182015460028301546003840154948401805493956001600160a01b03938416959290931693610fb9906118a0565b80601f0160208091040260200160405190810160405280929190818152602001828054610fe5906118a0565b80156110325780601f1061100757610100808354040283529160200191611032565b820191906000526020600020905b81548152906001019060200180831161101557829003601f168201915b50505050600583015460069093015491929160ff16905087565b61105461136a565b60008181526008602052604090205460ff16156110ab5760405162461bcd60e51b815260206004820152601560248201527452657669657720616c72656164792065786973747360581b6044820152606401610424565b600354604051633e8cf2cb60e11b8152600481018390526000916001600160a01b031690637d19e59690602401600060405180830381865afa1580156110f5573d6000803e3d6000fd5b505050506040513d6000823e601f3d908101601f1916820160405261111d9190810190611bbe565b905060038160c00151600481111561113757611137611cef565b146111845760405162461bcd60e51b815260206004820152601960248201527f4170706f696e746d656e74206e6f7420636f6d706c65746564000000000000006044820152606401610424565b506000908152600960205260409020805460ff19166001179055565b6111a861136a565b6001600160a01b03811661120d5760405162461bcd60e51b815260206004820152602660248201527f4f776e61626c653a206e6577206f776e657220697320746865207a65726f206160448201526564647265737360d01b6064820152608401610424565b611216816113c4565b50565b600060015b600a548111611255576000818152600460205260409020548390036112435792915050565b8061124d81611a20565b91505061121e565b50600092915050565b6001600160a01b038216600090815260056020526040812080549091829061128583611d05565b91905055508181600201600082825461129e9190611d1c565b90915550508054156112c557805460028201546112bb9190611d2f565b60018201556112cd565b600060018201555b600082815260038201602052604081208054916112e983611d05565b9190505550505050565b6001600160a01b038216600090815260056020526040812080549091829061131a83611a20565b9190505550818160020160008282546113339190611887565b9091555050805460028201546113499190611d2f565b6001820155600082815260038201602052604081208054916112e983611a20565b6001546001600160a01b031633146109975760405162461bcd60e51b815260206004820181905260248201527f4f776e61626c653a2063616c6c6572206973206e6f7420746865206f776e65726044820152606401610424565b600180546001600160a01b038381166001600160a01b0319831681179093556040519116919082907f8be0079c531659141344cd1fd0a4f28419497f9722a3daafe3b4186f6b6457e090600090a35050565b6040518060e001604052806000815260200160006001600160a01b0316815260200160006001600160a01b031681526020016000815260200160608152602001600081526020016000151581525090565b6040518060c001604052806006906020820280368337509192915050565b60006020828403121561149757600080fd5b5035919050565b634e487b7160e01b600052604160045260246000fd5b604051610160810167ffffffffffffffff811182821017156114d8576114d861149e565b60405290565b6040516101a0810167ffffffffffffffff811182821017156114d8576114d861149e565b604051601f8201601f1916810167ffffffffffffffff8111828210171561152b5761152b61149e565b604052919050565b600067ffffffffffffffff82111561154d5761154d61149e565b50601f01601f191660200190565b60008060006060848603121561157057600080fd5b8335925060208401359150604084013567ffffffffffffffff81111561159557600080fd5b8401601f810186136115a657600080fd5b80356115b96115b482611533565b611502565b8181528760208385010111156115ce57600080fd5b816020840160208301376000602083830101528093505050509250925092565b6001600160a01b038116811461121657600080fd5b60006020828403121561161557600080fd5b8135611620816115ee565b9392505050565b600081518084526020808501945080840160005b838110156116575781518752958201959082019060010161163b565b509495945050505050565b6020815260006116206020830184611627565b6000806040838503121561168857600080fd5b8235611693816115ee565b946020939093013593505050565b606080825284519082018190526000906020906080840190828801845b828110156116e35781516001600160a01b0316845292840192908401906001016116be565b505050838103828501526116f78187611627565b915050828103604084015261170c8185611627565b9695505050505050565b60005b83811015611731578181015183820152602001611719565b50506000910152565b60008151808452611752816020860160208601611716565b601f01601f19169290920160200192915050565b60208152815160208201526000602083015160018060a01b038082166040850152806040860151166060850152505060608301516080830152608083015160e060a08401526117b961010084018261173a565b905060a084015160c084015260c0840151151560e08401528091505092915050565b8381526020808201849052610100820190604083018460005b6006811015611811578151835291830191908301906001016117f4565b50505050949350505050565b8781526001600160a01b038781166020830152861660408201526060810185905260e0608082018190526000906118569083018661173a565b60a08301949094525090151560c09091015295945050505050565b634e487b7160e01b600052601160045260246000fd5b8082018082111561189a5761189a611871565b92915050565b600181811c908216806118b457607f821691505b6020821081036118d457634e487b7160e01b600052602260045260246000fd5b50919050565b601f82111561192457600081815260208120601f850160051c810160208610156119015750805b601f850160051c820191505b818110156119205782815560010161190d565b5050505b505050565b815167ffffffffffffffff8111156119435761194361149e565b6119578161195184546118a0565b846118da565b602080601f83116001811461198c57600084156119745750858301515b600019600386901b1c1916600185901b178555611920565b600085815260208120601f198616915b828110156119bb5788860151825594840194600190910190840161199c565b50858210156119d95787850151600019600388901b60f8161c191681555b5050505050600190811b01905550565b828152604060208201526000611a02604083018461173a565b949350505050565b634e487b7160e01b600052603260045260246000fd5b600060018201611a3257611a32611871565b5060010190565b8051611a44816115ee565b919050565b80518015158114611a4457600080fd5b600082601f830112611a6a57600080fd5b8151611a786115b482611533565b818152846020838601011115611a8d57600080fd5b611a02826020830160208701611716565b600060208284031215611ab057600080fd5b815167ffffffffffffffff80821115611ac857600080fd5b908301906101608286031215611add57600080fd5b611ae56114b4565b82518152611af560208401611a39565b6020820152604083015160408201526060830151606082015260808301516080820152611b2460a08401611a49565b60a0820152611b3560c08401611a39565b60c0820152611b4660e08401611a49565b60e08201526101008084015183811115611b5f57600080fd5b611b6b88828701611a59565b8284015250506101208084015183811115611b8557600080fd5b611b9188828701611a59565b91830191909152506101409283015192810192909252509392505050565b805160058110611a4457600080fd5b600060208284031215611bd057600080fd5b815167ffffffffffffffff80821115611be857600080fd5b908301906101a08286031215611bfd57600080fd5b611c056114de565b82518152611c1560208401611a39565b6020820152611c2660408401611a39565b6040820152606083015160608201526080830151608082015260a083015160a0820152611c5560c08401611baf565b60c082015260e083015160e08201526101008084015181830152506101208084015183811115611c8457600080fd5b611c9088828701611a59565b8284015250506101408084015183811115611caa57600080fd5b611cb688828701611a59565b8284015250506101609150611ccc828401611a49565b828201526101809150611ce0828401611a49565b91810191909152949350505050565b634e487b7160e01b600052602160045260246000fd5b600081611d1457611d14611871565b506000190190565b8181038181111561189a5761189a611871565b600082611d4c57634e487b7160e01b600052601260045260246000fd5b50049056fea2646970667358221220fca7569b3f774314e589f803c7307acf2840792a6c1bfaabc7474ed9af19640d64736f6c63430008130033",
  "linkReferences": {},
  "deployedLinkReferences": {}
}