{
  "_format": "hh-sol-artifact-1",
  "contractName": "UserRegistry",
  "sourceName": "contracts/UserRegistry.sol",
  "abi": [
    {
      "inputs": [],
      "stateMutability": "nonpayable",
      "type": "constructor"
    },
    {
      "anonymous": false,
      "inputs": [
        {
          "indexed": true,
          "internalType": "address",
          "name": "previousOwner",
          "type": "address"
        },
        {
          "indexed": true,
          "internalType": "address",
          "name": "newOwner",
          "type": "address"
        }
      ],
      "name": "OwnershipTransferred",
      "type": "event"
    },
    {
      "anonymous": false,
      "inputs": [
        {
          "indexed": true,
          "internalType": "address",
          "name": "user",
          "type": "address"
        }
      ],
      "name": "UserDeactivated",
      "type": "event"
    },
    {
      "anonymous": false,
      "inputs": [
        {
          "indexed": true,
          "internalType": "address",
          "name": "user",
          "type": "address"
        },
        {
          "indexed": false,
          "internalType": "string",
          "name": "name",
          "type": "string"
        },
        {
          "indexed": false,
          "internalType": "string",
          "name": "email",
          "type": "string"
        },
        {
          "indexed": false,
          "internalType": "enum UserRegistry.UserType",
          "name": "userType",
          "type": "uint8"
        }
      ],
      "name": "UserRegistered",
      "type": "event"
    },
    {
      "anonymous": false,
      "inputs": [
        {
          "indexed": true,
          "internalType": "address",
          "name": "user",
          "type": "address"
        },
        {
          "indexed": false,
          "internalType": "string",
          "name": "name",
          "type": "string"
        },
        {
          "indexed": false,
          "internalType": "string",
          "name": "email",
          "type": "string"
        }
      ],
      "name": "UserUpdated",
      "type": "event"
    },
    {
      "anonymous": false,
      "inputs": [
        {
          "indexed": true,
          "internalType": "address",
          "name": "user",
          "type": "address"
        },
        {
          "indexed": false,
          "internalType": "bool",
          "name": "isVerified",
          "type": "bool"
        }
      ],
      "name": "UserVerified",
      "type": "event"
    },
    {
      "anonymous": false,
      "inputs": [
        {
          "indexed": true,
          "internalType": "uint256",
          "name": "requestId",
          "type": "uint256"
        },
        {
          "indexed": true,
          "internalType": "address",
          "name": "user",
          "type": "address"
        },
        {
          "indexed": false,
          "internalType": "bool",
          "name": "approved",
          "type": "bool"
        }
      ],
      "name": "VerificationProcessed",
      "type": "event"
    },
    {
      "anonymous": false,
      "inputs": [
        {
          "indexed": true,
          "internalType": "uint256",
          "name": "requestId",
          "type": "uint256"
        },
        {
          "indexed": true,
          "internalType": "address",
          "name": "user",
          "type": "address"
        },
        {
          "indexed": false,
          "internalType": "string",
          "name": "documentType",
          "type": "string"
        }
      ],
      "name": "VerificationRequested",
      "type": "event"
    },
    {
      "inputs": [
        {
          "internalType": "string",
          "name": "_platform",
          "type": "string"
        },
        {
          "internalType": "string",
          "name": "_url",
          "type": "string"
        }
      ],
      "name": "addSocialLink",
      "outputs": [],
      "stateMutability": "nonpayable",
      "type": "function"
    },
    {
      "inputs": [
        {
          "internalType": "address",
          "name": "_user",
          "type": "address"
        }
      ],
      "name": "deactivateUser",
      "outputs": [],
      "stateMutability": "nonpayable",
      "type": "function"
    },
    {
      "inputs": [
        {
          "internalType": "string",
          "name": "",
          "type": "string"
        }
      ],
      "name": "emailToAddress",
      "outputs": [
        {
          "internalType": "address",
          "name": "",
          "type": "address"
        }
      ],
      "stateMutability": "view",
      "type": "function"
    },
    {
      "inputs": [
        {
          "internalType": "string",
          "name": "",
          "type": "string"
        }
      ],
      "name": "ensToAddress",
      "outputs": [
        {
          "internalType": "address",
          "name": "",
          "type": "address"
        }
      ],
      "stateMutability": "view",
      "type": "function"
    },
    {
      "inputs": [],
      "name": "getAllUsers",
      "outputs": [
        {
          "internalType": "address[]",
          "name": "",
          "type": "address[]"
        }
      ],
      "stateMutability": "view",
      "type": "function"
    },
    {
      "inputs": [
        {
          "internalType": "address",
          "name": "_user",
          "type": "address"
        },
        {
          "internalType": "string",
          "name": "_key",
          "type": "string"
        }
      ],
      "name": "getCustomField",
      "outputs": [
        {
          "internalType": "string",
          "name": "",
          "type": "string"
        }
      ],
      "stateMutability": "view",
      "type": "function"
    },
    {
      "inputs": [],
      "name": "getUserCount",
      "outputs": [
        {
          "internalType": "uint256",
          "name": "",
          "type": "uint256"
        }
      ],
      "stateMutability": "view",
      "type": "function"
    },
    {
      "inputs": [
        {
          "internalType": "address",
          "name": "_user",
          "type": "address"
        }
      ],
      "name": "getUserProfile",
      "outputs": [
        {
          "internalType": "address",
          "name": "userAddress",
          "type": "address"
        },
        {
          "internalType": "string",
          "name": "name",
          "type": "string"
        },
        {
          "internalType": "string",
          "name": "email",
          "type": "string"
        },
        {
          "internalType": "string",
          "name": "ens",
          "type": "string"
        },
        {
          "internalType": "enum UserRegistry.UserType",
          "name": "userType",
          "type": "uint8"
        },
        {
          "internalType": "bool",
          "name": "isVerified",
          "type": "bool"
        },
        {
          "internalType": "bool",
          "name": "isActive",
          "type": "bool"
        },
        {
          "internalType": "uint256",
          "name": "createdAt",
          "type": "uint256"
        },
        {
          "internalType": "uint256",
          "name": "lastActive",
          "type": "uint256"
        },
        {
          "internalType": "string",
          "name": "profileImage",
          "type": "string"
        },
        {
          "internalType": "string",
          "name": "bio",
          "type": "string"
        }
      ],
      "stateMutability": "view",
      "type": "function"
    },
    {
      "inputs": [
        {
          "internalType": "address",
          "name": "_user",
          "type": "address"
        }
      ],
      "name": "isExpert",
      "outputs": [
        {
          "internalType": "bool",
          "name": "",
          "type": "bool"
        }
      ],
      "stateMutability": "view",
      "type": "function"
    },
    {
      "inputs": [
        {
          "internalType": "address",
          "name": "",
          "type": "address"
        }
      ],
      "name": "isRegistered",
      "outputs": [
        {
          "internalType": "bool",
          "name": "",
          "type": "bool"
        }
      ],
      "stateMutability": "view",
      "type": "function"
    },
    {
      "inputs": [
        {
          "internalType": "address",
          "name": "_user",
          "type": "address"
        }
      ],
      "name": "isVerifiedExpert",
      "outputs": [
        {
          "internalType": "bool",
          "name": "",
          "type": "bool"
        }
      ],
      "stateMutability": "view",
      "type": "function"
    },
    {
      "inputs": [],
      "name": "owner",
      "outputs": [
        {
          "internalType": "address",
          "name": "",
          "type": "address"
        }
      ],
      "stateMutability": "view",
      "type": "function"
    },
    {
      "inputs": [
        {
          "internalType": "uint256",
          "name": "_requestId",
          "type": "uint256"
        },
        {
          "internalType": "bool",
          "name": "_approved",
          "type": "bool"
        }
      ],
      "name": "processVerification",
      "outputs": [],
      "stateMutability": "nonpayable",
      "type": "function"
    },
    {
      "inputs": [
        {
          "internalType": "address",
          "name": "_user",
          "type": "address"
        }
      ],
      "name": "reactivateUser",
      "outputs": [],
      "stateMutability": "nonpayable",
      "type": "function"
    },
    {
      "inputs": [
        {
          "internalType": "string",
          "name": "_name",
          "type": "string"
        },
        {
          "internalType": "string",
          "name": "_email",
          "type": "string"
        },
        {
          "internalType": "string",
          "name": "_ens",
          "type": "string"
        },
        {
          "internalType": "enum UserRegistry.UserType",
          "name": "_userType",
          "type": "uint8"
        },
        {
          "internalType": "string",
          "name": "_profileImage",
          "type": "string"
        },
        {
          "internalType": "string",
          "name": "_bio",
          "type": "string"
        }
      ],
      "name": "registerUser",
      "outputs": [],
      "stateMutability": "payable",
      "type": "function"
    },
    {
      "inputs": [
        {
          "internalType": "uint256",
          "name": "",
          "type": "uint256"
        }
      ],
      "name": "registeredUsers",
      "outputs": [
        {
          "internalType": "address",
          "name": "",
          "type": "address"
        }
      ],
      "stateMutability": "view",
      "type": "function"
    },
    {
      "inputs": [],
      "name": "registrationFee",
      "outputs": [
        {
          "internalType": "uint256",
          "name": "",
          "type": "uint256"
        }
      ],
      "stateMutability": "view",
      "type": "function"
    },
    {
      "inputs": [],
      "name": "registrationFeeEnabled",
      "outputs": [
        {
          "internalType": "bool",
          "name": "",
          "type": "bool"
        }
      ],
      "stateMutability": "view",
      "type": "function"
    },
    {
      "inputs": [
        {
          "internalType": "string",
          "name": "_platform",
          "type": "string"
        }
      ],
      "name": "removeSocialLink",
      "outputs": [],
      "stateMutability": "nonpayable",
      "type": "function"
    },
    {
      "inputs": [],
      "name": "renounceOwnership",
      "outputs": [],
      "stateMutability": "nonpayable",
      "type": "function"
    },
    {
      "inputs": [
        {
          "internalType": "string",
          "name": "_documentHash",
          "type": "string"
        },
        {
          "internalType": "string",
          "name": "_documentType",
          "type": "string"
        }
      ],
      "name": "requestVerification",
      "outputs": [],
      "stateMutability": "nonpayable",
      "type": "function"
    },
    {
      "inputs": [
        {
          "internalType": "string",
          "name": "_key",
          "type": "string"
        },
        {
          "internalType": "string",
          "name": "_value",
          "type": "string"
        }
      ],
      "name": "setCustomField",
      "outputs": [],
      "stateMutability": "nonpayable",
      "type": "function"
    },
    {
      "inputs": [],
      "name": "toggleRegistrationFee",
      "outputs": [],
      "stateMutability": "nonpayable",
      "type": "function"
    },
    {
      "inputs": [
        {
          "internalType": "address",
          "name": "newOwner",
          "type": "address"
        }
      ],
      "name": "transferOwnership",
      "outputs": [],
      "stateMutability": "nonpayable",
      "type": "function"
    },
    {
      "inputs": [
        {
          "internalType": "string",
          "name": "_name",
          "type": "string"
        },
        {
          "internalType": "string",
          "name": "_email",
          "type": "string"
        },
        {
          "internalType": "string",
          "name": "_ens",
          "type": "string"
        },
        {
          "internalType": "string",
          "name": "_profileImage",
          "type": "string"
        },
        {
          "internalType": "string",
          "name": "_bio",
          "type": "string"
        }
      ],
      "name": "updateProfile",
      "outputs": [],
      "stateMutability": "nonpayable",
      "type": "function"
    },
    {
      "inputs": [
        {
          "internalType": "uint256",
          "name": "_newFee",
          "type": "uint256"
        }
      ],
      "name": "updateRegistrationFee",
      "outputs": [],
      "stateMutability": "nonpayable",
      "type": "function"
    },
    {
      "inputs": [
        {
          "internalType": "address",
          "name": "",
          "type": "address"
        }
      ],
      "name": "userProfiles",
      "outputs": [
        {
          "internalType": "address",
          "name": "userAddress",
          "type": "address"
        },
        {
          "internalType": "string",
          "name": "name",
          "type": "string"
        },
        {
          "internalType": "string",
          "name": "email",
          "type": "string"
        },
        {
          "internalType": "string",
          "name": "ens",
          "type": "string"
        },
        {
          "internalType": "enum UserRegistry.UserType",
          "name": "userType",
          "type": "uint8"
        },
        {
          "internalType": "bool",
          "name": "isVerified",
          "type": "bool"
        },
        {
          "internalType": "bool",
          "name": "isActive",
          "type": "bool"
        },
        {
          "internalType": "uint256",
          "name": "createdAt",
          "type": "uint256"
        },
        {
          "internalType": "uint256",
          "name": "lastActive",
          "type": "uint256"
        },
        {
          "internalType": "string",
          "name": "profileImage",
          "type": "string"
        },
        {
          "internalType": "string",
          "name": "bio",
          "type": "string"
        }
      ],
      "stateMutability": "view",
      "type": "function"
    },
    {
      "inputs": [],
      "name": "verificationRequestCount",
      "outputs": [
        {
          "internalType": "uint256",
          "name": "",
          "type": "uint256"
        }
      ],
      "stateMutability": "view",
      "type": "function"
    },
    {
      "inputs": [
        {
          "internalType": "uint256",
          "name": "",
          "type": "uint256"
        }
      ],
      "name": "verificationRequests",
      "outputs": [
        {
          "internalType": "address",
          "name": "user",
          "type": "address"
        },
        {
          "internalType": "string",
          "name": "documentHash",
          "type": "string"
        },
        {
          "internalType": "string",
          "name": "documentType",
          "type": "string"
        },
        {
          "internalType": "uint256",
          "name": "timestamp",
          "type": "uint256"
        },
        {
          "internalType": "bool",
          "name": "isProcessed",
          "type": "bool"
        },
        {
          "internalType": "bool",
          "name": "isApproved",
          "type": "bool"
        }
      ],
      "stateMutability": "view",
      "type": "function"
    },
    {
      "inputs": [],
      "name": "withdrawFees",
      "outputs": [],
      "stateMutability": "nonpayable",
      "type": "function"
    }
  ],
  "bytecode": "0x6080604052662386f26fc10000600955600a805460ff1916905534801561002557600080fd5b5061002f33610038565b60018055610088565b600080546001600160a01b038381166001600160a01b0319831681178455604051919092169283917f8be0079c531659141344cd1fd0a4f28419497f9722a3daafe3b4186f6b6457e09190a35050565b612979806100976000396000f3fe6080604052600436106101cd5760003560e01c80638da5cb5b116100f7578063b043e03211610095578063d9d3fa6411610064578063d9d3fa6414610561578063e2842d7914610581578063ea78dcbf146105a3578063f2fde38b146105e457600080fd5b8063b043e032146104e6578063b5cb15f714610506578063c3c5a5471461051b578063ce088ccc1461054b57600080fd5b80639bb9cb4f116100d15780639bb9cb4f1461047e578063add304d214610493578063ae91666a146104b3578063af582c6b146104c657600080fd5b80638da5cb5b146104205780638f599e441461043e578063987ee1561461045e57600080fd5b80634a3183011161016f5780637259e0f81161013e5780637259e0f81461039357806376c535ae146103b35780637ea073c8146103d357806381a294571461040057600080fd5b80634a318301146103145780634de2bfbf1461034457806352506dae14610364578063715018a61461037e57600080fd5b806333097df6116101ab57806333097df61461023d578063332d56d7146102965780634089d49f146102cd578063476343ee146102ff57600080fd5b806314c44e09146101d25780631a47767b146101fb5780632bbfcba31461021d575b600080fd5b3480156101de57600080fd5b506101e860095481565b6040519081526020015b60405180910390f35b34801561020757600080fd5b5061021b6102163660046120d3565b610604565b005b34801561022957600080fd5b5061021b6102383660046120f5565b61069b565b34801561024957600080fd5b5061027e6102583660046121cd565b80516020818301810180516005825292820191909301209152546001600160a01b031681565b6040516001600160a01b0390911681526020016101f2565b3480156102a257600080fd5b506102b66102b13660046120d3565b610833565b6040516101f29b9a99989796959493929190612292565b3480156102d957600080fd5b506102ed6102e8366004612345565b610b44565b6040516101f29695949392919061235e565b34801561030b57600080fd5b5061021b610c9a565b34801561032057600080fd5b5061033461032f3660046120d3565b610cdf565b60405190151581526020016101f2565b34801561035057600080fd5b5061021b61035f3660046123b5565b610d97565b34801561037057600080fd5b50600a546103349060ff1681565b34801561038a57600080fd5b5061021b610f14565b34801561039f57600080fd5b5061027e6103ae366004612345565b610f28565b3480156103bf57600080fd5b506103346103ce3660046120d3565b610f52565b3480156103df57600080fd5b506103f36103ee366004612419565b610fd9565b6040516101f2919061245d565b34801561040c57600080fd5b5061021b61041b3660046120d3565b6110e9565b34801561042c57600080fd5b506000546001600160a01b031661027e565b34801561044a57600080fd5b5061021b6104593660046123b5565b61115c565b34801561046a57600080fd5b506102b66104793660046120d3565b61120e565b34801561048a57600080fd5b5061021b6115a7565b34801561049f57600080fd5b5061021b6104ae3660046121cd565b6115c3565b61021b6104c136600461247f565b611671565b3480156104d257600080fd5b5061021b6104e1366004612345565b611a18565b3480156104f257600080fd5b5061021b610501366004612560565b611a25565b34801561051257600080fd5b506007546101e8565b34801561052757600080fd5b506103346105363660046120d3565b60036020526000908152604090205460ff1681565b34801561055757600080fd5b506101e860085481565b34801561056d57600080fd5b5061021b61057c3660046123b5565b611e3d565b34801561058d57600080fd5b50610596611ee7565b6040516101f29190612632565b3480156105af57600080fd5b5061027e6105be3660046121cd565b80516020818301810180516004825292820191909301209152546001600160a01b031681565b3480156105f057600080fd5b5061021b6105ff3660046120d3565b611f49565b61060c611fbf565b6001600160a01b03811660009081526003602052604090205460ff1661064d5760405162461bcd60e51b81526004016106449061267f565b60405180910390fd5b6001600160a01b038116600081815260026020526040808220600401805462ff000019169055517f5554feec4e87bc4eba14bd62f71df68156f97d26128616fbc27d28e33b35a6b49190a250565b6106a3611fbf565b6000821180156106b557506008548211155b6106f65760405162461bcd60e51b8152602060048201526012602482015271125b9d985b1a59081c995c5d595cdd08125160721b6044820152606401610644565b6000828152600660205260409020600481015460ff16156107595760405162461bcd60e51b815260206004820152601960248201527f5265717565737420616c72656164792070726f636573736564000000000000006044820152606401610644565b600481018054831580156101000261ffff19909216919091176001179091556107a65780546001600160a01b03166000908152600260205260409020600401805461ff0019166101001790555b805460405183151581526001600160a01b039091169084907fc48d635ac0541426d81d70aea483c649ca63924160e9fd46d5b3507cb116432f9060200160405180910390a3805460405183151581526001600160a01b03909116907f34736af44d2b91cd43fa896d4cfe0861ec1e6b4538583d385fc671639e9153b29060200160405180910390a2505050565b600260205260009081526040902080546001820180546001600160a01b03909216929161085f906126ac565b80601f016020809104026020016040519081016040528092919081815260200182805461088b906126ac565b80156108d85780601f106108ad576101008083540402835291602001916108d8565b820191906000526020600020905b8154815290600101906020018083116108bb57829003601f168201915b5050505050908060020180546108ed906126ac565b80601f0160208091040260200160405190810160405280929190818152602001828054610919906126ac565b80156109665780601f1061093b57610100808354040283529160200191610966565b820191906000526020600020905b81548152906001019060200180831161094957829003601f168201915b50505050509080600301805461097b906126ac565b80601f01602080910402602001604051908101604052809291908181526020018280546109a7906126ac565b80156109f45780601f106109c9576101008083540402835291602001916109f4565b820191906000526020600020905b8154815290600101906020018083116109d757829003601f168201915b50505050600483015460058401546006850154600786018054959660ff80861697610100870482169750620100009096041694909190610a33906126ac565b80601f0160208091040260200160405190810160405280929190818152602001828054610a5f906126ac565b8015610aac5780601f10610a8157610100808354040283529160200191610aac565b820191906000526020600020905b815481529060010190602001808311610a8f57829003601f168201915b505050505090806008018054610ac1906126ac565b80601f0160208091040260200160405190810160405280929190818152602001828054610aed906126ac565b8015610b3a5780601f10610b0f57610100808354040283529160200191610b3a565b820191906000526020600020905b815481529060010190602001808311610b1d57829003601f168201915b505050505090508b565b600660205260009081526040902080546001820180546001600160a01b039092169291610b70906126ac565b80601f0160208091040260200160405190810160405280929190818152602001828054610b9c906126ac565b8015610be95780601f10610bbe57610100808354040283529160200191610be9565b820191906000526020600020905b815481529060010190602001808311610bcc57829003601f168201915b505050505090806002018054610bfe906126ac565b80601f0160208091040260200160405190810160405280929190818152602001828054610c2a906126ac565b8015610c775780601f10610c4c57610100808354040283529160200191610c77565b820191906000526020600020905b815481529060010190602001808311610c5a57829003601f168201915b50505050600383015460049093015491929160ff80821692506101009091041686565b610ca2611fbf565b600080546040516001600160a01b03909116914780156108fc02929091818181858888f19350505050158015610cdc573d6000803e3d6000fd5b50565b6001600160a01b03811660009081526003602052604081205460ff168015610d38575060016001600160a01b03831660009081526002602081905260409091206004015460ff1690811115610d3657610d3661225a565b145b8015610d6457506001600160a01b038216600090815260026020526040902060040154610100900460ff165b8015610d9157506001600160a01b03821660009081526002602052604090206004015462010000900460ff165b92915050565b3360009081526003602052604090205460ff16610dc65760405162461bcd60e51b81526004016106449061267f565b3360009081526002602052604090206004015462010000900460ff16610dfe5760405162461bcd60e51b8152600401610644906126e6565b60088054906000610e0e8361270f565b90915550506040805160c081018252338152602080820185815282840185905242606084015260006080840181905260a0840181905260085481526006909252929020815181546001600160a01b0319166001600160a01b0390911617815591519091906001820190610e819082612785565b5060408201516002820190610e969082612785565b506060820151600382015560808201516004909101805460a09093015115156101000261ff00199215159290921661ffff19909316929092171790556008546040513391907fa34e1dd2e50439a3590264f0b2c8d97c220efc7ef0fbe5a3552280b9b128c84490610f0890859061245d565b60405180910390a35050565b610f1c611fbf565b610f266000612019565b565b60078181548110610f3857600080fd5b6000918252602090912001546001600160a01b0316905081565b6001600160a01b03811660009081526003602052604081205460ff168015610d64575060016001600160a01b03831660009081526002602081905260409091206004015460ff1690811115610fa957610fa961225a565b148015610d915750506001600160a01b031660009081526002602052604090206004015462010000900460ff1690565b6001600160a01b03821660009081526003602052604090205460609060ff166110145760405162461bcd60e51b81526004016106449061267f565b60026000846001600160a01b03166001600160a01b03168152602001908152602001600020600a018260405161104a9190612845565b90815260200160405180910390208054611063906126ac565b80601f016020809104026020016040519081016040528092919081815260200182805461108f906126ac565b80156110dc5780601f106110b1576101008083540402835291602001916110dc565b820191906000526020600020905b8154815290600101906020018083116110bf57829003601f168201915b5050505050905092915050565b6110f1611fbf565b6001600160a01b03811660009081526003602052604090205460ff166111295760405162461bcd60e51b81526004016106449061267f565b6001600160a01b0316600090815260026020526040902060048101805462ff000019166201000017905542600690910155565b3360009081526003602052604090205460ff1661118b5760405162461bcd60e51b81526004016106449061267f565b3360009081526002602052604090206004015462010000900460ff166111c35760405162461bcd60e51b8152600401610644906126e6565b336000908152600260205260409081902090518290600a8301906111e8908690612845565b908152602001604051809103902090816112029190612785565b50426006909101555050565b6001600160a01b03811660009081526003602052604081205460609081908190849081908190819081908690819060ff1661125b5760405162461bcd60e51b81526004016106449061267f565b6001600160a01b03808d166000908152600260208190526040909120805460048201546005830154600684015460018501805495979490941695939493870193600388019360ff808216946101008304821694620100009093049091169290919060078b019060088c01908a906112d1906126ac565b80601f01602080910402602001604051908101604052809291908181526020018280546112fd906126ac565b801561134a5780601f1061131f5761010080835404028352916020019161134a565b820191906000526020600020905b81548152906001019060200180831161132d57829003601f168201915b5050505050995088805461135d906126ac565b80601f0160208091040260200160405190810160405280929190818152602001828054611389906126ac565b80156113d65780601f106113ab576101008083540402835291602001916113d6565b820191906000526020600020905b8154815290600101906020018083116113b957829003601f168201915b505050505098508780546113e9906126ac565b80601f0160208091040260200160405190810160405280929190818152602001828054611415906126ac565b80156114625780601f1061143757610100808354040283529160200191611462565b820191906000526020600020905b81548152906001019060200180831161144557829003601f168201915b50505050509750818054611475906126ac565b80601f01602080910402602001604051908101604052809291908181526020018280546114a1906126ac565b80156114ee5780601f106114c3576101008083540402835291602001916114ee565b820191906000526020600020905b8154815290600101906020018083116114d157829003601f168201915b50505050509150808054611501906126ac565b80601f016020809104026020016040519081016040528092919081815260200182805461152d906126ac565b801561157a5780601f1061154f5761010080835404028352916020019161157a565b820191906000526020600020905b81548152906001019060200180831161155d57829003601f168201915b505050505090509b509b509b509b509b509b509b509b509b509b509b505091939597999b90929496989a50565b6115af611fbf565b600a805460ff19811660ff90911615179055565b3360009081526003602052604090205460ff166115f25760405162461bcd60e51b81526004016106449061267f565b3360009081526002602052604090206004015462010000900460ff1661162a5760405162461bcd60e51b8152600401610644906126e6565b33600090815260026020526040908190209051600a82019061164d908490612845565b908152602001604051809103902060006116679190612069565b4260069091015550565b3360009081526003602052604090205460ff16156116d15760405162461bcd60e51b815260206004820152601760248201527f5573657220616c726561647920726567697374657265640000000000000000006044820152606401610644565b60006001600160a01b03166004866040516116ec9190612845565b908152604051908190036020019020546001600160a01b03161461174d5760405162461bcd60e51b8152602060048201526018602482015277115b585a5b08185b1c9958591e481c9959da5cdd195c995960421b6044820152606401610644565b60008651116117955760405162461bcd60e51b81526020600482015260146024820152734e616d652063616e6e6f7420626520656d70747960601b6044820152606401610644565b60008551116117de5760405162461bcd60e51b8152602060048201526015602482015274456d61696c2063616e6e6f7420626520656d70747960581b6044820152606401610644565b600a5460ff161561183b5760095434101561183b5760405162461bcd60e51b815260206004820152601d60248201527f496e73756666696369656e7420726567697374726174696f6e206665650000006044820152606401610644565b33600081815260026020526040902080546001600160a01b0319169091178155600181016118698882612785565b50600281016118788782612785565b50600381016118878682612785565b5060048101805485919060ff191660018360028111156118a9576118a961225a565b021790555060048101805462ffff0019166201000017905542600582018190556006820155600781016118dc8482612785565b50600881016118eb8382612785565b503360008181526003602052604090819020805460ff1916600117905551600490611917908990612845565b90815260405190819003602001902080546001600160a01b03929092166001600160a01b031990921691909117905584511561198e573360058660405161195e9190612845565b90815260405190819003602001902080546001600160a01b03929092166001600160a01b03199092169190911790555b600780546001810182556000919091527fa66cc928b5edb82af9bd49922954155ab7b0942694bea4ce44661d9a8736c6880180546001600160a01b031916339081179091556040517fb55f2195f4d9bf657054eaed9581ba0a67e1eec660941cf665585e5352fcbea090611a07908a908a908990612861565b60405180910390a250505050505050565b611a20611fbf565b600955565b3360009081526003602052604090205460ff16611a545760405162461bcd60e51b81526004016106449061267f565b3360009081526002602052604090206004015462010000900460ff16611a8c5760405162461bcd60e51b8152600401610644906126e6565b6000855111611ad45760405162461bcd60e51b81526020600482015260146024820152734e616d652063616e6e6f7420626520656d70747960601b6044820152606401610644565b6000845111611b1d5760405162461bcd60e51b8152602060048201526015602482015274456d61696c2063616e6e6f7420626520656d70747960581b6044820152606401610644565b336000908152600260208181526040928390208751918801919091209251909291611b4b9190840190612909565b604051809103902014611c5c5760006001600160a01b0316600486604051611b739190612845565b908152604051908190036020019020546001600160a01b031614611bd45760405162461bcd60e51b8152602060048201526018602482015277115b585a5b08185b1c9958591e481c9959da5cdd195c995960421b6044820152606401610644565b6000600482600201604051611be99190612909565b908152602001604051809103902060006101000a8154816001600160a01b0302191690836001600160a01b0316021790555033600486604051611c2c9190612845565b90815260405190819003602001902080546001600160a01b03929092166001600160a01b03199092169190911790555b83516020850120604051611c74906003840190612909565b604051809103902014611da857835115611d025760006001600160a01b0316600585604051611ca39190612845565b908152604051908190036020019020546001600160a01b031614611d025760405162461bcd60e51b8152602060048201526016602482015275115394c8185b1c9958591e481c9959da5cdd195c995960521b6044820152606401610644565b6000816003018054611d13906126ac565b90501115611d60576000600582600301604051611d309190612909565b90815260405190819003602001902080546001600160a01b03929092166001600160a01b03199092169190911790555b835115611da85733600585604051611d789190612845565b90815260405190819003602001902080546001600160a01b03929092166001600160a01b03199092169190911790555b60018101611db68782612785565b5060028101611dc58682612785565b5060038101611dd48582612785565b5060078101611de38482612785565b5060088101611df28382612785565b5042600682015560405133907fe5d18d6612696bff7df1db8015eac613241613297fa2ba2783993e4fd0e76f3d90611e2d9089908990612915565b60405180910390a2505050505050565b3360009081526003602052604090205460ff16611e6c5760405162461bcd60e51b81526004016106449061267f565b3360009081526002602052604090206004015462010000900460ff16611ea45760405162461bcd60e51b8152600401610644906126e6565b33600090815260026020908152604082206009810180546001810182559084529190922001611ed38382612785565b508181600a01846040516111e89190612845565b60606007805480602002602001604051908101604052809291908181526020018280548015611f3f57602002820191906000526020600020905b81546001600160a01b03168152600190910190602001808311611f21575b5050505050905090565b611f51611fbf565b6001600160a01b038116611fb65760405162461bcd60e51b815260206004820152602660248201527f4f776e61626c653a206e6577206f776e657220697320746865207a65726f206160448201526564647265737360d01b6064820152608401610644565b610cdc81612019565b6000546001600160a01b03163314610f265760405162461bcd60e51b815260206004820181905260248201527f4f776e61626c653a2063616c6c6572206973206e6f7420746865206f776e65726044820152606401610644565b600080546001600160a01b038381166001600160a01b0319831681178455604051919092169283917f8be0079c531659141344cd1fd0a4f28419497f9722a3daafe3b4186f6b6457e09190a35050565b508054612075906126ac565b6000825580601f10612085575050565b601f016020900490600052602060002090810190610cdc91905b808211156120b3576000815560010161209f565b5090565b80356001600160a01b03811681146120ce57600080fd5b919050565b6000602082840312156120e557600080fd5b6120ee826120b7565b9392505050565b6000806040838503121561210857600080fd5b823591506020830135801515811461211f57600080fd5b809150509250929050565b634e487b7160e01b600052604160045260246000fd5b600082601f83011261215157600080fd5b813567ffffffffffffffff8082111561216c5761216c61212a565b604051601f8301601f19908116603f011681019082821181831017156121945761219461212a565b816040528381528660208588010111156121ad57600080fd5b836020870160208301376000602085830101528094505050505092915050565b6000602082840312156121df57600080fd5b813567ffffffffffffffff8111156121f657600080fd5b61220284828501612140565b949350505050565b60005b8381101561222557818101518382015260200161220d565b50506000910152565b6000815180845261224681602086016020860161220a565b601f01601f19169290920160200192915050565b634e487b7160e01b600052602160045260246000fd5b6003811061228e57634e487b7160e01b600052602160045260246000fd5b9052565b6001600160a01b038c168152610160602082018190526000906122b78382018e61222e565b905082810360408401526122cb818d61222e565b905082810360608401526122df818c61222e565b90506122ee608084018b612270565b88151560a084015287151560c08401528660e08401528561010084015282810361012084015261231e818661222e565b9050828103610140840152612333818561222e565b9e9d5050505050505050505050505050565b60006020828403121561235757600080fd5b5035919050565b6001600160a01b038716815260c0602082018190526000906123829083018861222e565b8281036040840152612394818861222e565b606084019690965250509115156080830152151560a0909101529392505050565b600080604083850312156123c857600080fd5b823567ffffffffffffffff808211156123e057600080fd5b6123ec86838701612140565b9350602085013591508082111561240257600080fd5b5061240f85828601612140565b9150509250929050565b6000806040838503121561242c57600080fd5b612435836120b7565b9150602083013567ffffffffffffffff81111561245157600080fd5b61240f85828601612140565b6020815260006120ee602083018461222e565b8035600381106120ce57600080fd5b60008060008060008060c0878903121561249857600080fd5b863567ffffffffffffffff808211156124b057600080fd5b6124bc8a838b01612140565b975060208901359150808211156124d257600080fd5b6124de8a838b01612140565b965060408901359150808211156124f457600080fd5b6125008a838b01612140565b955061250e60608a01612470565b9450608089013591508082111561252457600080fd5b6125308a838b01612140565b935060a089013591508082111561254657600080fd5b5061255389828a01612140565b9150509295509295509295565b600080600080600060a0868803121561257857600080fd5b853567ffffffffffffffff8082111561259057600080fd5b61259c89838a01612140565b965060208801359150808211156125b257600080fd5b6125be89838a01612140565b955060408801359150808211156125d457600080fd5b6125e089838a01612140565b945060608801359150808211156125f657600080fd5b61260289838a01612140565b9350608088013591508082111561261857600080fd5b5061262588828901612140565b9150509295509295909350565b6020808252825182820181905260009190848201906040850190845b818110156126735783516001600160a01b03168352928401929184019160010161264e565b50909695505050505050565b602080825260139082015272155cd95c881b9bdd081c9959da5cdd195c9959606a1b604082015260600190565b600181811c908216806126c057607f821691505b6020821081036126e057634e487b7160e01b600052602260045260246000fd5b50919050565b6020808252600f908201526e55736572206e6f742061637469766560881b604082015260600190565b60006001820161272f57634e487b7160e01b600052601160045260246000fd5b5060010190565b601f82111561278057600081815260208120601f850160051c8101602086101561275d5750805b601f850160051c820191505b8181101561277c57828155600101612769565b5050505b505050565b815167ffffffffffffffff81111561279f5761279f61212a565b6127b3816127ad84546126ac565b84612736565b602080601f8311600181146127e857600084156127d05750858301515b600019600386901b1c1916600185901b17855561277c565b600085815260208120601f198616915b82811015612817578886015182559484019460019091019084016127f8565b50858210156128355787850151600019600388901b60f8161c191681555b5050505050600190811b01905550565b6000825161285781846020870161220a565b9190910192915050565b606081526000612874606083018661222e565b8281036020840152612886818661222e565b9150506122026040830184612270565b600081546128a3816126ac565b600182811680156128bb57600181146128d0576128ff565b60ff19841687528215158302870194506128ff565b8560005260208060002060005b858110156128f65781548a8201529084019082016128dd565b50505082870194505b5050505092915050565b60006120ee8284612896565b604081526000612928604083018561222e565b828103602084015261293a818561222e565b9594505050505056fea264697066735822122023bc1c3e48190c876cd8bf01127469ef5f3f10a6507b13555d699982ce741c1c64736f6c63430008130033",
  "linkReferences": {},
  "deployedLinkReferences": {}
}